{
    "contractName": "EnhancedMinterPauser",
    "abi": [
        {
            "anonymous": false,
            "inputs": [
                {
                    "indexed": true,
                    "internalType": "address",
                    "name": "owner",
                    "type": "address"
                },
                {
                    "indexed": true,
                    "internalType": "address",
                    "name": "spender",
                    "type": "address"
                },
                {
                    "indexed": false,
                    "internalType": "uint256",
                    "name": "value",
                    "type": "uint256"
                }
            ],
            "name": "Approval",
            "type": "event"
        },
        {
            "anonymous": false,
            "inputs": [
                {
                    "indexed": false,
                    "internalType": "address",
                    "name": "account",
                    "type": "address"
                }
            ],
            "name": "Paused",
            "type": "event"
        },
        {
            "anonymous": false,
            "inputs": [
                {
                    "indexed": true,
                    "internalType": "bytes32",
                    "name": "role",
                    "type": "bytes32"
                },
                {
                    "indexed": true,
                    "internalType": "bytes32",
                    "name": "previousAdminRole",
                    "type": "bytes32"
                },
                {
                    "indexed": true,
                    "internalType": "bytes32",
                    "name": "newAdminRole",
                    "type": "bytes32"
                }
            ],
            "name": "RoleAdminChanged",
            "type": "event"
        },
        {
            "anonymous": false,
            "inputs": [
                {
                    "indexed": true,
                    "internalType": "bytes32",
                    "name": "role",
                    "type": "bytes32"
                },
                {
                    "indexed": true,
                    "internalType": "address",
                    "name": "account",
                    "type": "address"
                },
                {
                    "indexed": true,
                    "internalType": "address",
                    "name": "sender",
                    "type": "address"
                }
            ],
            "name": "RoleGranted",
            "type": "event"
        },
        {
            "anonymous": false,
            "inputs": [
                {
                    "indexed": true,
                    "internalType": "bytes32",
                    "name": "role",
                    "type": "bytes32"
                },
                {
                    "indexed": true,
                    "internalType": "address",
                    "name": "account",
                    "type": "address"
                },
                {
                    "indexed": true,
                    "internalType": "address",
                    "name": "sender",
                    "type": "address"
                }
            ],
            "name": "RoleRevoked",
            "type": "event"
        },
        {
            "anonymous": false,
            "inputs": [
                {
                    "indexed": true,
                    "internalType": "address",
                    "name": "from",
                    "type": "address"
                },
                {
                    "indexed": true,
                    "internalType": "address",
                    "name": "to",
                    "type": "address"
                },
                {
                    "indexed": false,
                    "internalType": "uint256",
                    "name": "value",
                    "type": "uint256"
                }
            ],
            "name": "Transfer",
            "type": "event"
        },
        {
            "anonymous": false,
            "inputs": [
                {
                    "indexed": false,
                    "internalType": "address",
                    "name": "account",
                    "type": "address"
                }
            ],
            "name": "Unpaused",
            "type": "event"
        },
        {
            "anonymous": false,
            "inputs": [
                {
                    "indexed": false,
                    "internalType": "address",
                    "name": "newValue",
                    "type": "address"
                }
            ],
            "name": "mintingFeeAddressChanged",
            "type": "event"
        },
        {
            "anonymous": false,
            "inputs": [
                {
                    "indexed": false,
                    "internalType": "uint32",
                    "name": "newValue",
                    "type": "uint32"
                }
            ],
            "name": "mintingFeePercentChanged",
            "type": "event"
        },
        {
            "inputs": [],
            "name": "DEFAULT_ADMIN_ROLE",
            "outputs": [
                {
                    "internalType": "bytes32",
                    "name": "",
                    "type": "bytes32"
                }
            ],
            "stateMutability": "view",
            "type": "function"
        },
        {
            "inputs": [],
            "name": "FEE_EXCLUDED_ROLE",
            "outputs": [
                {
                    "internalType": "bytes32",
                    "name": "",
                    "type": "bytes32"
                }
            ],
            "stateMutability": "view",
            "type": "function"
        },
        {
            "inputs": [],
            "name": "MINTER_ROLE",
            "outputs": [
                {
                    "internalType": "bytes32",
                    "name": "",
                    "type": "bytes32"
                }
            ],
            "stateMutability": "view",
            "type": "function"
        },
        {
            "inputs": [],
            "name": "PAUSER_ROLE",
            "outputs": [
                {
                    "internalType": "bytes32",
                    "name": "",
                    "type": "bytes32"
                }
            ],
            "stateMutability": "view",
            "type": "function"
        },
        {
            "inputs": [
                {
                    "internalType": "address",
                    "name": "owner",
                    "type": "address"
                },
                {
                    "internalType": "address",
                    "name": "spender",
                    "type": "address"
                }
            ],
            "name": "allowance",
            "outputs": [
                {
                    "internalType": "uint256",
                    "name": "",
                    "type": "uint256"
                }
            ],
            "stateMutability": "view",
            "type": "function"
        },
        {
            "inputs": [
                {
                    "internalType": "address",
                    "name": "spender",
                    "type": "address"
                },
                {
                    "internalType": "uint256",
                    "name": "amount",
                    "type": "uint256"
                }
            ],
            "name": "approve",
            "outputs": [
                {
                    "internalType": "bool",
                    "name": "",
                    "type": "bool"
                }
            ],
            "stateMutability": "nonpayable",
            "type": "function"
        },
        {
            "inputs": [
                {
                    "internalType": "address",
                    "name": "account",
                    "type": "address"
                }
            ],
            "name": "balanceOf",
            "outputs": [
                {
                    "internalType": "uint256",
                    "name": "",
                    "type": "uint256"
                }
            ],
            "stateMutability": "view",
            "type": "function"
        },
        {
            "inputs": [
                {
                    "internalType": "uint256",
                    "name": "amount",
                    "type": "uint256"
                }
            ],
            "name": "burn",
            "outputs": [],
            "stateMutability": "nonpayable",
            "type": "function"
        },
        {
            "inputs": [
                {
                    "internalType": "address",
                    "name": "account",
                    "type": "address"
                },
                {
                    "internalType": "uint256",
                    "name": "amount",
                    "type": "uint256"
                }
            ],
            "name": "burnFrom",
            "outputs": [],
            "stateMutability": "nonpayable",
            "type": "function"
        },
        {
            "inputs": [],
            "name": "decimals",
            "outputs": [
                {
                    "internalType": "uint8",
                    "name": "",
                    "type": "uint8"
                }
            ],
            "stateMutability": "view",
            "type": "function"
        },
        {
            "inputs": [
                {
                    "internalType": "address",
                    "name": "spender",
                    "type": "address"
                },
                {
                    "internalType": "uint256",
                    "name": "subtractedValue",
                    "type": "uint256"
                }
            ],
            "name": "decreaseAllowance",
            "outputs": [
                {
                    "internalType": "bool",
                    "name": "",
                    "type": "bool"
                }
            ],
            "stateMutability": "nonpayable",
            "type": "function"
        },
        {
            "inputs": [],
            "name": "feeAddress",
            "outputs": [
                {
                    "internalType": "address",
                    "name": "",
                    "type": "address"
                }
            ],
            "stateMutability": "view",
            "type": "function"
        },
        {
            "inputs": [
                {
                    "internalType": "bytes32",
                    "name": "role",
                    "type": "bytes32"
                }
            ],
            "name": "getRoleAdmin",
            "outputs": [
                {
                    "internalType": "bytes32",
                    "name": "",
                    "type": "bytes32"
                }
            ],
            "stateMutability": "view",
            "type": "function"
        },
        {
            "inputs": [
                {
                    "internalType": "bytes32",
                    "name": "role",
                    "type": "bytes32"
                },
                {
                    "internalType": "uint256",
                    "name": "index",
                    "type": "uint256"
                }
            ],
            "name": "getRoleMember",
            "outputs": [
                {
                    "internalType": "address",
                    "name": "",
                    "type": "address"
                }
            ],
            "stateMutability": "view",
            "type": "function"
        },
        {
            "inputs": [
                {
                    "internalType": "bytes32",
                    "name": "role",
                    "type": "bytes32"
                }
            ],
            "name": "getRoleMemberCount",
            "outputs": [
                {
                    "internalType": "uint256",
                    "name": "",
                    "type": "uint256"
                }
            ],
            "stateMutability": "view",
            "type": "function"
        },
        {
            "inputs": [
                {
                    "internalType": "bytes32",
                    "name": "role",
                    "type": "bytes32"
                },
                {
                    "internalType": "address",
                    "name": "account",
                    "type": "address"
                }
            ],
            "name": "grantRole",
            "outputs": [],
            "stateMutability": "nonpayable",
            "type": "function"
        },
        {
            "inputs": [
                {
                    "internalType": "bytes32",
                    "name": "role",
                    "type": "bytes32"
                },
                {
                    "internalType": "address",
                    "name": "account",
                    "type": "address"
                }
            ],
            "name": "hasRole",
            "outputs": [
                {
                    "internalType": "bool",
                    "name": "",
                    "type": "bool"
                }
            ],
            "stateMutability": "view",
            "type": "function"
        },
        {
            "inputs": [
                {
                    "internalType": "address",
                    "name": "spender",
                    "type": "address"
                },
                {
                    "internalType": "uint256",
                    "name": "addedValue",
                    "type": "uint256"
                }
            ],
            "name": "increaseAllowance",
            "outputs": [
                {
                    "internalType": "bool",
                    "name": "",
                    "type": "bool"
                }
            ],
            "stateMutability": "nonpayable",
            "type": "function"
        },
        {
            "inputs": [
                {
                    "internalType": "string",
                    "name": "name",
                    "type": "string"
                },
                {
                    "internalType": "string",
                    "name": "symbol",
                    "type": "string"
                }
            ],
            "name": "initialize",
            "outputs": [],
            "stateMutability": "nonpayable",
            "type": "function"
        },
        {
            "inputs": [
                {
                    "internalType": "address",
                    "name": "to",
                    "type": "address"
                },
                {
                    "internalType": "uint256",
                    "name": "amount",
                    "type": "uint256"
                }
            ],
            "name": "mint",
            "outputs": [],
            "stateMutability": "nonpayable",
            "type": "function"
        },
        {
            "inputs": [
                {
                    "internalType": "address",
                    "name": "recipient",
                    "type": "address"
                },
                {
                    "internalType": "uint256",
                    "name": "amount",
                    "type": "uint256"
                }
            ],
            "name": "mintWithFee",
            "outputs": [],
            "stateMutability": "nonpayable",
            "type": "function"
        },
        {
            "inputs": [
                {
                    "internalType": "address",
                    "name": "recipient",
                    "type": "address"
                },
                {
                    "internalType": "uint256",
                    "name": "amount",
                    "type": "uint256"
                }
            ],
            "name": "mintWithoutDecimals",
            "outputs": [],
            "stateMutability": "nonpayable",
            "type": "function"
        },
        {
            "inputs": [],
            "name": "name",
            "outputs": [
                {
                    "internalType": "string",
                    "name": "",
                    "type": "string"
                }
            ],
            "stateMutability": "view",
            "type": "function"
        },
        {
            "inputs": [],
            "name": "pause",
            "outputs": [],
            "stateMutability": "nonpayable",
            "type": "function"
        },
        {
            "inputs": [],
            "name": "paused",
            "outputs": [
                {
                    "internalType": "bool",
                    "name": "",
                    "type": "bool"
                }
            ],
            "stateMutability": "view",
            "type": "function"
        },
        {
            "inputs": [
                {
                    "internalType": "bytes32",
                    "name": "role",
                    "type": "bytes32"
                },
                {
                    "internalType": "address",
                    "name": "account",
                    "type": "address"
                }
            ],
            "name": "renounceRole",
            "outputs": [],
            "stateMutability": "nonpayable",
            "type": "function"
        },
        {
            "inputs": [
                {
                    "internalType": "bytes32",
                    "name": "role",
                    "type": "bytes32"
                },
                {
                    "internalType": "address",
                    "name": "account",
                    "type": "address"
                }
            ],
            "name": "revokeRole",
            "outputs": [],
            "stateMutability": "nonpayable",
            "type": "function"
        },
        {
            "inputs": [
                {
                    "internalType": "address",
                    "name": "_feeAddress",
                    "type": "address"
                }
            ],
            "name": "setMintingFeeAddress",
            "outputs": [],
            "stateMutability": "nonpayable",
            "type": "function"
        },
        {
            "inputs": [
                {
                    "internalType": "uint32",
                    "name": "_tokenTransferFeeDivisor",
                    "type": "uint32"
                }
            ],
            "name": "setTransferFeeDivisor",
            "outputs": [],
            "stateMutability": "nonpayable",
            "type": "function"
        },
        {
            "inputs": [],
            "name": "symbol",
            "outputs": [
                {
                    "internalType": "string",
                    "name": "",
                    "type": "string"
                }
            ],
            "stateMutability": "view",
            "type": "function"
        },
        {
            "inputs": [],
            "name": "tokenTransferFeeDivisor",
            "outputs": [
                {
                    "internalType": "uint32",
                    "name": "",
                    "type": "uint32"
                }
            ],
            "stateMutability": "view",
            "type": "function"
        },
        {
            "inputs": [],
            "name": "totalSupply",
            "outputs": [
                {
                    "internalType": "uint256",
                    "name": "",
                    "type": "uint256"
                }
            ],
            "stateMutability": "view",
            "type": "function"
        },
        {
            "inputs": [
                {
                    "internalType": "address",
                    "name": "recipient",
                    "type": "address"
                },
                {
                    "internalType": "uint256",
                    "name": "amount",
                    "type": "uint256"
                }
            ],
            "name": "transfer",
            "outputs": [
                {
                    "internalType": "bool",
                    "name": "",
                    "type": "bool"
                }
            ],
            "stateMutability": "nonpayable",
            "type": "function"
        },
        {
            "inputs": [
                {
                    "internalType": "address",
                    "name": "sender",
                    "type": "address"
                },
                {
                    "internalType": "address",
                    "name": "recipient",
                    "type": "address"
                },
                {
                    "internalType": "uint256",
                    "name": "amount",
                    "type": "uint256"
                }
            ],
            "name": "transferFrom",
            "outputs": [
                {
                    "internalType": "bool",
                    "name": "",
                    "type": "bool"
                }
            ],
            "stateMutability": "nonpayable",
            "type": "function"
        },
        {
            "inputs": [],
            "name": "unpause",
            "outputs": [],
            "stateMutability": "nonpayable",
            "type": "function"
        }
    ],
    "bytecode": "608060405234801561001057600080fd5b506124e7806100206000396000f3fe608060405234801561001057600080fd5b50600436106102115760003560e01c80634e01b0d011610125578063a217fddf116100ad578063ca15c8731161007c578063ca15c87314610765578063d539139314610782578063d547741f1461078a578063dd62ed3e146107b6578063e63ab1e9146107e457610211565b8063a217fddf146106df578063a457c2d7146106e7578063a9059cbb14610713578063ae1cb3801461073f57610211565b806379cc6790116100f457806379cc6790146106545780638456cb59146106805780639010d07c1461068857806391d14854146106ab57806395d89b41146106d757610211565b80634e01b0d0146105ce5780635c975abb146105fa5780635d520e641461060257806370a082311461062e57610211565b8063313ce567116101a857806340c10f191161017757806340c10f1914610415578063412753581461044157806342966c681461046557806349178ad5146104825780634cd88b76146104a557610211565b8063313ce5671461039757806336568abe146103b557806339509351146103e15780633f4ba83a1461040d57610211565b806323b872dd116101e457806323b872dd1461030e578063248a9ca3146103445780632dd8175a146103615780632f2ff15d1461036957610211565b806306fdde0314610216578063095ea7b3146102935780631804cb04146102d357806318160ddd146102f4575b600080fd5b61021e6107ec565b6040805160208082528351818301528351919283929083019185019080838360005b83811015610258578181015183820152602001610240565b50505050905090810190601f1680156102855780820380516001836020036101000a031916815260200191505b509250505060405180910390f35b6102bf600480360360408110156102a957600080fd5b506001600160a01b038135169060200135610882565b604080519115158252519081900360200190f35b6102db6108a0565b6040805163ffffffff9092168252519081900360200190f35b6102fc6108ad565b60408051918252519081900360200190f35b6102bf6004803603606081101561032457600080fd5b506001600160a01b038135811691602081013590911690604001356108b3565b6102fc6004803603602081101561035a57600080fd5b503561093a565b6102fc61094f565b6103956004803603604081101561037f57600080fd5b50803590602001356001600160a01b0316610973565b005b61039f6109df565b6040805160ff9092168252519081900360200190f35b610395600480360360408110156103cb57600080fd5b50803590602001356001600160a01b03166109e8565b6102bf600480360360408110156103f757600080fd5b506001600160a01b038135169060200135610a49565b610395610a97565b6103956004803603604081101561042b57600080fd5b506001600160a01b038135169060200135610af6565b610449610b67565b604080516001600160a01b039092168252519081900360200190f35b6103956004803603602081101561047b57600080fd5b5035610b7e565b6103956004803603602081101561049857600080fd5b503563ffffffff16610b92565b610395600480360360408110156104bb57600080fd5b810190602081018135600160201b8111156104d557600080fd5b8201836020820111156104e757600080fd5b803590602001918460018302840111600160201b8311171561050857600080fd5b91908080601f0160208091040260200160405190810160405280939291908181526020018383808284376000920191909152509295949360208101935035915050600160201b81111561055a57600080fd5b82018360208201111561056c57600080fd5b803590602001918460018302840111600160201b8311171561058d57600080fd5b91908080601f016020809104026020016040519081016040528093929190818152602001838380828437600092019190915250929550610c74945050505050565b610395600480360360408110156105e457600080fd5b506001600160a01b038135169060200135610d22565b6102bf610d7e565b6103956004803603604081101561061857600080fd5b506001600160a01b038135169060200135610d87565b6102fc6004803603602081101561064457600080fd5b50356001600160a01b0316610de1565b6103956004803603604081101561066a57600080fd5b506001600160a01b038135169060200135610dfc565b610395610e51565b6104496004803603604081101561069e57600080fd5b5080359060200135610eae565b6102bf600480360360408110156106c157600080fd5b50803590602001356001600160a01b0316610ecd565b61021e610ee5565b6102fc610f46565b6102bf600480360360408110156106fd57600080fd5b506001600160a01b038135169060200135610f4b565b6102bf6004803603604081101561072957600080fd5b506001600160a01b038135169060200135610fb3565b6103956004803603602081101561075557600080fd5b50356001600160a01b031661100f565b6102fc6004803603602081101561077b57600080fd5b50356110c1565b6102fc6110d8565b610395600480360360408110156107a057600080fd5b50803590602001356001600160a01b03166110fc565b6102fc600480360360408110156107cc57600080fd5b506001600160a01b0381358116916020013516611155565b6102fc611180565b60688054604080516020601f60026000196101006001881615020190951694909404938401819004810282018101909252828152606093909290918301828280156108785780601f1061084d57610100808354040283529160200191610878565b820191906000526020600020905b81548152906001019060200180831161085b57829003601f168201915b5050505050905090565b600061089661088f611192565b8484611196565b5060015b92915050565b61015f5463ffffffff1681565b60675490565b60006108c0848484611282565b610930846108cc611192565b61092b85604051806060016040528060288152602001612285602891396001600160a01b038a1660009081526066602052604081209061090a611192565b6001600160a01b0316815260208101919091526040016000205491906113df565b611196565b5060019392505050565b60009081526033602052604090206002015490565b7fbcaa5c4620c62b2fedc77ef4fe401724814aeef811d907416a737179a85b1ab281565b60008281526033602052604090206002015461099690610991611192565b610ecd565b6109d15760405162461bcd60e51b815260040180806020018281038252602f815260200180612101602f913960400191505060405180910390fd5b6109db8282611476565b5050565b606a5460ff1690565b6109f0611192565b6001600160a01b0316816001600160a01b031614610a3f5760405162461bcd60e51b815260040180806020018281038252602f815260200180612459602f913960400191505060405180910390fd5b6109db82826114df565b6000610896610a56611192565b8461092b8560666000610a67611192565b6001600160a01b03908116825260208083019390935260409182016000908120918c168152925290205490611548565b610ab16000805160206122ad833981519152610991611192565b610aec5760405162461bcd60e51b81526004018080602001828103825260398152602001806121836039913960400191505060405180910390fd5b610af46115a2565b565b610b227f9f2df0fed2c77648de5860a4cc508cd0818c85b8b8a1ab4ceeef8d981c8956a6610991611192565b610b5d5760405162461bcd60e51b81526004018080602001828103825260368152602001806122cd6036913960400191505060405180910390fd5b6109db8282611640565b61015f54600160201b90046001600160a01b031681565b610b8f610b89611192565b82611732565b50565b610b9f6000610991611192565b610bda5760405162461bcd60e51b81526004018080602001828103825260368152602001806123fe6036913960400191505060405180910390fd5b60008163ffffffff1611610c1f5760405162461bcd60e51b81526004018080602001828103825260318152602001806121306031913960400191505060405180910390fd5b61015f805463ffffffff191663ffffffff838116919091179182905560408051929091168252517fb4fb343f6573d5bcc1c7ab700665911f5ed2699ecfc6a7d1b1af8405409b22ec916020908290030190a150565b600054610100900460ff1680610c8d5750610c8d61182e565b80610c9b575060005460ff16155b610cd65760405162461bcd60e51b815260040180806020018281038252602e815260200180612234602e913960400191505060405180910390fd5b600054610100900460ff16158015610d01576000805460ff1961ff0019909116610100171660011790555b610d0b8383611834565b8015610d1d576000805461ff00191690555b505050565b610d2f6000610991611192565b610d6a5760405162461bcd60e51b81526004018080602001828103825260238152602001806122626023913960400191505060405180910390fd5b6109db82670de0b6b3a76400008302611640565b60c95460ff1690565b610d946000610991611192565b610dcf5760405162461bcd60e51b81526004018080602001828103825260238152602001806122626023913960400191505060405180910390fd5b6109db82610ddc836118fd565b611640565b6001600160a01b031660009081526065602052604090205490565b6000610e338260405180606001604052806024815260200161230360249139610e2c86610e27611192565b611155565b91906113df565b9050610e4783610e41611192565b83611196565b610d1d8383611732565b610e6b6000805160206122ad833981519152610991611192565b610ea65760405162461bcd60e51b81526004018080602001828103825260378152602001806123c76037913960400191505060405180910390fd5b610af4611953565b6000828152603360205260408120610ec690836119d4565b9392505050565b6000828152603360205260408120610ec690836119e0565b60698054604080516020601f60026000196101006001881615020190951694909404938401819004810282018101909252828152606093909290918301828280156108785780601f1061084d57610100808354040283529160200191610878565b600081565b6000610896610f58611192565b8461092b856040518060600160405280602581526020016124346025913960666000610f82611192565b6001600160a01b03908116825260208083019390935260409182016000908120918d168152925290205491906113df565b6000610fe17fbcaa5c4620c62b2fedc77ef4fe401724814aeef811d907416a737179a85b1ab2610991611192565b15610ff657610ff083836119f5565b5061089a565b61100883611003846118fd565b6119f5565b905061089a565b61101c6000610991611192565b6110575760405162461bcd60e51b81526004018080602001828103825260368152602001806123916036913960400191505060405180910390fd5b61015f80546001600160a01b03808416600160201b908102640100000000600160c01b03199093169290921792839055604080519290930416815290517f6eea80b7608c97ee92c02a7c9e1b5f0373c4902a84a9b06c5f96072b2ebc6e739181900360200190a150565b600081815260336020526040812061089a90611a09565b7f9f2df0fed2c77648de5860a4cc508cd0818c85b8b8a1ab4ceeef8d981c8956a681565b60008281526033602052604090206002015461111a90610991611192565b610a3f5760405162461bcd60e51b81526004018080602001828103825260308152602001806122046030913960400191505060405180910390fd5b6001600160a01b03918216600090815260666020908152604080832093909416825291909152205490565b6000805160206122ad83398151915281565b3390565b6001600160a01b0383166111db5760405162461bcd60e51b815260040180806020018281038252602481526020018061236d6024913960400191505060405180910390fd5b6001600160a01b0382166112205760405162461bcd60e51b81526004018080602001828103825260228152602001806121bc6022913960400191505060405180910390fd5b6001600160a01b03808416600081815260666020908152604080832094871680845294825291829020859055815185815291517f8c5be1e5ebec7d5bd14f71427d1e84f3dd0314c0f7b2291e5b200ac8c7c3b9259281900390910190a3505050565b6001600160a01b0383166112c75760405162461bcd60e51b81526004018080602001828103825260258152602001806123486025913960400191505060405180910390fd5b6001600160a01b03821661130c5760405162461bcd60e51b81526004018080602001828103825260238152602001806120de6023913960400191505060405180910390fd5b611317838383611a14565b611354816040518060600160405280602681526020016121de602691396001600160a01b03861660009081526065602052604090205491906113df565b6001600160a01b0380851660009081526065602052604080822093909355908416815220546113839082611548565b6001600160a01b0380841660008181526065602090815260409182902094909455805185815290519193928716927fddf252ad1be2c89b69c2b068fc378daa952ba7f163c4a11628f55a4df523b3ef92918290030190a3505050565b6000818484111561146e5760405162461bcd60e51b81526004018080602001828103825283818151815260200191508051906020019080838360005b8381101561143357818101518382015260200161141b565b50505050905090810190601f1680156114605780820380516001836020036101000a031916815260200191505b509250505060405180910390fd5b505050900390565b600082815260336020526040902061148e9082611a1f565b156109db5761149b611192565b6001600160a01b0316816001600160a01b0316837f2f8788117e7eff1d82e926ec794901d17c78024a50270940304540a733656f0d60405160405180910390a45050565b60008281526033602052604090206114f79082611a34565b156109db57611504611192565b6001600160a01b0316816001600160a01b0316837ff6391f5c32d9c69d2a47ea670b442974b53935d1edc7fd64eb21e047a839171b60405160405180910390a45050565b600082820183811015610ec6576040805162461bcd60e51b815260206004820152601b60248201527f536166654d6174683a206164646974696f6e206f766572666c6f770000000000604482015290519081900360640190fd5b60c95460ff166115f0576040805162461bcd60e51b815260206004820152601460248201527314185d5cd8589b194e881b9bdd081c185d5cd95960621b604482015290519081900360640190fd5b60c9805460ff191690557f5db9ee0a495bf2e6ff9c91a7834c1ba4fdd244a5e8aa4e537bd38aeae4b073aa611623611192565b604080516001600160a01b039092168252519081900360200190a1565b6001600160a01b03821661169b576040805162461bcd60e51b815260206004820152601f60248201527f45524332303a206d696e7420746f20746865207a65726f206164647265737300604482015290519081900360640190fd5b6116a760008383611a14565b6067546116b49082611548565b6067556001600160a01b0382166000908152606560205260409020546116da9082611548565b6001600160a01b03831660008181526065602090815260408083209490945583518581529351929391927fddf252ad1be2c89b69c2b068fc378daa952ba7f163c4a11628f55a4df523b3ef9281900390910190a35050565b6001600160a01b0382166117775760405162461bcd60e51b81526004018080602001828103825260218152602001806123276021913960400191505060405180910390fd5b61178382600083611a14565b6117c081604051806060016040528060228152602001612161602291396001600160a01b03851660009081526065602052604090205491906113df565b6001600160a01b0383166000908152606560205260409020556067546117e69082611a49565b6067556040805182815290516000916001600160a01b038516917fddf252ad1be2c89b69c2b068fc378daa952ba7f163c4a11628f55a4df523b3ef9181900360200190a35050565b303b1590565b600054610100900460ff168061184d575061184d61182e565b8061185b575060005460ff16155b6118965760405162461bcd60e51b815260040180806020018281038252602e815260200180612234602e913960400191505060405180910390fd5b600054610100900460ff161580156118c1576000805460ff1961ff0019909116610100171660011790555b6118c9611a8b565b6118d1611a8b565b6118db8383611b2c565b6118e3611a8b565b6118eb611c04565b6118f3611a8b565b610d0b8383611caf565b61015f5460009061192e906001600160a01b03600160201b8204169061100390859063ffffffff90811690611d9416565b5061015f5461089a9061194c90849063ffffffff90811690611d9416565b8390611a49565b60c95460ff161561199e576040805162461bcd60e51b815260206004820152601060248201526f14185d5cd8589b194e881c185d5cd95960821b604482015290519081900360640190fd5b60c9805460ff191660011790557f62e78cea01bee320cd4e420270b5ea74000d11b0c9f74754ebdbfc544b05a258611623611192565b6000610ec68383611dd6565b6000610ec6836001600160a01b038416611e3a565b6000610896611a02611192565b8484611282565b600061089a82611e52565b610d1d838383611e56565b6000610ec6836001600160a01b038416611ea5565b6000610ec6836001600160a01b038416611eef565b6000610ec683836040518060400160405280601e81526020017f536166654d6174683a207375627472616374696f6e206f766572666c6f7700008152506113df565b600054610100900460ff1680611aa45750611aa461182e565b80611ab2575060005460ff16155b611aed5760405162461bcd60e51b815260040180806020018281038252602e815260200180612234602e913960400191505060405180910390fd5b600054610100900460ff16158015611b18576000805460ff1961ff0019909116610100171660011790555b8015610b8f576000805461ff001916905550565b600054610100900460ff1680611b455750611b4561182e565b80611b53575060005460ff16155b611b8e5760405162461bcd60e51b815260040180806020018281038252602e815260200180612234602e913960400191505060405180910390fd5b600054610100900460ff16158015611bb9576000805460ff1961ff0019909116610100171660011790555b8251611bcc90606890602086019061201a565b508151611be090606990602085019061201a565b50606a805460ff191660121790558015610d1d576000805461ff0019169055505050565b600054610100900460ff1680611c1d5750611c1d61182e565b80611c2b575060005460ff16155b611c665760405162461bcd60e51b815260040180806020018281038252602e815260200180612234602e913960400191505060405180910390fd5b600054610100900460ff16158015611c91576000805460ff1961ff0019909116610100171660011790555b60c9805460ff191690558015610b8f576000805461ff001916905550565b600054610100900460ff1680611cc85750611cc861182e565b80611cd6575060005460ff16155b611d115760405162461bcd60e51b815260040180806020018281038252602e815260200180612234602e913960400191505060405180910390fd5b600054610100900460ff16158015611d3c576000805460ff1961ff0019909116610100171660011790555b611d4e6000611d49611192565b6109d1565b611d7a7f9f2df0fed2c77648de5860a4cc508cd0818c85b8b8a1ab4ceeef8d981c8956a6611d49611192565b610d0b6000805160206122ad833981519152611d49611192565b6000610ec683836040518060400160405280601a81526020017f536166654d6174683a206469766973696f6e206279207a65726f000000000000815250611fb5565b81546000908210611e185760405162461bcd60e51b81526004018080602001828103825260228152602001806120bc6022913960400191505060405180910390fd5b826000018281548110611e2757fe5b9060005260206000200154905092915050565b60009081526001919091016020526040902054151590565b5490565b611e61838383610d1d565b611e69610d7e565b15610d1d5760405162461bcd60e51b815260040180806020018281038252602a815260200180612488602a913960400191505060405180910390fd5b6000611eb18383611e3a565b611ee75750815460018181018455600084815260208082209093018490558454848252828601909352604090209190915561089a565b50600061089a565b60008181526001830160205260408120548015611fab5783546000198083019190810190600090879083908110611f2257fe5b9060005260206000200154905080876000018481548110611f3f57fe5b600091825260208083209091019290925582815260018981019092526040902090840190558654879080611f6f57fe5b6001900381819060005260206000200160009055905586600101600087815260200190815260200160002060009055600194505050505061089a565b600091505061089a565b600081836120045760405162461bcd60e51b815260206004820181815283516024840152835190928392604490910191908501908083836000831561143357818101518382015260200161141b565b50600083858161201057fe5b0495945050505050565b828054600181600116156101000203166002900490600052602060002090601f0160209004810192826120505760008555612096565b82601f1061206957805160ff1916838001178555612096565b82800160010185558215612096579182015b8281111561209657825182559160200191906001019061207b565b506120a29291506120a6565b5090565b5b808211156120a257600081556001016120a756fe456e756d657261626c655365743a20696e646578206f7574206f6620626f756e647345524332303a207472616e7366657220746f20746865207a65726f2061646472657373416363657373436f6e74726f6c3a2073656e646572206d75737420626520616e2061646d696e20746f206772616e74546f6b656e207472616e73666572206665652064697669736f72206d7573742062652067726561746572207468616e203045524332303a206275726e20616d6f756e7420657863656564732062616c616e636545524332305072657365744d696e7465725061757365723a206d75737420686176652070617573657220726f6c6520746f20756e706175736545524332303a20617070726f766520746f20746865207a65726f206164647265737345524332303a207472616e7366657220616d6f756e7420657863656564732062616c616e6365416363657373436f6e74726f6c3a2073656e646572206d75737420626520616e2061646d696e20746f207265766f6b65496e697469616c697a61626c653a20636f6e747261637420697320616c726561647920696e697469616c697a656443616c6c6572206d75737420686176652061646d696e20726f6c6520746f206d696e7445524332303a207472616e7366657220616d6f756e74206578636565647320616c6c6f77616e636565d7a28e3265b37a6474929f336521b332c1681b933f6cb9f3376673440d862a45524332305072657365744d696e7465725061757365723a206d7573742068617665206d696e74657220726f6c6520746f206d696e7445524332303a206275726e20616d6f756e74206578636565647320616c6c6f77616e636545524332303a206275726e2066726f6d20746865207a65726f206164647265737345524332303a207472616e736665722066726f6d20746865207a65726f206164647265737345524332303a20617070726f76652066726f6d20746865207a65726f206164647265737343616c6c6572206d75737420686176652061646d696e20726f6c6520746f20736574206d696e74696e6720666565206164647265737345524332305072657365744d696e7465725061757365723a206d75737420686176652070617573657220726f6c6520746f20706175736543616c6c6572206d75737420686176652061646d696e20726f6c6520746f20736574206d696e74696e67206665652070657263656e7445524332303a2064656372656173656420616c6c6f77616e63652062656c6f77207a65726f416363657373436f6e74726f6c3a2063616e206f6e6c792072656e6f756e636520726f6c657320666f722073656c6645524332305061757361626c653a20746f6b656e207472616e73666572207768696c6520706175736564a26469706673582212209fb078617d31cda4a45189df6440c4ed5cc258b493ba844f17cadb369d2fc01b64736f6c63430007050033",
    "sourcePath": "/Users/selimerunkut/dev_novem/erc20_nnn_token/contracts/EnhancedMinterPauser.sol",
    "compiler": {
        "name": "solc",
        "version": "0.7.5+commit.eb77ed08"
    },
    "functionHashes": {
        "DEFAULT_ADMIN_ROLE()": "a217fddf",
        "FEE_EXCLUDED_ROLE()": "2dd8175a",
        "MINTER_ROLE()": "d5391393",
        "PAUSER_ROLE()": "e63ab1e9",
        "allowance(address,address)": "dd62ed3e",
        "approve(address,uint256)": "095ea7b3",
        "balanceOf(address)": "70a08231",
        "burn(uint256)": "42966c68",
        "burnFrom(address,uint256)": "79cc6790",
        "decimals()": "313ce567",
        "decreaseAllowance(address,uint256)": "a457c2d7",
        "feeAddress()": "41275358",
        "getRoleAdmin(bytes32)": "248a9ca3",
        "getRoleMember(bytes32,uint256)": "9010d07c",
        "getRoleMemberCount(bytes32)": "ca15c873",
        "grantRole(bytes32,address)": "2f2ff15d",
        "hasRole(bytes32,address)": "91d14854",
        "increaseAllowance(address,uint256)": "39509351",
        "initialize(string,string)": "4cd88b76",
        "mint(address,uint256)": "40c10f19",
        "mintWithFee(address,uint256)": "5d520e64",
        "mintWithoutDecimals(address,uint256)": "4e01b0d0",
        "name()": "06fdde03",
        "pause()": "8456cb59",
        "paused()": "5c975abb",
        "renounceRole(bytes32,address)": "36568abe",
        "revokeRole(bytes32,address)": "d547741f",
        "setMintingFeeAddress(address)": "ae1cb380",
        "setTransferFeeDivisor(uint32)": "49178ad5",
        "symbol()": "95d89b41",
        "tokenTransferFeeDivisor()": "1804cb04",
        "totalSupply()": "18160ddd",
        "transfer(address,uint256)": "a9059cbb",
        "transferFrom(address,address,uint256)": "23b872dd",
        "unpause()": "3f4ba83a"
    },
    "gasEstimates": {
        "creation": {
            "codeDepositCost": "1889400",
            "executionCost": "1998",
            "totalCost": "1891398"
        },
        "external": {
            "DEFAULT_ADMIN_ROLE()": "243",
            "FEE_EXCLUDED_ROLE()": "288",
            "MINTER_ROLE()": "264",
            "PAUSER_ROLE()": "infinite",
            "allowance(address,address)": "1360",
            "approve(address,uint256)": "infinite",
            "balanceOf(address)": "1254",
            "burn(uint256)": "infinite",
            "burnFrom(address,uint256)": "infinite",
            "decimals()": "1059",
            "decreaseAllowance(address,uint256)": "infinite",
            "feeAddress()": "1121",
            "getRoleAdmin(bytes32)": "1180",
            "getRoleMember(bytes32,uint256)": "infinite",
            "getRoleMemberCount(bytes32)": "infinite",
            "grantRole(bytes32,address)": "infinite",
            "hasRole(bytes32,address)": "infinite",
            "increaseAllowance(address,uint256)": "infinite",
            "initialize(string,string)": "infinite",
            "mint(address,uint256)": "infinite",
            "mintWithFee(address,uint256)": "infinite",
            "mintWithoutDecimals(address,uint256)": "infinite",
            "name()": "infinite",
            "pause()": "infinite",
            "paused()": "1078",
            "renounceRole(bytes32,address)": "infinite",
            "revokeRole(bytes32,address)": "infinite",
            "setMintingFeeAddress(address)": "infinite",
            "setTransferFeeDivisor(uint32)": "infinite",
            "symbol()": "infinite",
            "tokenTransferFeeDivisor()": "1104",
            "totalSupply()": "1111",
            "transfer(address,uint256)": "infinite",
            "transferFrom(address,address,uint256)": "infinite",
            "unpause()": "infinite"
        },
        "internal": {
            "__EnhancedMinterPauser_init(string memory,string memory)": "infinite",
            "__EnhancedMinterPauser_init_unchained()": "infinite",
            "_calculateAmountSubTransferFee(uint256)": "infinite"
        }
    }
}