{
    "contractName": "NNNToken",
    "abi": [
        {
            "anonymous": false,
            "inputs": [
                {
                    "indexed": true,
                    "internalType": "address",
                    "name": "owner",
                    "type": "address"
                },
                {
                    "indexed": true,
                    "internalType": "address",
                    "name": "spender",
                    "type": "address"
                },
                {
                    "indexed": false,
                    "internalType": "uint256",
                    "name": "value",
                    "type": "uint256"
                }
            ],
            "name": "Approval",
            "type": "event"
        },
        {
            "anonymous": false,
            "inputs": [
                {
                    "indexed": false,
                    "internalType": "address",
                    "name": "account",
                    "type": "address"
                }
            ],
            "name": "Paused",
            "type": "event"
        },
        {
            "anonymous": false,
            "inputs": [
                {
                    "indexed": true,
                    "internalType": "bytes32",
                    "name": "role",
                    "type": "bytes32"
                },
                {
                    "indexed": true,
                    "internalType": "bytes32",
                    "name": "previousAdminRole",
                    "type": "bytes32"
                },
                {
                    "indexed": true,
                    "internalType": "bytes32",
                    "name": "newAdminRole",
                    "type": "bytes32"
                }
            ],
            "name": "RoleAdminChanged",
            "type": "event"
        },
        {
            "anonymous": false,
            "inputs": [
                {
                    "indexed": true,
                    "internalType": "bytes32",
                    "name": "role",
                    "type": "bytes32"
                },
                {
                    "indexed": true,
                    "internalType": "address",
                    "name": "account",
                    "type": "address"
                },
                {
                    "indexed": true,
                    "internalType": "address",
                    "name": "sender",
                    "type": "address"
                }
            ],
            "name": "RoleGranted",
            "type": "event"
        },
        {
            "anonymous": false,
            "inputs": [
                {
                    "indexed": true,
                    "internalType": "bytes32",
                    "name": "role",
                    "type": "bytes32"
                },
                {
                    "indexed": true,
                    "internalType": "address",
                    "name": "account",
                    "type": "address"
                },
                {
                    "indexed": true,
                    "internalType": "address",
                    "name": "sender",
                    "type": "address"
                }
            ],
            "name": "RoleRevoked",
            "type": "event"
        },
        {
            "anonymous": false,
            "inputs": [
                {
                    "indexed": true,
                    "internalType": "address",
                    "name": "from",
                    "type": "address"
                },
                {
                    "indexed": true,
                    "internalType": "address",
                    "name": "to",
                    "type": "address"
                },
                {
                    "indexed": false,
                    "internalType": "uint256",
                    "name": "value",
                    "type": "uint256"
                }
            ],
            "name": "Transfer",
            "type": "event"
        },
        {
            "anonymous": false,
            "inputs": [
                {
                    "indexed": false,
                    "internalType": "address",
                    "name": "account",
                    "type": "address"
                }
            ],
            "name": "Unpaused",
            "type": "event"
        },
        {
            "anonymous": false,
            "inputs": [
                {
                    "indexed": false,
                    "internalType": "address",
                    "name": "newValue",
                    "type": "address"
                }
            ],
            "name": "mintingFeeAddressChanged",
            "type": "event"
        },
        {
            "anonymous": false,
            "inputs": [
                {
                    "indexed": false,
                    "internalType": "uint32",
                    "name": "newValue",
                    "type": "uint32"
                }
            ],
            "name": "mintingFeePercentChanged",
            "type": "event"
        },
        {
            "inputs": [],
            "name": "DEFAULT_ADMIN_ROLE",
            "outputs": [
                {
                    "internalType": "bytes32",
                    "name": "",
                    "type": "bytes32"
                }
            ],
            "stateMutability": "view",
            "type": "function"
        },
        {
            "inputs": [],
            "name": "FEE_EXCLUDED_ROLE",
            "outputs": [
                {
                    "internalType": "bytes32",
                    "name": "",
                    "type": "bytes32"
                }
            ],
            "stateMutability": "view",
            "type": "function"
        },
        {
            "inputs": [],
            "name": "MINTER_ROLE",
            "outputs": [
                {
                    "internalType": "bytes32",
                    "name": "",
                    "type": "bytes32"
                }
            ],
            "stateMutability": "view",
            "type": "function"
        },
        {
            "inputs": [],
            "name": "PAUSER_ROLE",
            "outputs": [
                {
                    "internalType": "bytes32",
                    "name": "",
                    "type": "bytes32"
                }
            ],
            "stateMutability": "view",
            "type": "function"
        },
        {
            "inputs": [
                {
                    "internalType": "string",
                    "name": "name",
                    "type": "string"
                },
                {
                    "internalType": "string",
                    "name": "symbol",
                    "type": "string"
                }
            ],
            "name": "__initialize",
            "outputs": [],
            "stateMutability": "nonpayable",
            "type": "function"
        },
        {
            "inputs": [
                {
                    "internalType": "address",
                    "name": "owner",
                    "type": "address"
                },
                {
                    "internalType": "address",
                    "name": "spender",
                    "type": "address"
                }
            ],
            "name": "allowance",
            "outputs": [
                {
                    "internalType": "uint256",
                    "name": "",
                    "type": "uint256"
                }
            ],
            "stateMutability": "view",
            "type": "function"
        },
        {
            "inputs": [
                {
                    "internalType": "address",
                    "name": "spender",
                    "type": "address"
                },
                {
                    "internalType": "uint256",
                    "name": "amount",
                    "type": "uint256"
                }
            ],
            "name": "approve",
            "outputs": [
                {
                    "internalType": "bool",
                    "name": "",
                    "type": "bool"
                }
            ],
            "stateMutability": "nonpayable",
            "type": "function"
        },
        {
            "inputs": [
                {
                    "internalType": "address",
                    "name": "account",
                    "type": "address"
                }
            ],
            "name": "balanceOf",
            "outputs": [
                {
                    "internalType": "uint256",
                    "name": "",
                    "type": "uint256"
                }
            ],
            "stateMutability": "view",
            "type": "function"
        },
        {
            "inputs": [
                {
                    "internalType": "uint256",
                    "name": "amount",
                    "type": "uint256"
                }
            ],
            "name": "burn",
            "outputs": [],
            "stateMutability": "nonpayable",
            "type": "function"
        },
        {
            "inputs": [
                {
                    "internalType": "address",
                    "name": "account",
                    "type": "address"
                },
                {
                    "internalType": "uint256",
                    "name": "amount",
                    "type": "uint256"
                }
            ],
            "name": "burnFrom",
            "outputs": [],
            "stateMutability": "nonpayable",
            "type": "function"
        },
        {
            "inputs": [],
            "name": "decimals",
            "outputs": [
                {
                    "internalType": "uint8",
                    "name": "",
                    "type": "uint8"
                }
            ],
            "stateMutability": "view",
            "type": "function"
        },
        {
            "inputs": [
                {
                    "internalType": "address",
                    "name": "spender",
                    "type": "address"
                },
                {
                    "internalType": "uint256",
                    "name": "subtractedValue",
                    "type": "uint256"
                }
            ],
            "name": "decreaseAllowance",
            "outputs": [
                {
                    "internalType": "bool",
                    "name": "",
                    "type": "bool"
                }
            ],
            "stateMutability": "nonpayable",
            "type": "function"
        },
        {
            "inputs": [],
            "name": "feeAddress",
            "outputs": [
                {
                    "internalType": "address",
                    "name": "",
                    "type": "address"
                }
            ],
            "stateMutability": "view",
            "type": "function"
        },
        {
            "inputs": [
                {
                    "internalType": "bytes32",
                    "name": "role",
                    "type": "bytes32"
                }
            ],
            "name": "getRoleAdmin",
            "outputs": [
                {
                    "internalType": "bytes32",
                    "name": "",
                    "type": "bytes32"
                }
            ],
            "stateMutability": "view",
            "type": "function"
        },
        {
            "inputs": [
                {
                    "internalType": "bytes32",
                    "name": "role",
                    "type": "bytes32"
                },
                {
                    "internalType": "uint256",
                    "name": "index",
                    "type": "uint256"
                }
            ],
            "name": "getRoleMember",
            "outputs": [
                {
                    "internalType": "address",
                    "name": "",
                    "type": "address"
                }
            ],
            "stateMutability": "view",
            "type": "function"
        },
        {
            "inputs": [
                {
                    "internalType": "bytes32",
                    "name": "role",
                    "type": "bytes32"
                }
            ],
            "name": "getRoleMemberCount",
            "outputs": [
                {
                    "internalType": "uint256",
                    "name": "",
                    "type": "uint256"
                }
            ],
            "stateMutability": "view",
            "type": "function"
        },
        {
            "inputs": [
                {
                    "internalType": "bytes32",
                    "name": "role",
                    "type": "bytes32"
                },
                {
                    "internalType": "address",
                    "name": "account",
                    "type": "address"
                }
            ],
            "name": "grantRole",
            "outputs": [],
            "stateMutability": "nonpayable",
            "type": "function"
        },
        {
            "inputs": [
                {
                    "internalType": "bytes32",
                    "name": "role",
                    "type": "bytes32"
                },
                {
                    "internalType": "address",
                    "name": "account",
                    "type": "address"
                }
            ],
            "name": "hasRole",
            "outputs": [
                {
                    "internalType": "bool",
                    "name": "",
                    "type": "bool"
                }
            ],
            "stateMutability": "view",
            "type": "function"
        },
        {
            "inputs": [
                {
                    "internalType": "address",
                    "name": "spender",
                    "type": "address"
                },
                {
                    "internalType": "uint256",
                    "name": "addedValue",
                    "type": "uint256"
                }
            ],
            "name": "increaseAllowance",
            "outputs": [
                {
                    "internalType": "bool",
                    "name": "",
                    "type": "bool"
                }
            ],
            "stateMutability": "nonpayable",
            "type": "function"
        },
        {
            "inputs": [
                {
                    "internalType": "string",
                    "name": "name",
                    "type": "string"
                },
                {
                    "internalType": "string",
                    "name": "symbol",
                    "type": "string"
                }
            ],
            "name": "initialize",
            "outputs": [],
            "stateMutability": "nonpayable",
            "type": "function"
        },
        {
            "inputs": [
                {
                    "internalType": "address",
                    "name": "to",
                    "type": "address"
                },
                {
                    "internalType": "uint256",
                    "name": "amount",
                    "type": "uint256"
                }
            ],
            "name": "mint",
            "outputs": [],
            "stateMutability": "nonpayable",
            "type": "function"
        },
        {
            "inputs": [
                {
                    "internalType": "address",
                    "name": "recipient",
                    "type": "address"
                },
                {
                    "internalType": "uint256",
                    "name": "amount",
                    "type": "uint256"
                }
            ],
            "name": "mintWithFee",
            "outputs": [],
            "stateMutability": "nonpayable",
            "type": "function"
        },
        {
            "inputs": [
                {
                    "internalType": "address",
                    "name": "recipient",
                    "type": "address"
                },
                {
                    "internalType": "uint256",
                    "name": "amount",
                    "type": "uint256"
                }
            ],
            "name": "mintWithoutDecimals",
            "outputs": [],
            "stateMutability": "nonpayable",
            "type": "function"
        },
        {
            "inputs": [],
            "name": "name",
            "outputs": [
                {
                    "internalType": "string",
                    "name": "",
                    "type": "string"
                }
            ],
            "stateMutability": "view",
            "type": "function"
        },
        {
            "inputs": [],
            "name": "pause",
            "outputs": [],
            "stateMutability": "nonpayable",
            "type": "function"
        },
        {
            "inputs": [],
            "name": "paused",
            "outputs": [
                {
                    "internalType": "bool",
                    "name": "",
                    "type": "bool"
                }
            ],
            "stateMutability": "view",
            "type": "function"
        },
        {
            "inputs": [
                {
                    "internalType": "bytes32",
                    "name": "role",
                    "type": "bytes32"
                },
                {
                    "internalType": "address",
                    "name": "account",
                    "type": "address"
                }
            ],
            "name": "renounceRole",
            "outputs": [],
            "stateMutability": "nonpayable",
            "type": "function"
        },
        {
            "inputs": [
                {
                    "internalType": "bytes32",
                    "name": "role",
                    "type": "bytes32"
                },
                {
                    "internalType": "address",
                    "name": "account",
                    "type": "address"
                }
            ],
            "name": "revokeRole",
            "outputs": [],
            "stateMutability": "nonpayable",
            "type": "function"
        },
        {
            "inputs": [
                {
                    "internalType": "address",
                    "name": "_feeAddress",
                    "type": "address"
                }
            ],
            "name": "setMintingFeeAddress",
            "outputs": [],
            "stateMutability": "nonpayable",
            "type": "function"
        },
        {
            "inputs": [
                {
                    "internalType": "uint32",
                    "name": "_tokenTransferFeeDivisor",
                    "type": "uint32"
                }
            ],
            "name": "setTransferFeeDivisor",
            "outputs": [],
            "stateMutability": "nonpayable",
            "type": "function"
        },
        {
            "inputs": [],
            "name": "symbol",
            "outputs": [
                {
                    "internalType": "string",
                    "name": "",
                    "type": "string"
                }
            ],
            "stateMutability": "view",
            "type": "function"
        },
        {
            "inputs": [],
            "name": "tokenTransferFeeDivisor",
            "outputs": [
                {
                    "internalType": "uint32",
                    "name": "",
                    "type": "uint32"
                }
            ],
            "stateMutability": "view",
            "type": "function"
        },
        {
            "inputs": [],
            "name": "totalSupply",
            "outputs": [
                {
                    "internalType": "uint256",
                    "name": "",
                    "type": "uint256"
                }
            ],
            "stateMutability": "view",
            "type": "function"
        },
        {
            "inputs": [
                {
                    "internalType": "address",
                    "name": "recipient",
                    "type": "address"
                },
                {
                    "internalType": "uint256",
                    "name": "amount",
                    "type": "uint256"
                }
            ],
            "name": "transfer",
            "outputs": [
                {
                    "internalType": "bool",
                    "name": "",
                    "type": "bool"
                }
            ],
            "stateMutability": "nonpayable",
            "type": "function"
        },
        {
            "inputs": [
                {
                    "internalType": "address",
                    "name": "sender",
                    "type": "address"
                },
                {
                    "internalType": "address",
                    "name": "recipient",
                    "type": "address"
                },
                {
                    "internalType": "uint256",
                    "name": "amount",
                    "type": "uint256"
                }
            ],
            "name": "transferFrom",
            "outputs": [
                {
                    "internalType": "bool",
                    "name": "",
                    "type": "bool"
                }
            ],
            "stateMutability": "nonpayable",
            "type": "function"
        },
        {
            "inputs": [],
            "name": "unpause",
            "outputs": [],
            "stateMutability": "nonpayable",
            "type": "function"
        }
    ],
    "bytecode": "608060405234801561001057600080fd5b506127b8806100206000396000f3fe608060405234801561001057600080fd5b506004361061021c5760003560e01c80635c975abb11610125578063a217fddf116100ad578063ca15c8731161007c578063ca15c87314610899578063d5391393146108b6578063d547741f146108be578063dd62ed3e146108ea578063e63ab1e9146109185761021c565b8063a217fddf14610813578063a457c2d71461081b578063a9059cbb14610847578063ae1cb380146108735761021c565b806381170e24116100f457806381170e241461068b5780638456cb59146107b45780639010d07c146107bc57806391d14854146107df57806395d89b411461080b5761021c565b80635c975abb146106055780635d520e641461060d57806370a082311461063957806379cc67901461065f5761021c565b806336568abe116101a85780634127535811610177578063412753581461044c57806342966c681461047057806349178ad51461048d5780634cd88b76146104b05780634e01b0d0146105d95761021c565b806336568abe146103c057806339509351146103ec5780633f4ba83a1461041857806340c10f19146104205761021c565b806323b872dd116101ef57806323b872dd14610319578063248a9ca31461034f5780632dd8175a1461036c5780632f2ff15d14610374578063313ce567146103a25761021c565b806306fdde0314610221578063095ea7b31461029e5780631804cb04146102de57806318160ddd146102ff575b600080fd5b610229610920565b6040805160208082528351818301528351919283929083019185019080838360005b8381101561026357818101518382015260200161024b565b50505050905090810190601f1680156102905780820380516001836020036101000a031916815260200191505b509250505060405180910390f35b6102ca600480360360408110156102b457600080fd5b506001600160a01b0381351690602001356109b6565b604080519115158252519081900360200190f35b6102e66109d4565b6040805163ffffffff9092168252519081900360200190f35b6103076109e1565b60408051918252519081900360200190f35b6102ca6004803603606081101561032f57600080fd5b506001600160a01b038135811691602081013590911690604001356109e7565b6103076004803603602081101561036557600080fd5b5035610a6e565b610307610a83565b6103a06004803603604081101561038a57600080fd5b50803590602001356001600160a01b0316610aa7565b005b6103aa610b13565b6040805160ff9092168252519081900360200190f35b6103a0600480360360408110156103d657600080fd5b50803590602001356001600160a01b0316610b1c565b6102ca6004803603604081101561040257600080fd5b506001600160a01b038135169060200135610b7d565b6103a0610bcb565b6103a06004803603604081101561043657600080fd5b506001600160a01b038135169060200135610c2a565b610454610c9b565b604080516001600160a01b039092168252519081900360200190f35b6103a06004803603602081101561048657600080fd5b5035610cb2565b6103a0600480360360208110156104a357600080fd5b503563ffffffff16610cc6565b6103a0600480360360408110156104c657600080fd5b810190602081018135600160201b8111156104e057600080fd5b8201836020820111156104f257600080fd5b803590602001918460018302840111600160201b8311171561051357600080fd5b91908080601f0160208091040260200160405190810160405280939291908181526020018383808284376000920191909152509295949360208101935035915050600160201b81111561056557600080fd5b82018360208201111561057757600080fd5b803590602001918460018302840111600160201b8311171561059857600080fd5b91908080601f016020809104026020016040519081016040528093929190818152602001838380828437600092019190915250929550610da8945050505050565b6103a0600480360360408110156105ef57600080fd5b506001600160a01b038135169060200135610e56565b6102ca610eb2565b6103a06004803603604081101561062357600080fd5b506001600160a01b038135169060200135610ebb565b6103076004803603602081101561064f57600080fd5b50356001600160a01b0316610f15565b6103a06004803603604081101561067557600080fd5b506001600160a01b038135169060200135610f30565b6103a0600480360360408110156106a157600080fd5b810190602081018135600160201b8111156106bb57600080fd5b8201836020820111156106cd57600080fd5b803590602001918460018302840111600160201b831117156106ee57600080fd5b91908080601f0160208091040260200160405190810160405280939291908181526020018383808284376000920191909152509295949360208101935035915050600160201b81111561074057600080fd5b82018360208201111561075257600080fd5b803590602001918460018302840111600160201b8311171561077357600080fd5b91908080601f016020809104026020016040519081016040528093929190818152602001838380828437600092019190915250929550610f85945050505050565b6103a061102e565b610454600480360360408110156107d257600080fd5b508035906020013561108b565b6102ca600480360360408110156107f557600080fd5b50803590602001356001600160a01b03166110aa565b6102296110c2565b610307611123565b6102ca6004803603604081101561083157600080fd5b506001600160a01b038135169060200135611128565b6102ca6004803603604081101561085d57600080fd5b506001600160a01b038135169060200135611190565b6103a06004803603602081101561088957600080fd5b50356001600160a01b03166111ec565b610307600480360360208110156108af57600080fd5b503561129e565b6103076112b5565b6103a0600480360360408110156108d457600080fd5b50803590602001356001600160a01b03166112d9565b6103076004803603604081101561090057600080fd5b506001600160a01b0381358116916020013516611332565b61030761135d565b60688054604080516020601f60026000196101006001881615020190951694909404938401819004810282018101909252828152606093909290918301828280156109ac5780601f10610981576101008083540402835291602001916109ac565b820191906000526020600020905b81548152906001019060200180831161098f57829003601f168201915b5050505050905090565b60006109ca6109c361136f565b8484611373565b5060015b92915050565b61015f5463ffffffff1681565b60675490565b60006109f484848461145f565b610a6484610a0061136f565b610a5f85604051806060016040528060288152602001612556602891396001600160a01b038a16600090815260666020526040812090610a3e61136f565b6001600160a01b0316815260208101919091526040016000205491906115bc565b611373565b5060019392505050565b60009081526033602052604090206002015490565b7fbcaa5c4620c62b2fedc77ef4fe401724814aeef811d907416a737179a85b1ab281565b600082815260336020526040902060020154610aca90610ac561136f565b6110aa565b610b055760405162461bcd60e51b815260040180806020018281038252602f8152602001806123d2602f913960400191505060405180910390fd5b610b0f8282611653565b5050565b606a5460ff1690565b610b2461136f565b6001600160a01b0316816001600160a01b031614610b735760405162461bcd60e51b815260040180806020018281038252602f81526020018061272a602f913960400191505060405180910390fd5b610b0f82826116bc565b60006109ca610b8a61136f565b84610a5f8560666000610b9b61136f565b6001600160a01b03908116825260208083019390935260409182016000908120918c168152925290205490611725565b610be560008051602061257e833981519152610ac561136f565b610c205760405162461bcd60e51b81526004018080602001828103825260398152602001806124546039913960400191505060405180910390fd5b610c2861177f565b565b610c567f9f2df0fed2c77648de5860a4cc508cd0818c85b8b8a1ab4ceeef8d981c8956a6610ac561136f565b610c915760405162461bcd60e51b815260040180806020018281038252603681526020018061259e6036913960400191505060405180910390fd5b610b0f828261181d565b61015f54600160201b90046001600160a01b031681565b610cc3610cbd61136f565b8261190f565b50565b610cd36000610ac561136f565b610d0e5760405162461bcd60e51b81526004018080602001828103825260368152602001806126cf6036913960400191505060405180910390fd5b60008163ffffffff1611610d535760405162461bcd60e51b81526004018080602001828103825260318152602001806124016031913960400191505060405180910390fd5b61015f805463ffffffff191663ffffffff838116919091179182905560408051929091168252517fb4fb343f6573d5bcc1c7ab700665911f5ed2699ecfc6a7d1b1af8405409b22ec916020908290030190a150565b600054610100900460ff1680610dc15750610dc1611a0b565b80610dcf575060005460ff16155b610e0a5760405162461bcd60e51b815260040180806020018281038252602e815260200180612505602e913960400191505060405180910390fd5b600054610100900460ff16158015610e35576000805460ff1961ff0019909116610100171660011790555b610e3f8383611a11565b8015610e51576000805461ff00191690555b505050565b610e636000610ac561136f565b610e9e5760405162461bcd60e51b81526004018080602001828103825260238152602001806125336023913960400191505060405180910390fd5b610b0f82670de0b6b3a7640000830261181d565b60c95460ff1690565b610ec86000610ac561136f565b610f035760405162461bcd60e51b81526004018080602001828103825260238152602001806125336023913960400191505060405180910390fd5b610b0f82610f1083611ada565b61181d565b6001600160a01b031660009081526065602052604090205490565b6000610f67826040518060600160405280602481526020016125d460249139610f6086610f5b61136f565b611332565b91906115bc565b9050610f7b83610f7561136f565b83611373565b610e51838361190f565b600054610100900460ff1680610f9e5750610f9e611a0b565b80610fac575060005460ff16155b610fe75760405162461bcd60e51b815260040180806020018281038252602e815260200180612505602e913960400191505060405180910390fd5b600054610100900460ff16158015611012576000805460ff1961ff0019909116610100171660011790555b61101c8383611b30565b6110268383611c08565b610e3f611ced565b61104860008051602061257e833981519152610ac561136f565b6110835760405162461bcd60e51b81526004018080602001828103825260378152602001806126986037913960400191505060405180910390fd5b610c28611de2565b60008281526033602052604081206110a39083611e63565b9392505050565b60008281526033602052604081206110a39083611e6f565b60698054604080516020601f60026000196101006001881615020190951694909404938401819004810282018101909252828152606093909290918301828280156109ac5780601f10610981576101008083540402835291602001916109ac565b600081565b60006109ca61113561136f565b84610a5f85604051806060016040528060258152602001612705602591396066600061115f61136f565b6001600160a01b03908116825260208083019390935260409182016000908120918d168152925290205491906115bc565b60006111be7fbcaa5c4620c62b2fedc77ef4fe401724814aeef811d907416a737179a85b1ab2610ac561136f565b156111d3576111cd8383611e84565b506109ce565b6111e5836111e084611ada565b611e84565b90506109ce565b6111f96000610ac561136f565b6112345760405162461bcd60e51b81526004018080602001828103825260368152602001806126626036913960400191505060405180910390fd5b61015f80546001600160a01b03808416600160201b908102640100000000600160c01b03199093169290921792839055604080519290930416815290517f6eea80b7608c97ee92c02a7c9e1b5f0373c4902a84a9b06c5f96072b2ebc6e739181900360200190a150565b60008181526033602052604081206109ce90611e98565b7f9f2df0fed2c77648de5860a4cc508cd0818c85b8b8a1ab4ceeef8d981c8956a681565b6000828152603360205260409020600201546112f790610ac561136f565b610b735760405162461bcd60e51b81526004018080602001828103825260308152602001806124d56030913960400191505060405180910390fd5b6001600160a01b03918216600090815260666020908152604080832093909416825291909152205490565b60008051602061257e83398151915281565b3390565b6001600160a01b0383166113b85760405162461bcd60e51b815260040180806020018281038252602481526020018061263e6024913960400191505060405180910390fd5b6001600160a01b0382166113fd5760405162461bcd60e51b815260040180806020018281038252602281526020018061248d6022913960400191505060405180910390fd5b6001600160a01b03808416600081815260666020908152604080832094871680845294825291829020859055815185815291517f8c5be1e5ebec7d5bd14f71427d1e84f3dd0314c0f7b2291e5b200ac8c7c3b9259281900390910190a3505050565b6001600160a01b0383166114a45760405162461bcd60e51b81526004018080602001828103825260258152602001806126196025913960400191505060405180910390fd5b6001600160a01b0382166114e95760405162461bcd60e51b81526004018080602001828103825260238152602001806123af6023913960400191505060405180910390fd5b6114f4838383611ea3565b611531816040518060600160405280602681526020016124af602691396001600160a01b03861660009081526065602052604090205491906115bc565b6001600160a01b0380851660009081526065602052604080822093909355908416815220546115609082611725565b6001600160a01b0380841660008181526065602090815260409182902094909455805185815290519193928716927fddf252ad1be2c89b69c2b068fc378daa952ba7f163c4a11628f55a4df523b3ef92918290030190a3505050565b6000818484111561164b5760405162461bcd60e51b81526004018080602001828103825283818151815260200191508051906020019080838360005b838110156116105781810151838201526020016115f8565b50505050905090810190601f16801561163d5780820380516001836020036101000a031916815260200191505b509250505060405180910390fd5b505050900390565b600082815260336020526040902061166b9082611eae565b15610b0f5761167861136f565b6001600160a01b0316816001600160a01b0316837f2f8788117e7eff1d82e926ec794901d17c78024a50270940304540a733656f0d60405160405180910390a45050565b60008281526033602052604090206116d49082611ec3565b15610b0f576116e161136f565b6001600160a01b0316816001600160a01b0316837ff6391f5c32d9c69d2a47ea670b442974b53935d1edc7fd64eb21e047a839171b60405160405180910390a45050565b6000828201838110156110a3576040805162461bcd60e51b815260206004820152601b60248201527f536166654d6174683a206164646974696f6e206f766572666c6f770000000000604482015290519081900360640190fd5b60c95460ff166117cd576040805162461bcd60e51b815260206004820152601460248201527314185d5cd8589b194e881b9bdd081c185d5cd95960621b604482015290519081900360640190fd5b60c9805460ff191690557f5db9ee0a495bf2e6ff9c91a7834c1ba4fdd244a5e8aa4e537bd38aeae4b073aa61180061136f565b604080516001600160a01b039092168252519081900360200190a1565b6001600160a01b038216611878576040805162461bcd60e51b815260206004820152601f60248201527f45524332303a206d696e7420746f20746865207a65726f206164647265737300604482015290519081900360640190fd5b61188460008383611ea3565b6067546118919082611725565b6067556001600160a01b0382166000908152606560205260409020546118b79082611725565b6001600160a01b03831660008181526065602090815260408083209490945583518581529351929391927fddf252ad1be2c89b69c2b068fc378daa952ba7f163c4a11628f55a4df523b3ef9281900390910190a35050565b6001600160a01b0382166119545760405162461bcd60e51b81526004018080602001828103825260218152602001806125f86021913960400191505060405180910390fd5b61196082600083611ea3565b61199d81604051806060016040528060228152602001612432602291396001600160a01b03851660009081526065602052604090205491906115bc565b6001600160a01b0383166000908152606560205260409020556067546119c39082611ed8565b6067556040805182815290516000916001600160a01b038516917fddf252ad1be2c89b69c2b068fc378daa952ba7f163c4a11628f55a4df523b3ef9181900360200190a35050565b303b1590565b600054610100900460ff1680611a2a5750611a2a611a0b565b80611a38575060005460ff16155b611a735760405162461bcd60e51b815260040180806020018281038252602e815260200180612505602e913960400191505060405180910390fd5b600054610100900460ff16158015611a9e576000805460ff1961ff0019909116610100171660011790555b611aa6611f1a565b611aae611f1a565b611ab88383611b30565b611ac0611f1a565b611ac8611fba565b611ad0611f1a565b610e3f8383611c08565b61015f54600090611b0b906001600160a01b03600160201b820416906111e090859063ffffffff9081169061206516565b5061015f546109ce90611b2990849063ffffffff9081169061206516565b8390611ed8565b600054610100900460ff1680611b495750611b49611a0b565b80611b57575060005460ff16155b611b925760405162461bcd60e51b815260040180806020018281038252602e815260200180612505602e913960400191505060405180910390fd5b600054610100900460ff16158015611bbd576000805460ff1961ff0019909116610100171660011790555b8251611bd09060689060208601906122eb565b508151611be49060699060208501906122eb565b50606a805460ff191660121790558015610e51576000805461ff0019169055505050565b600054610100900460ff1680611c215750611c21611a0b565b80611c2f575060005460ff16155b611c6a5760405162461bcd60e51b815260040180806020018281038252602e815260200180612505602e913960400191505060405180910390fd5b600054610100900460ff16158015611c95576000805460ff1961ff0019909116610100171660011790555b611ca76000611ca261136f565b610b05565b611cd37f9f2df0fed2c77648de5860a4cc508cd0818c85b8b8a1ab4ceeef8d981c8956a6611ca261136f565b610e3f60008051602061257e833981519152611ca261136f565b600054610100900460ff1680611d065750611d06611a0b565b80611d14575060005460ff16155b611d4f5760405162461bcd60e51b815260040180806020018281038252602e815260200180612505602e913960400191505060405180910390fd5b600054610100900460ff16158015611d7a576000805460ff1961ff0019909116610100171660011790555b611da67fbcaa5c4620c62b2fedc77ef4fe401724814aeef811d907416a737179a85b1ab2611ca261136f565b611dc373feff5513b45a48d0de4f5e277ed22973a9389e0b6111ec565b611dce6107d0610cc6565b8015610cc3576000805461ff001916905550565b60c95460ff1615611e2d576040805162461bcd60e51b815260206004820152601060248201526f14185d5cd8589b194e881c185d5cd95960821b604482015290519081900360640190fd5b60c9805460ff191660011790557f62e78cea01bee320cd4e420270b5ea74000d11b0c9f74754ebdbfc544b05a25861180061136f565b60006110a383836120a7565b60006110a3836001600160a01b03841661210b565b60006109ca611e9161136f565b848461145f565b60006109ce82612123565b610e51838383612127565b60006110a3836001600160a01b038416612176565b60006110a3836001600160a01b0384166121c0565b60006110a383836040518060400160405280601e81526020017f536166654d6174683a207375627472616374696f6e206f766572666c6f7700008152506115bc565b600054610100900460ff1680611f335750611f33611a0b565b80611f41575060005460ff16155b611f7c5760405162461bcd60e51b815260040180806020018281038252602e815260200180612505602e913960400191505060405180910390fd5b600054610100900460ff16158015611dce576000805460ff1961ff0019909116610100171660011790558015610cc3576000805461ff001916905550565b600054610100900460ff1680611fd35750611fd3611a0b565b80611fe1575060005460ff16155b61201c5760405162461bcd60e51b815260040180806020018281038252602e815260200180612505602e913960400191505060405180910390fd5b600054610100900460ff16158015612047576000805460ff1961ff0019909116610100171660011790555b60c9805460ff191690558015610cc3576000805461ff001916905550565b60006110a383836040518060400160405280601a81526020017f536166654d6174683a206469766973696f6e206279207a65726f000000000000815250612286565b815460009082106120e95760405162461bcd60e51b815260040180806020018281038252602281526020018061238d6022913960400191505060405180910390fd5b8260000182815481106120f857fe5b9060005260206000200154905092915050565b60009081526001919091016020526040902054151590565b5490565b612132838383610e51565b61213a610eb2565b15610e515760405162461bcd60e51b815260040180806020018281038252602a815260200180612759602a913960400191505060405180910390fd5b6000612182838361210b565b6121b8575081546001818101845560008481526020808220909301849055845484825282860190935260409020919091556109ce565b5060006109ce565b6000818152600183016020526040812054801561227c57835460001980830191908101906000908790839081106121f357fe5b906000526020600020015490508087600001848154811061221057fe5b60009182526020808320909101929092558281526001898101909252604090209084019055865487908061224057fe5b600190038181906000526020600020016000905590558660010160008781526020019081526020016000206000905560019450505050506109ce565b60009150506109ce565b600081836122d55760405162461bcd60e51b81526020600482018181528351602484015283519092839260449091019190850190808383600083156116105781810151838201526020016115f8565b5060008385816122e157fe5b0495945050505050565b828054600181600116156101000203166002900490600052602060002090601f0160209004810192826123215760008555612367565b82601f1061233a57805160ff1916838001178555612367565b82800160010185558215612367579182015b8281111561236757825182559160200191906001019061234c565b50612373929150612377565b5090565b5b80821115612373576000815560010161237856fe456e756d657261626c655365743a20696e646578206f7574206f6620626f756e647345524332303a207472616e7366657220746f20746865207a65726f2061646472657373416363657373436f6e74726f6c3a2073656e646572206d75737420626520616e2061646d696e20746f206772616e74546f6b656e207472616e73666572206665652064697669736f72206d7573742062652067726561746572207468616e203045524332303a206275726e20616d6f756e7420657863656564732062616c616e636545524332305072657365744d696e7465725061757365723a206d75737420686176652070617573657220726f6c6520746f20756e706175736545524332303a20617070726f766520746f20746865207a65726f206164647265737345524332303a207472616e7366657220616d6f756e7420657863656564732062616c616e6365416363657373436f6e74726f6c3a2073656e646572206d75737420626520616e2061646d696e20746f207265766f6b65496e697469616c697a61626c653a20636f6e747261637420697320616c726561647920696e697469616c697a656443616c6c6572206d75737420686176652061646d696e20726f6c6520746f206d696e7445524332303a207472616e7366657220616d6f756e74206578636565647320616c6c6f77616e636565d7a28e3265b37a6474929f336521b332c1681b933f6cb9f3376673440d862a45524332305072657365744d696e7465725061757365723a206d7573742068617665206d696e74657220726f6c6520746f206d696e7445524332303a206275726e20616d6f756e74206578636565647320616c6c6f77616e636545524332303a206275726e2066726f6d20746865207a65726f206164647265737345524332303a207472616e736665722066726f6d20746865207a65726f206164647265737345524332303a20617070726f76652066726f6d20746865207a65726f206164647265737343616c6c6572206d75737420686176652061646d696e20726f6c6520746f20736574206d696e74696e6720666565206164647265737345524332305072657365744d696e7465725061757365723a206d75737420686176652070617573657220726f6c6520746f20706175736543616c6c6572206d75737420686176652061646d696e20726f6c6520746f20736574206d696e74696e67206665652070657263656e7445524332303a2064656372656173656420616c6c6f77616e63652062656c6f77207a65726f416363657373436f6e74726f6c3a2063616e206f6e6c792072656e6f756e636520726f6c657320666f722073656c6645524332305061757361626c653a20746f6b656e207472616e73666572207768696c6520706175736564a2646970667358221220c64e8abe1912af04d12a337c351f733a2a7fbae8a937600d1187b0f6844c5cc464736f6c63430007050033",
    "sourcePath": "/Users/selimerunkut/dev_novem/erc20_nnn_token/contracts/NNNToken.sol",
    "compiler": {
        "name": "solc",
        "version": "0.7.5+commit.eb77ed08"
    },
    "functionHashes": {
        "DEFAULT_ADMIN_ROLE()": "a217fddf",
        "FEE_EXCLUDED_ROLE()": "2dd8175a",
        "MINTER_ROLE()": "d5391393",
        "PAUSER_ROLE()": "e63ab1e9",
        "__initialize(string,string)": "81170e24",
        "allowance(address,address)": "dd62ed3e",
        "approve(address,uint256)": "095ea7b3",
        "balanceOf(address)": "70a08231",
        "burn(uint256)": "42966c68",
        "burnFrom(address,uint256)": "79cc6790",
        "decimals()": "313ce567",
        "decreaseAllowance(address,uint256)": "a457c2d7",
        "feeAddress()": "41275358",
        "getRoleAdmin(bytes32)": "248a9ca3",
        "getRoleMember(bytes32,uint256)": "9010d07c",
        "getRoleMemberCount(bytes32)": "ca15c873",
        "grantRole(bytes32,address)": "2f2ff15d",
        "hasRole(bytes32,address)": "91d14854",
        "increaseAllowance(address,uint256)": "39509351",
        "initialize(string,string)": "4cd88b76",
        "mint(address,uint256)": "40c10f19",
        "mintWithFee(address,uint256)": "5d520e64",
        "mintWithoutDecimals(address,uint256)": "4e01b0d0",
        "name()": "06fdde03",
        "pause()": "8456cb59",
        "paused()": "5c975abb",
        "renounceRole(bytes32,address)": "36568abe",
        "revokeRole(bytes32,address)": "d547741f",
        "setMintingFeeAddress(address)": "ae1cb380",
        "setTransferFeeDivisor(uint32)": "49178ad5",
        "symbol()": "95d89b41",
        "tokenTransferFeeDivisor()": "1804cb04",
        "totalSupply()": "18160ddd",
        "transfer(address,uint256)": "a9059cbb",
        "transferFrom(address,address,uint256)": "23b872dd",
        "unpause()": "3f4ba83a"
    },
    "gasEstimates": {
        "creation": {
            "codeDepositCost": "2033600",
            "executionCost": "2156",
            "totalCost": "2035756"
        },
        "external": {
            "DEFAULT_ADMIN_ROLE()": "243",
            "FEE_EXCLUDED_ROLE()": "288",
            "MINTER_ROLE()": "264",
            "PAUSER_ROLE()": "infinite",
            "__initialize(string,string)": "infinite",
            "allowance(address,address)": "1360",
            "approve(address,uint256)": "infinite",
            "balanceOf(address)": "1232",
            "burn(uint256)": "infinite",
            "burnFrom(address,uint256)": "infinite",
            "decimals()": "1147",
            "decreaseAllowance(address,uint256)": "infinite",
            "feeAddress()": "1099",
            "getRoleAdmin(bytes32)": "1180",
            "getRoleMember(bytes32,uint256)": "infinite",
            "getRoleMemberCount(bytes32)": "infinite",
            "grantRole(bytes32,address)": "infinite",
            "hasRole(bytes32,address)": "infinite",
            "increaseAllowance(address,uint256)": "infinite",
            "initialize(string,string)": "infinite",
            "mint(address,uint256)": "infinite",
            "mintWithFee(address,uint256)": "infinite",
            "mintWithoutDecimals(address,uint256)": "infinite",
            "name()": "infinite",
            "pause()": "infinite",
            "paused()": "1056",
            "renounceRole(bytes32,address)": "infinite",
            "revokeRole(bytes32,address)": "infinite",
            "setMintingFeeAddress(address)": "infinite",
            "setTransferFeeDivisor(uint32)": "infinite",
            "symbol()": "infinite",
            "tokenTransferFeeDivisor()": "1104",
            "totalSupply()": "1111",
            "transfer(address,uint256)": "infinite",
            "transferFrom(address,address,uint256)": "infinite",
            "unpause()": "infinite"
        }
    }
}