{
  "contractName": "EnhancedMinterPauser",
  "abi": [
    {
      "anonymous": false,
      "inputs": [
        {
          "indexed": true,
          "internalType": "address",
          "name": "owner",
          "type": "address"
        },
        {
          "indexed": true,
          "internalType": "address",
          "name": "spender",
          "type": "address"
        },
        {
          "indexed": false,
          "internalType": "uint256",
          "name": "value",
          "type": "uint256"
        }
      ],
      "name": "Approval",
      "type": "event"
    },
    {
      "anonymous": false,
      "inputs": [
        {
          "indexed": false,
          "internalType": "address",
          "name": "account",
          "type": "address"
        }
      ],
      "name": "Paused",
      "type": "event"
    },
    {
      "anonymous": false,
      "inputs": [
        {
          "indexed": true,
          "internalType": "bytes32",
          "name": "role",
          "type": "bytes32"
        },
        {
          "indexed": true,
          "internalType": "address",
          "name": "account",
          "type": "address"
        },
        {
          "indexed": true,
          "internalType": "address",
          "name": "sender",
          "type": "address"
        }
      ],
      "name": "RoleGranted",
      "type": "event"
    },
    {
      "anonymous": false,
      "inputs": [
        {
          "indexed": true,
          "internalType": "bytes32",
          "name": "role",
          "type": "bytes32"
        },
        {
          "indexed": true,
          "internalType": "address",
          "name": "account",
          "type": "address"
        },
        {
          "indexed": true,
          "internalType": "address",
          "name": "sender",
          "type": "address"
        }
      ],
      "name": "RoleRevoked",
      "type": "event"
    },
    {
      "anonymous": false,
      "inputs": [
        {
          "indexed": true,
          "internalType": "address",
          "name": "from",
          "type": "address"
        },
        {
          "indexed": true,
          "internalType": "address",
          "name": "to",
          "type": "address"
        },
        {
          "indexed": false,
          "internalType": "uint256",
          "name": "value",
          "type": "uint256"
        }
      ],
      "name": "Transfer",
      "type": "event"
    },
    {
      "anonymous": false,
      "inputs": [
        {
          "indexed": false,
          "internalType": "address",
          "name": "account",
          "type": "address"
        }
      ],
      "name": "Unpaused",
      "type": "event"
    },
    {
      "inputs": [],
      "name": "DEFAULT_ADMIN_ROLE",
      "outputs": [
        {
          "internalType": "bytes32",
          "name": "",
          "type": "bytes32"
        }
      ],
      "stateMutability": "view",
      "type": "function"
    },
    {
      "inputs": [],
      "name": "FEE_EXCLUDED_ROLE",
      "outputs": [
        {
          "internalType": "bytes32",
          "name": "",
          "type": "bytes32"
        }
      ],
      "stateMutability": "view",
      "type": "function"
    },
    {
      "inputs": [],
      "name": "MINTER_ROLE",
      "outputs": [
        {
          "internalType": "bytes32",
          "name": "",
          "type": "bytes32"
        }
      ],
      "stateMutability": "view",
      "type": "function"
    },
    {
      "inputs": [],
      "name": "PAUSER_ROLE",
      "outputs": [
        {
          "internalType": "bytes32",
          "name": "",
          "type": "bytes32"
        }
      ],
      "stateMutability": "view",
      "type": "function"
    },
    {
      "inputs": [
        {
          "internalType": "address",
          "name": "owner",
          "type": "address"
        },
        {
          "internalType": "address",
          "name": "spender",
          "type": "address"
        }
      ],
      "name": "allowance",
      "outputs": [
        {
          "internalType": "uint256",
          "name": "",
          "type": "uint256"
        }
      ],
      "stateMutability": "view",
      "type": "function"
    },
    {
      "inputs": [
        {
          "internalType": "address",
          "name": "spender",
          "type": "address"
        },
        {
          "internalType": "uint256",
          "name": "amount",
          "type": "uint256"
        }
      ],
      "name": "approve",
      "outputs": [
        {
          "internalType": "bool",
          "name": "",
          "type": "bool"
        }
      ],
      "stateMutability": "nonpayable",
      "type": "function"
    },
    {
      "inputs": [
        {
          "internalType": "address",
          "name": "account",
          "type": "address"
        }
      ],
      "name": "balanceOf",
      "outputs": [
        {
          "internalType": "uint256",
          "name": "",
          "type": "uint256"
        }
      ],
      "stateMutability": "view",
      "type": "function"
    },
    {
      "inputs": [
        {
          "internalType": "uint256",
          "name": "amount",
          "type": "uint256"
        }
      ],
      "name": "burn",
      "outputs": [],
      "stateMutability": "nonpayable",
      "type": "function"
    },
    {
      "inputs": [
        {
          "internalType": "address",
          "name": "account",
          "type": "address"
        },
        {
          "internalType": "uint256",
          "name": "amount",
          "type": "uint256"
        }
      ],
      "name": "burnFrom",
      "outputs": [],
      "stateMutability": "nonpayable",
      "type": "function"
    },
    {
      "inputs": [],
      "name": "decimals",
      "outputs": [
        {
          "internalType": "uint8",
          "name": "",
          "type": "uint8"
        }
      ],
      "stateMutability": "view",
      "type": "function"
    },
    {
      "inputs": [
        {
          "internalType": "address",
          "name": "spender",
          "type": "address"
        },
        {
          "internalType": "uint256",
          "name": "subtractedValue",
          "type": "uint256"
        }
      ],
      "name": "decreaseAllowance",
      "outputs": [
        {
          "internalType": "bool",
          "name": "",
          "type": "bool"
        }
      ],
      "stateMutability": "nonpayable",
      "type": "function"
    },
    {
      "inputs": [],
      "name": "feeAddress",
      "outputs": [
        {
          "internalType": "address",
          "name": "",
          "type": "address"
        }
      ],
      "stateMutability": "view",
      "type": "function"
    },
    {
      "inputs": [
        {
          "internalType": "bytes32",
          "name": "role",
          "type": "bytes32"
        }
      ],
      "name": "getRoleAdmin",
      "outputs": [
        {
          "internalType": "bytes32",
          "name": "",
          "type": "bytes32"
        }
      ],
      "stateMutability": "view",
      "type": "function"
    },
    {
      "inputs": [
        {
          "internalType": "bytes32",
          "name": "role",
          "type": "bytes32"
        },
        {
          "internalType": "uint256",
          "name": "index",
          "type": "uint256"
        }
      ],
      "name": "getRoleMember",
      "outputs": [
        {
          "internalType": "address",
          "name": "",
          "type": "address"
        }
      ],
      "stateMutability": "view",
      "type": "function"
    },
    {
      "inputs": [
        {
          "internalType": "bytes32",
          "name": "role",
          "type": "bytes32"
        }
      ],
      "name": "getRoleMemberCount",
      "outputs": [
        {
          "internalType": "uint256",
          "name": "",
          "type": "uint256"
        }
      ],
      "stateMutability": "view",
      "type": "function"
    },
    {
      "inputs": [
        {
          "internalType": "bytes32",
          "name": "role",
          "type": "bytes32"
        },
        {
          "internalType": "address",
          "name": "account",
          "type": "address"
        }
      ],
      "name": "grantRole",
      "outputs": [],
      "stateMutability": "nonpayable",
      "type": "function"
    },
    {
      "inputs": [
        {
          "internalType": "bytes32",
          "name": "role",
          "type": "bytes32"
        },
        {
          "internalType": "address",
          "name": "account",
          "type": "address"
        }
      ],
      "name": "hasRole",
      "outputs": [
        {
          "internalType": "bool",
          "name": "",
          "type": "bool"
        }
      ],
      "stateMutability": "view",
      "type": "function"
    },
    {
      "inputs": [
        {
          "internalType": "address",
          "name": "spender",
          "type": "address"
        },
        {
          "internalType": "uint256",
          "name": "addedValue",
          "type": "uint256"
        }
      ],
      "name": "increaseAllowance",
      "outputs": [
        {
          "internalType": "bool",
          "name": "",
          "type": "bool"
        }
      ],
      "stateMutability": "nonpayable",
      "type": "function"
    },
    {
      "inputs": [
        {
          "internalType": "string",
          "name": "name",
          "type": "string"
        },
        {
          "internalType": "string",
          "name": "symbol",
          "type": "string"
        }
      ],
      "name": "initialize",
      "outputs": [],
      "stateMutability": "nonpayable",
      "type": "function"
    },
    {
      "inputs": [
        {
          "internalType": "address",
          "name": "to",
          "type": "address"
        },
        {
          "internalType": "uint256",
          "name": "amount",
          "type": "uint256"
        }
      ],
      "name": "mint",
      "outputs": [],
      "stateMutability": "nonpayable",
      "type": "function"
    },
    {
      "inputs": [],
      "name": "name",
      "outputs": [
        {
          "internalType": "string",
          "name": "",
          "type": "string"
        }
      ],
      "stateMutability": "view",
      "type": "function"
    },
    {
      "inputs": [],
      "name": "pause",
      "outputs": [],
      "stateMutability": "nonpayable",
      "type": "function"
    },
    {
      "inputs": [],
      "name": "paused",
      "outputs": [
        {
          "internalType": "bool",
          "name": "",
          "type": "bool"
        }
      ],
      "stateMutability": "view",
      "type": "function"
    },
    {
      "inputs": [
        {
          "internalType": "bytes32",
          "name": "role",
          "type": "bytes32"
        },
        {
          "internalType": "address",
          "name": "account",
          "type": "address"
        }
      ],
      "name": "renounceRole",
      "outputs": [],
      "stateMutability": "nonpayable",
      "type": "function"
    },
    {
      "inputs": [
        {
          "internalType": "bytes32",
          "name": "role",
          "type": "bytes32"
        },
        {
          "internalType": "address",
          "name": "account",
          "type": "address"
        }
      ],
      "name": "revokeRole",
      "outputs": [],
      "stateMutability": "nonpayable",
      "type": "function"
    },
    {
      "inputs": [],
      "name": "symbol",
      "outputs": [
        {
          "internalType": "string",
          "name": "",
          "type": "string"
        }
      ],
      "stateMutability": "view",
      "type": "function"
    },
    {
      "inputs": [],
      "name": "tokenTransferFeeDivisor",
      "outputs": [
        {
          "internalType": "uint32",
          "name": "",
          "type": "uint32"
        }
      ],
      "stateMutability": "view",
      "type": "function"
    },
    {
      "inputs": [],
      "name": "totalSupply",
      "outputs": [
        {
          "internalType": "uint256",
          "name": "",
          "type": "uint256"
        }
      ],
      "stateMutability": "view",
      "type": "function"
    },
    {
      "inputs": [
        {
          "internalType": "address",
          "name": "sender",
          "type": "address"
        },
        {
          "internalType": "address",
          "name": "recipient",
          "type": "address"
        },
        {
          "internalType": "uint256",
          "name": "amount",
          "type": "uint256"
        }
      ],
      "name": "transferFrom",
      "outputs": [
        {
          "internalType": "bool",
          "name": "",
          "type": "bool"
        }
      ],
      "stateMutability": "nonpayable",
      "type": "function"
    },
    {
      "inputs": [],
      "name": "unpause",
      "outputs": [],
      "stateMutability": "nonpayable",
      "type": "function"
    },
    {
      "inputs": [
        {
          "internalType": "address",
          "name": "recipient",
          "type": "address"
        },
        {
          "internalType": "uint256",
          "name": "amount",
          "type": "uint256"
        }
      ],
      "name": "mintWithoutDecimals",
      "outputs": [],
      "stateMutability": "nonpayable",
      "type": "function"
    },
    {
      "inputs": [
        {
          "internalType": "address",
          "name": "recipient",
          "type": "address"
        },
        {
          "internalType": "uint256",
          "name": "amount",
          "type": "uint256"
        }
      ],
      "name": "transfer",
      "outputs": [
        {
          "internalType": "bool",
          "name": "",
          "type": "bool"
        }
      ],
      "stateMutability": "nonpayable",
      "type": "function"
    },
    {
      "inputs": [
        {
          "internalType": "address",
          "name": "_feeAddress",
          "type": "address"
        }
      ],
      "name": "setMintingFeeAddress",
      "outputs": [],
      "stateMutability": "nonpayable",
      "type": "function"
    },
    {
      "inputs": [
        {
          "internalType": "uint32",
          "name": "_tokenTransferFeeDivisor",
          "type": "uint32"
        }
      ],
      "name": "setMintingFeePercent",
      "outputs": [],
      "stateMutability": "nonpayable",
      "type": "function"
    }
  ],
  "bytecode": "0x608060405234801561001057600080fd5b506123ae806100206000396000f3fe608060405234801561001057600080fd5b50600436106102265760003560e01c80634e01b0d01161012a578063a217fddf116100bd578063ca15c8731161008c578063d547741f11610071578063d547741f14610777578063dd62ed3e146107a3578063e63ab1e9146107d157610226565b8063ca15c87314610752578063d53913931461076f57610226565b8063a217fddf146106cc578063a457c2d7146106d4578063a9059cbb14610700578063ae1cb3801461072c57610226565b80638456cb59116100f95780638456cb591461066d5780639010d07c1461067557806391d148541461069857806395d89b41146106c457610226565b80634e01b0d0146105e75780635c975abb1461061357806370a082311461061b57806379cc67901461064157610226565b80632f2ff15d116101bd5780633f4ba83a1161018c5780634127535811610171578063412753581461047957806342966c681461049d5780634cd88b76146104ba57610226565b80633f4ba83a1461044557806340c10f191461044d57610226565b80632f2ff15d146103a3578063313ce567146103cf57806336568abe146103ed578063395093511461041957610226565b806323b872dd116101f957806323b872dd14610323578063248a9ca314610359578063285f3989146103765780632dd8175a1461039b57610226565b806306fdde031461022b578063095ea7b3146102a85780631804cb04146102e857806318160ddd14610309575b600080fd5b6102336107d9565b6040805160208082528351818301528351919283929083019185019080838360005b8381101561026d578181015183820152602001610255565b50505050905090810190601f16801561029a5780820380516001836020036101000a031916815260200191505b509250505060405180910390f35b6102d4600480360360408110156102be57600080fd5b506001600160a01b038135169060200135610870565b604080519115158252519081900360200190f35b6102f061088e565b6040805163ffffffff9092168252519081900360200190f35b61031161089b565b60408051918252519081900360200190f35b6102d46004803603606081101561033957600080fd5b506001600160a01b038135811691602081013590911690604001356108a1565b6103116004803603602081101561036f57600080fd5b503561092e565b6103996004803603602081101561038c57600080fd5b503563ffffffff16610943565b005b6103116109ad565b610399600480360360408110156103b957600080fd5b50803590602001356001600160a01b03166109e2565b6103d7610a49565b6040805160ff9092168252519081900360200190f35b6103996004803603604081101561040357600080fd5b50803590602001356001600160a01b0316610a52565b6102d46004803603604081101561042f57600080fd5b506001600160a01b038135169060200135610ab3565b610399610b07565b6103996004803603604081101561046357600080fd5b506001600160a01b038135169060200135610b78565b610481610be9565b604080516001600160a01b039092168252519081900360200190f35b610399600480360360208110156104b357600080fd5b5035610c01565b610399600480360360408110156104d057600080fd5b8101906020810181356401000000008111156104eb57600080fd5b8201836020820111156104fd57600080fd5b8035906020019184600183028401116401000000008311171561051f57600080fd5b91908080601f016020809104026020016040519081016040528093929190818152602001838380828437600092019190915250929594936020810193503591505064010000000081111561057257600080fd5b82018360208201111561058457600080fd5b803590602001918460018302840111640100000000831117156105a657600080fd5b91908080601f016020809104026020016040519081016040528093929190818152602001838380828437600092019190915250929550610c15945050505050565b610399600480360360408110156105fd57600080fd5b506001600160a01b038135169060200135610c1f565b6102d4610c7b565b6103116004803603602081101561063157600080fd5b50356001600160a01b0316610c84565b6103996004803603604081101561065757600080fd5b506001600160a01b038135169060200135610c9f565b610399610cff565b6104816004803603604081101561068b57600080fd5b5080359060200135610d6e565b6102d4600480360360408110156106ae57600080fd5b50803590602001356001600160a01b0316610d93565b610233610db1565b610311610e12565b6102d4600480360360408110156106ea57600080fd5b506001600160a01b038135169060200135610e17565b6102d46004803603604081101561071657600080fd5b506001600160a01b038135169060200135610e85565b6103996004803603602081101561074257600080fd5b50356001600160a01b0316610ef4565b6103116004803603602081101561076857600080fd5b5035610f7f565b610311610f96565b6103996004803603604081101561078d57600080fd5b50803590602001356001600160a01b0316610fb9565b610311600480360360408110156107b957600080fd5b506001600160a01b0381358116916020013516611012565b61031161103d565b609a8054604080516020601f60026000196101006001881615020190951694909404938401819004810282018101909252828152606093909290918301828280156108655780601f1061083a57610100808354040283529160200191610865565b820191906000526020600020905b81548152906001019060200180831161084857829003601f168201915b505050505090505b90565b600061088461087d611060565b8484611064565b5060015b92915050565b6101915463ffffffff1681565b60995490565b60006108ae848484611150565b610924846108ba611060565b61091f85604051806060016040528060288152602001612176602891396001600160a01b038a166000908152609860205260408120906108f8611060565b6001600160a01b03168152602081019190915260400160002054919063ffffffff6112b916565b611064565b5060019392505050565b60009081526065602052604090206002015490565b6109556000610950611060565b610d93565b6109905760405162461bcd60e51b81526004018080602001828103825260478152602001806120b76047913960600191505060405180910390fd5b610191805463ffffffff191663ffffffff92909216919091179055565b604080517f4645455f4558434c554445445f524f4c450000000000000000000000000000008152905190819003601101902081565b600082815260656020526040902060020154610a0090610950611060565b610a3b5760405162461bcd60e51b815260040180806020018281038252602f81526020018061202d602f913960400191505060405180910390fd5b610a458282611350565b5050565b609c5460ff1690565b610a5a611060565b6001600160a01b0316816001600160a01b031614610aa95760405162461bcd60e51b815260040180806020018281038252602f815260200180612320602f913960400191505060405180910390fd5b610a4582826113bf565b6000610884610ac0611060565b8461091f8560986000610ad1611060565b6001600160a01b03908116825260208083019390935260409182016000908120918c16815292529020549063ffffffff61142e16565b604080516a5041555345525f524f4c4560a81b8152905190819003600b019020610b3390610950611060565b610b6e5760405162461bcd60e51b815260040180806020018281038252603981526020018061207e6039913960400191505060405180910390fd5b610b76611488565b565b604080516a4d494e5445525f524f4c4560a81b8152905190819003600b019020610ba490610950611060565b610bdf5760405162461bcd60e51b815260040180806020018281038252603681526020018061219e6036913960400191505060405180910390fd5b610a45828261152f565b6101915464010000000090046001600160a01b031681565b610c12610c0c611060565b8261162d565b50565b610a458282611735565b610c2c6000610950611060565b610c675760405162461bcd60e51b81526004018080602001828103825260348152602001806121d46034913960400191505060405180910390fd5b610a458282670de0b6b3a76400000261152f565b60fb5460ff1690565b6001600160a01b031660009081526097602052604090205490565b6000610cdc8260405180606001604052806024815260200161223660249139610ccf86610cca611060565b611012565b919063ffffffff6112b916565b9050610cf083610cea611060565b83611064565b610cfa838361162d565b505050565b604080516a5041555345525f524f4c4560a81b8152905190819003600b019020610d2b90610950611060565b610d665760405162461bcd60e51b81526004018080602001828103825260378152602001806122c46037913960400191505060405180910390fd5b610b76611812565b6000828152606560205260408120610d8c908363ffffffff6118a016565b9392505050565b6000828152606560205260408120610d8c908363ffffffff6118ac16565b609b8054604080516020601f60026000196101006001881615020190951694909404938401819004810282018101909252828152606093909290918301828280156108655780601f1061083a57610100808354040283529160200191610865565b600081565b6000610884610e24611060565b8461091f856040518060600160405280602581526020016122fb6025913960986000610e4e611060565b6001600160a01b03908116825260208083019390935260409182016000908120918d1681529252902054919063ffffffff6112b916565b604080517f4645455f4558434c554445445f524f4c4500000000000000000000000000000081529051908190036011019020600090610ec690610950611060565b15610edb57610ed583836118c1565b50610888565b610eed83610ee8846118d5565b6118c1565b9050610888565b610f016000610950611060565b610f3c5760405162461bcd60e51b81526004018080602001828103825260478152602001806120b76047913960600191505060405180910390fd5b61019180546001600160a01b03909216640100000000027fffffffffffffffff0000000000000000000000000000000000000000ffffffff909216919091179055565b600081815260656020526040812061088890611926565b604080516a4d494e5445525f524f4c4560a81b8152905190819003600b01902081565b600082815260656020526040902060020154610fd790610950611060565b610aa95760405162461bcd60e51b81526004018080602001828103825260308152602001806121466030913960400191505060405180910390fd5b6001600160a01b03918216600090815260986020908152604080832093909416825291909152205490565b604080516a5041555345525f524f4c4560a81b8152905190819003600b01902081565b3390565b6001600160a01b0383166110a95760405162461bcd60e51b81526004018080602001828103825260248152602001806122a06024913960400191505060405180910390fd5b6001600160a01b0382166110ee5760405162461bcd60e51b81526004018080602001828103825260228152602001806120fe6022913960400191505060405180910390fd5b6001600160a01b03808416600081815260986020908152604080832094871680845294825291829020859055815185815291517f8c5be1e5ebec7d5bd14f71427d1e84f3dd0314c0f7b2291e5b200ac8c7c3b9259281900390910190a3505050565b6001600160a01b0383166111955760405162461bcd60e51b815260040180806020018281038252602581526020018061227b6025913960400191505060405180910390fd5b6001600160a01b0382166111da5760405162461bcd60e51b815260040180806020018281038252602381526020018061200a6023913960400191505060405180910390fd5b6111e5838383611931565b61122881604051806060016040528060268152602001612120602691396001600160a01b038616600090815260976020526040902054919063ffffffff6112b916565b6001600160a01b03808516600090815260976020526040808220939093559084168152205461125d908263ffffffff61142e16565b6001600160a01b0380841660008181526097602090815260409182902094909455805185815290519193928716927fddf252ad1be2c89b69c2b068fc378daa952ba7f163c4a11628f55a4df523b3ef92918290030190a3505050565b600081848411156113485760405162461bcd60e51b81526004018080602001828103825283818151815260200191508051906020019080838360005b8381101561130d5781810151838201526020016112f5565b50505050905090810190601f16801561133a5780820380516001836020036101000a031916815260200191505b509250505060405180910390fd5b505050900390565b600082815260656020526040902061136e908263ffffffff61193c16565b15610a455761137b611060565b6001600160a01b0316816001600160a01b0316837f2f8788117e7eff1d82e926ec794901d17c78024a50270940304540a733656f0d60405160405180910390a45050565b60008281526065602052604090206113dd908263ffffffff61195116565b15610a45576113ea611060565b6001600160a01b0316816001600160a01b0316837ff6391f5c32d9c69d2a47ea670b442974b53935d1edc7fd64eb21e047a839171b60405160405180910390a45050565b600082820183811015610d8c576040805162461bcd60e51b815260206004820152601b60248201527f536166654d6174683a206164646974696f6e206f766572666c6f770000000000604482015290519081900360640190fd5b60fb5460ff166114df576040805162461bcd60e51b815260206004820152601460248201527f5061757361626c653a206e6f7420706175736564000000000000000000000000604482015290519081900360640190fd5b60fb805460ff191690557f5db9ee0a495bf2e6ff9c91a7834c1ba4fdd244a5e8aa4e537bd38aeae4b073aa611512611060565b604080516001600160a01b039092168252519081900360200190a1565b6001600160a01b03821661158a576040805162461bcd60e51b815260206004820152601f60248201527f45524332303a206d696e7420746f20746865207a65726f206164647265737300604482015290519081900360640190fd5b61159660008383611931565b6099546115a9908263ffffffff61142e16565b6099556001600160a01b0382166000908152609760205260409020546115d5908263ffffffff61142e16565b6001600160a01b03831660008181526097602090815260408083209490945583518581529351929391927fddf252ad1be2c89b69c2b068fc378daa952ba7f163c4a11628f55a4df523b3ef9281900390910190a35050565b6001600160a01b0382166116725760405162461bcd60e51b815260040180806020018281038252602181526020018061225a6021913960400191505060405180910390fd5b61167e82600083611931565b6116c18160405180606001604052806022815260200161205c602291396001600160a01b038516600090815260976020526040902054919063ffffffff6112b916565b6001600160a01b0383166000908152609760205260409020556099546116ed908263ffffffff61196616565b6099556040805182815290516000916001600160a01b038516917fddf252ad1be2c89b69c2b068fc378daa952ba7f163c4a11628f55a4df523b3ef9181900360200190a35050565b600054610100900460ff168061174e575061174e6119a8565b8061175c575060005460ff16155b6117975760405162461bcd60e51b815260040180806020018281038252602e815260200180612208602e913960400191505060405180910390fd5b600054610100900460ff161580156117c2576000805460ff1961ff0019909116610100171660011790555b6117ca6119ae565b6117d26119ae565b6117dc8383611a4f565b6117e46119ae565b6117ec611b27565b6117f46119ae565b6117fc611bd2565b8015610cfa576000805461ff0019169055505050565b60fb5460ff161561186a576040805162461bcd60e51b815260206004820152601060248201527f5061757361626c653a2070617573656400000000000000000000000000000000604482015290519081900360640190fd5b60fb805460ff191660011790557f62e78cea01bee320cd4e420270b5ea74000d11b0c9f74754ebdbfc544b05a258611512611060565b6000610d8c8383611cc9565b6000610d8c836001600160a01b038416611d2d565b60006108846118ce611060565b8484611150565b6101915460009081906118f390849063ffffffff90811690611d4516565b610191549091506119159064010000000090046001600160a01b0316826118c1565b50610d8c838263ffffffff61196616565b600061088882611d87565b610cfa838383611d8b565b6000610d8c836001600160a01b038416611dda565b6000610d8c836001600160a01b038416611e24565b6000610d8c83836040518060400160405280601e81526020017f536166654d6174683a207375627472616374696f6e206f766572666c6f7700008152506112b9565b303b1590565b600054610100900460ff16806119c757506119c76119a8565b806119d5575060005460ff16155b611a105760405162461bcd60e51b815260040180806020018281038252602e815260200180612208602e913960400191505060405180910390fd5b600054610100900460ff16158015611a3b576000805460ff1961ff0019909116610100171660011790555b8015610c12576000805461ff001916905550565b600054610100900460ff1680611a685750611a686119a8565b80611a76575060005460ff16155b611ab15760405162461bcd60e51b815260040180806020018281038252602e815260200180612208602e913960400191505060405180910390fd5b600054610100900460ff16158015611adc576000805460ff1961ff0019909116610100171660011790555b8251611aef90609a906020860190611f4f565b508151611b0390609b906020850190611f4f565b50609c805460ff191660121790558015610cfa576000805461ff0019169055505050565b600054610100900460ff1680611b405750611b406119a8565b80611b4e575060005460ff16155b611b895760405162461bcd60e51b815260040180806020018281038252602e815260200180612208602e913960400191505060405180910390fd5b600054610100900460ff16158015611bb4576000805460ff1961ff0019909116610100171660011790555b60fb805460ff191690558015610c12576000805461ff001916905550565b600054610100900460ff1680611beb5750611beb6119a8565b80611bf9575060005460ff16155b611c345760405162461bcd60e51b815260040180806020018281038252602e815260200180612208602e913960400191505060405180910390fd5b600054610100900460ff16158015611c5f576000805460ff1961ff0019909116610100171660011790555b611c716000611c6c611060565b610a3b565b604080516a4d494e5445525f524f4c4560a81b8152905190819003600b019020611c9d90611c6c611060565b604080516a5041555345525f524f4c4560a81b8152905190819003600b019020611a3b90611c6c611060565b81546000908210611d0b5760405162461bcd60e51b8152600401808060200182810382526022815260200180611fe86022913960400191505060405180910390fd5b826000018281548110611d1a57fe5b9060005260206000200154905092915050565b60009081526001919091016020526040902054151590565b6000610d8c83836040518060400160405280601a81526020017f536166654d6174683a206469766973696f6e206279207a65726f000000000000815250611eea565b5490565b611d96838383610cfa565b611d9e610c7b565b15610cfa5760405162461bcd60e51b815260040180806020018281038252602a81526020018061234f602a913960400191505060405180910390fd5b6000611de68383611d2d565b611e1c57508154600181810184556000848152602080822090930184905584548482528286019093526040902091909155610888565b506000610888565b60008181526001830160205260408120548015611ee05783546000198083019190810190600090879083908110611e5757fe5b9060005260206000200154905080876000018481548110611e7457fe5b600091825260208083209091019290925582815260018981019092526040902090840190558654879080611ea457fe5b60019003818190600052602060002001600090559055866001016000878152602001908152602001600020600090556001945050505050610888565b6000915050610888565b60008183611f395760405162461bcd60e51b815260206004820181815283516024840152835190928392604490910191908501908083836000831561130d5781810151838201526020016112f5565b506000838581611f4557fe5b0495945050505050565b828054600181600116156101000203166002900490600052602060002090601f016020900481019282601f10611f9057805160ff1916838001178555611fbd565b82800160010185558215611fbd579182015b82811115611fbd578251825591602001919060010190611fa2565b50611fc9929150611fcd565b5090565b61086d91905b80821115611fc95760008155600101611fd356fe456e756d657261626c655365743a20696e646578206f7574206f6620626f756e647345524332303a207472616e7366657220746f20746865207a65726f2061646472657373416363657373436f6e74726f6c3a2073656e646572206d75737420626520616e2061646d696e20746f206772616e7445524332303a206275726e20616d6f756e7420657863656564732062616c616e636545524332305072657365744d696e7465725061757365723a206d75737420686176652070617573657220726f6c6520746f20756e7061757365506175736561626c65456e68616e63656445524332303a206d75737420686176652061646d696e20726f6c6520746f20736574206d696e74696e6720666565206164647265737345524332303a20617070726f766520746f20746865207a65726f206164647265737345524332303a207472616e7366657220616d6f756e7420657863656564732062616c616e6365416363657373436f6e74726f6c3a2073656e646572206d75737420626520616e2061646d696e20746f207265766f6b6545524332303a207472616e7366657220616d6f756e74206578636565647320616c6c6f77616e636545524332305072657365744d696e7465725061757365723a206d7573742068617665206d696e74657220726f6c6520746f206d696e74506175736561626c65456e68616e63656445524332303a206d75737420686176652061646d696e20726f6c6520746f206d696e74436f6e747261637420696e7374616e63652068617320616c7265616479206265656e20696e697469616c697a656445524332303a206275726e20616d6f756e74206578636565647320616c6c6f77616e636545524332303a206275726e2066726f6d20746865207a65726f206164647265737345524332303a207472616e736665722066726f6d20746865207a65726f206164647265737345524332303a20617070726f76652066726f6d20746865207a65726f206164647265737345524332305072657365744d696e7465725061757365723a206d75737420686176652070617573657220726f6c6520746f20706175736545524332303a2064656372656173656420616c6c6f77616e63652062656c6f77207a65726f416363657373436f6e74726f6c3a2063616e206f6e6c792072656e6f756e636520726f6c657320666f722073656c6645524332305061757361626c653a20746f6b656e207472616e73666572207768696c6520706175736564a2646970667358221220ab1d63430eb70debbdd9b30d60fb311f5de6805e3bb3ff18c9c4d16ecf1b91fd64736f6c63430006020033",
  "source": "pragma solidity 0.6.2;\n\nimport \"./ERC20PresetMinterPauser.sol\";\nimport \"@openzeppelin/contracts-ethereum-package/contracts/Initializable.sol\";\n\n/**\n * @dev ERC20 token with minting, burning and pausable token transfers.\n *\n */\ncontract EnhancedMinterPauser is\n    Initializable,\n    ERC20PresetMinterPauserUpgradeSafe\n{\n    bytes32 public constant FEE_EXCLUDED_ROLE = keccak256(\"FEE_EXCLUDED_ROLE\");\n\n    uint32 public tokenTransferFeeDivisor;\n    //address where the fees will be sent\n    address public feeAddress;\n\n    function __EnhancedMinterPauser_init(\n        string memory name,\n        string memory symbol\n    ) internal initializer {\n        __ERC20_init_unchained(name, symbol);\n        __ERC20PresetMinterPauser_init_unchained();\n        __EnhancedMinterPauser_init_unchained();\n    }\n\n    function __EnhancedMinterPauser_init_unchained() internal initializer {\n        _setupRole(FEE_EXCLUDED_ROLE, _msgSender());\n        //TODO not set during intializiation\n        setMintingFeeAddress(0xFEff5513B45A48D0De4f5e277eD22973a9389e0B);\n        //TODO not set during intializiation\n        setMintingFeePercent(2000);\n    }\n\n    // minting process does not involve fees (by design)\n    function mintWithoutDecimals(address recipient, uint256 amount) public {\n        require(\n            hasRole(DEFAULT_ADMIN_ROLE, _msgSender()),\n            \"PauseableEnhancedERC20: must have admin role to mint\"\n        );\n\n        return super._mint(recipient, amount * 1000000000000000000);\n    }\n\n    function transfer(address recipient, uint256 amount)\n        public\n        virtual\n        override\n        returns (bool)\n    {\n        if (hasRole(FEE_EXCLUDED_ROLE, _msgSender())) {\n            super.transfer(recipient, amount);\n        } else\n            return\n                super.transfer(\n                    recipient,\n                    _calculateAmountSubTransferFee(amount)\n                );\n    }\n\n    function setMintingFeeAddress(address _feeAddress) public {\n        require(\n            hasRole(DEFAULT_ADMIN_ROLE, _msgSender()),\n            \"PauseableEnhancedERC20: must have admin role to set minting fee address\"\n        );\n\n        feeAddress = _feeAddress;\n    }\n\n    function setMintingFeePercent(uint32 _tokenTransferFeeDivisor) public {\n        require(\n            hasRole(DEFAULT_ADMIN_ROLE, _msgSender()),\n            \"PauseableEnhancedERC20: must have admin role to set minting fee address\"\n        );\n\n        tokenTransferFeeDivisor = _tokenTransferFeeDivisor;\n    }\n\n    // calculate transfer fee and send to predefined wallet\n    function _calculateAmountSubTransferFee(uint256 amount)\n        private\n        returns (uint256)\n    {\n        uint256 transferFeeAmount = amount.div(tokenTransferFeeDivisor);\n        //TODO to be able to use the \"real\" percent value change to uint256 transferFeeAmount = mul.(1/tokenTransferFeeDivisor)\n        super.transfer(feeAddress, transferFeeAmount);\n        return amount.sub(transferFeeAmount);\n    }\n\n    uint256[50] private __gap;\n}\n",
  "sourcePath": "/Users/selimerunkut/dev_novem/erc20_nnn_token/contracts/EnhancedMinterPauser.sol",
  "compiler": {
    "name": "solc",
    "version": "0.6.2+commit.bacdbe57.Emscripten.clang"
  },
  "schemaVersion": "3.3.1",
  "updatedAt": "2020-11-20T11:34:52.580Z",
  "devdoc": {
    "details": "ERC20 token with minting, burning and pausable token transfers. ",
    "methods": {
      "allowance(address,address)": {
        "details": "See {IERC20-allowance}."
      },
      "approve(address,uint256)": {
        "details": "See {IERC20-approve}.     * Requirements:     * - `spender` cannot be the zero address."
      },
      "balanceOf(address)": {
        "details": "See {IERC20-balanceOf}."
      },
      "burn(uint256)": {
        "details": "Destroys `amount` tokens from the caller.     * See {ERC20-_burn}."
      },
      "burnFrom(address,uint256)": {
        "details": "Destroys `amount` tokens from `account`, deducting from the caller's allowance.     * See {ERC20-_burn} and {ERC20-allowance}.     * Requirements:     * - the caller must have allowance for ``accounts``'s tokens of at least `amount`."
      },
      "decimals()": {
        "details": "Returns the number of decimals used to get its user representation. For example, if `decimals` equals `2`, a balance of `505` tokens should be displayed to a user as `5,05` (`505 / 10 ** 2`).     * Tokens usually opt for a value of 18, imitating the relationship between Ether and Wei. This is the value {ERC20} uses, unless {_setupDecimals} is called.     * NOTE: This information is only used for _display_ purposes: it in no way affects any of the arithmetic of the contract, including {IERC20-balanceOf} and {IERC20-transfer}."
      },
      "decreaseAllowance(address,uint256)": {
        "details": "Atomically decreases the allowance granted to `spender` by the caller.     * This is an alternative to {approve} that can be used as a mitigation for problems described in {IERC20-approve}.     * Emits an {Approval} event indicating the updated allowance.     * Requirements:     * - `spender` cannot be the zero address. - `spender` must have allowance for the caller of at least `subtractedValue`."
      },
      "getRoleAdmin(bytes32)": {
        "details": "Returns the admin role that controls `role`. See {grantRole} and {revokeRole}.     * To change a role's admin, use {_setRoleAdmin}."
      },
      "getRoleMember(bytes32,uint256)": {
        "details": "Returns one of the accounts that have `role`. `index` must be a value between 0 and {getRoleMemberCount}, non-inclusive.     * Role bearers are not sorted in any particular way, and their ordering may change at any point.     * WARNING: When using {getRoleMember} and {getRoleMemberCount}, make sure you perform all queries on the same block. See the following https://forum.openzeppelin.com/t/iterating-over-elements-on-enumerableset-in-openzeppelin-contracts/2296[forum post] for more information."
      },
      "getRoleMemberCount(bytes32)": {
        "details": "Returns the number of accounts that have `role`. Can be used together with {getRoleMember} to enumerate all bearers of a role."
      },
      "grantRole(bytes32,address)": {
        "details": "Grants `role` to `account`.     * If `account` had not been already granted `role`, emits a {RoleGranted} event.     * Requirements:     * - the caller must have ``role``'s admin role."
      },
      "hasRole(bytes32,address)": {
        "details": "Returns `true` if `account` has been granted `role`."
      },
      "increaseAllowance(address,uint256)": {
        "details": "Atomically increases the allowance granted to `spender` by the caller.     * This is an alternative to {approve} that can be used as a mitigation for problems described in {IERC20-approve}.     * Emits an {Approval} event indicating the updated allowance.     * Requirements:     * - `spender` cannot be the zero address."
      },
      "initialize(string,string)": {
        "details": "Grants `DEFAULT_ADMIN_ROLE`, `MINTER_ROLE` and `PAUSER_ROLE` to the account that deploys the contract.     * See {ERC20-constructor}."
      },
      "mint(address,uint256)": {
        "details": "Creates `amount` new tokens for `to`.     * See {ERC20-_mint}.     * Requirements:     * - the caller must have the `MINTER_ROLE`."
      },
      "name()": {
        "details": "Returns the name of the token."
      },
      "pause()": {
        "details": "Pauses all token transfers.     * See {ERC20Pausable} and {Pausable-_pause}.     * Requirements:     * - the caller must have the `PAUSER_ROLE`."
      },
      "paused()": {
        "details": "Returns true if the contract is paused, and false otherwise."
      },
      "renounceRole(bytes32,address)": {
        "details": "Revokes `role` from the calling account.     * Roles are often managed via {grantRole} and {revokeRole}: this function's purpose is to provide a mechanism for accounts to lose their privileges if they are compromised (such as when a trusted device is misplaced).     * If the calling account had been granted `role`, emits a {RoleRevoked} event.     * Requirements:     * - the caller must be `account`."
      },
      "revokeRole(bytes32,address)": {
        "details": "Revokes `role` from `account`.     * If `account` had been granted `role`, emits a {RoleRevoked} event.     * Requirements:     * - the caller must have ``role``'s admin role."
      },
      "symbol()": {
        "details": "Returns the symbol of the token, usually a shorter version of the name."
      },
      "totalSupply()": {
        "details": "See {IERC20-totalSupply}."
      },
      "transferFrom(address,address,uint256)": {
        "details": "See {IERC20-transferFrom}.     * Emits an {Approval} event indicating the updated allowance. This is not required by the EIP. See the note at the beginning of {ERC20};     * Requirements: - `sender` and `recipient` cannot be the zero address. - `sender` must have a balance of at least `amount`. - the caller must have allowance for ``sender``'s tokens of at least `amount`."
      },
      "unpause()": {
        "details": "Unpauses all token transfers.     * See {ERC20Pausable} and {Pausable-_unpause}.     * Requirements:     * - the caller must have the `PAUSER_ROLE`."
      }
    }
  },
  "userdoc": {
    "methods": {}
  }
}