{
  "contractName": "EnhancedMinterPauser",
  "abi": [
    {
      "anonymous": false,
      "inputs": [
        {
          "indexed": true,
          "internalType": "address",
          "name": "owner",
          "type": "address"
        },
        {
          "indexed": true,
          "internalType": "address",
          "name": "spender",
          "type": "address"
        },
        {
          "indexed": false,
          "internalType": "uint256",
          "name": "value",
          "type": "uint256"
        }
      ],
      "name": "Approval",
      "type": "event"
    },
    {
      "anonymous": false,
      "inputs": [
        {
          "indexed": false,
          "internalType": "address",
          "name": "account",
          "type": "address"
        }
      ],
      "name": "Paused",
      "type": "event"
    },
    {
      "anonymous": false,
      "inputs": [
        {
          "indexed": true,
          "internalType": "bytes32",
          "name": "role",
          "type": "bytes32"
        },
        {
          "indexed": true,
          "internalType": "address",
          "name": "account",
          "type": "address"
        },
        {
          "indexed": true,
          "internalType": "address",
          "name": "sender",
          "type": "address"
        }
      ],
      "name": "RoleGranted",
      "type": "event"
    },
    {
      "anonymous": false,
      "inputs": [
        {
          "indexed": true,
          "internalType": "bytes32",
          "name": "role",
          "type": "bytes32"
        },
        {
          "indexed": true,
          "internalType": "address",
          "name": "account",
          "type": "address"
        },
        {
          "indexed": true,
          "internalType": "address",
          "name": "sender",
          "type": "address"
        }
      ],
      "name": "RoleRevoked",
      "type": "event"
    },
    {
      "anonymous": false,
      "inputs": [
        {
          "indexed": true,
          "internalType": "address",
          "name": "from",
          "type": "address"
        },
        {
          "indexed": true,
          "internalType": "address",
          "name": "to",
          "type": "address"
        },
        {
          "indexed": false,
          "internalType": "uint256",
          "name": "value",
          "type": "uint256"
        }
      ],
      "name": "Transfer",
      "type": "event"
    },
    {
      "anonymous": false,
      "inputs": [
        {
          "indexed": false,
          "internalType": "address",
          "name": "account",
          "type": "address"
        }
      ],
      "name": "Unpaused",
      "type": "event"
    },
    {
      "anonymous": false,
      "inputs": [
        {
          "indexed": false,
          "internalType": "address",
          "name": "newValue",
          "type": "address"
        }
      ],
      "name": "mintingFeeAddressChanged",
      "type": "event"
    },
    {
      "anonymous": false,
      "inputs": [
        {
          "indexed": false,
          "internalType": "uint32",
          "name": "newValue",
          "type": "uint32"
        }
      ],
      "name": "mintingFeePercentChanged",
      "type": "event"
    },
    {
      "inputs": [],
      "name": "DEFAULT_ADMIN_ROLE",
      "outputs": [
        {
          "internalType": "bytes32",
          "name": "",
          "type": "bytes32"
        }
      ],
      "stateMutability": "view",
      "type": "function"
    },
    {
      "inputs": [],
      "name": "FEE_EXCLUDED_ROLE",
      "outputs": [
        {
          "internalType": "bytes32",
          "name": "",
          "type": "bytes32"
        }
      ],
      "stateMutability": "view",
      "type": "function"
    },
    {
      "inputs": [],
      "name": "MINTER_ROLE",
      "outputs": [
        {
          "internalType": "bytes32",
          "name": "",
          "type": "bytes32"
        }
      ],
      "stateMutability": "view",
      "type": "function"
    },
    {
      "inputs": [],
      "name": "PAUSER_ROLE",
      "outputs": [
        {
          "internalType": "bytes32",
          "name": "",
          "type": "bytes32"
        }
      ],
      "stateMutability": "view",
      "type": "function"
    },
    {
      "inputs": [
        {
          "internalType": "address",
          "name": "owner",
          "type": "address"
        },
        {
          "internalType": "address",
          "name": "spender",
          "type": "address"
        }
      ],
      "name": "allowance",
      "outputs": [
        {
          "internalType": "uint256",
          "name": "",
          "type": "uint256"
        }
      ],
      "stateMutability": "view",
      "type": "function"
    },
    {
      "inputs": [
        {
          "internalType": "address",
          "name": "spender",
          "type": "address"
        },
        {
          "internalType": "uint256",
          "name": "amount",
          "type": "uint256"
        }
      ],
      "name": "approve",
      "outputs": [
        {
          "internalType": "bool",
          "name": "",
          "type": "bool"
        }
      ],
      "stateMutability": "nonpayable",
      "type": "function"
    },
    {
      "inputs": [
        {
          "internalType": "address",
          "name": "account",
          "type": "address"
        }
      ],
      "name": "balanceOf",
      "outputs": [
        {
          "internalType": "uint256",
          "name": "",
          "type": "uint256"
        }
      ],
      "stateMutability": "view",
      "type": "function"
    },
    {
      "inputs": [
        {
          "internalType": "uint256",
          "name": "amount",
          "type": "uint256"
        }
      ],
      "name": "burn",
      "outputs": [],
      "stateMutability": "nonpayable",
      "type": "function"
    },
    {
      "inputs": [
        {
          "internalType": "address",
          "name": "account",
          "type": "address"
        },
        {
          "internalType": "uint256",
          "name": "amount",
          "type": "uint256"
        }
      ],
      "name": "burnFrom",
      "outputs": [],
      "stateMutability": "nonpayable",
      "type": "function"
    },
    {
      "inputs": [],
      "name": "decimals",
      "outputs": [
        {
          "internalType": "uint8",
          "name": "",
          "type": "uint8"
        }
      ],
      "stateMutability": "view",
      "type": "function"
    },
    {
      "inputs": [
        {
          "internalType": "address",
          "name": "spender",
          "type": "address"
        },
        {
          "internalType": "uint256",
          "name": "subtractedValue",
          "type": "uint256"
        }
      ],
      "name": "decreaseAllowance",
      "outputs": [
        {
          "internalType": "bool",
          "name": "",
          "type": "bool"
        }
      ],
      "stateMutability": "nonpayable",
      "type": "function"
    },
    {
      "inputs": [],
      "name": "feeAddress",
      "outputs": [
        {
          "internalType": "address",
          "name": "",
          "type": "address"
        }
      ],
      "stateMutability": "view",
      "type": "function"
    },
    {
      "inputs": [
        {
          "internalType": "bytes32",
          "name": "role",
          "type": "bytes32"
        }
      ],
      "name": "getRoleAdmin",
      "outputs": [
        {
          "internalType": "bytes32",
          "name": "",
          "type": "bytes32"
        }
      ],
      "stateMutability": "view",
      "type": "function"
    },
    {
      "inputs": [
        {
          "internalType": "bytes32",
          "name": "role",
          "type": "bytes32"
        },
        {
          "internalType": "uint256",
          "name": "index",
          "type": "uint256"
        }
      ],
      "name": "getRoleMember",
      "outputs": [
        {
          "internalType": "address",
          "name": "",
          "type": "address"
        }
      ],
      "stateMutability": "view",
      "type": "function"
    },
    {
      "inputs": [
        {
          "internalType": "bytes32",
          "name": "role",
          "type": "bytes32"
        }
      ],
      "name": "getRoleMemberCount",
      "outputs": [
        {
          "internalType": "uint256",
          "name": "",
          "type": "uint256"
        }
      ],
      "stateMutability": "view",
      "type": "function"
    },
    {
      "inputs": [
        {
          "internalType": "bytes32",
          "name": "role",
          "type": "bytes32"
        },
        {
          "internalType": "address",
          "name": "account",
          "type": "address"
        }
      ],
      "name": "grantRole",
      "outputs": [],
      "stateMutability": "nonpayable",
      "type": "function"
    },
    {
      "inputs": [
        {
          "internalType": "bytes32",
          "name": "role",
          "type": "bytes32"
        },
        {
          "internalType": "address",
          "name": "account",
          "type": "address"
        }
      ],
      "name": "hasRole",
      "outputs": [
        {
          "internalType": "bool",
          "name": "",
          "type": "bool"
        }
      ],
      "stateMutability": "view",
      "type": "function"
    },
    {
      "inputs": [
        {
          "internalType": "address",
          "name": "spender",
          "type": "address"
        },
        {
          "internalType": "uint256",
          "name": "addedValue",
          "type": "uint256"
        }
      ],
      "name": "increaseAllowance",
      "outputs": [
        {
          "internalType": "bool",
          "name": "",
          "type": "bool"
        }
      ],
      "stateMutability": "nonpayable",
      "type": "function"
    },
    {
      "inputs": [
        {
          "internalType": "string",
          "name": "name",
          "type": "string"
        },
        {
          "internalType": "string",
          "name": "symbol",
          "type": "string"
        }
      ],
      "name": "initialize",
      "outputs": [],
      "stateMutability": "nonpayable",
      "type": "function"
    },
    {
      "inputs": [
        {
          "internalType": "address",
          "name": "to",
          "type": "address"
        },
        {
          "internalType": "uint256",
          "name": "amount",
          "type": "uint256"
        }
      ],
      "name": "mint",
      "outputs": [],
      "stateMutability": "nonpayable",
      "type": "function"
    },
    {
      "inputs": [],
      "name": "name",
      "outputs": [
        {
          "internalType": "string",
          "name": "",
          "type": "string"
        }
      ],
      "stateMutability": "view",
      "type": "function"
    },
    {
      "inputs": [],
      "name": "pause",
      "outputs": [],
      "stateMutability": "nonpayable",
      "type": "function"
    },
    {
      "inputs": [],
      "name": "paused",
      "outputs": [
        {
          "internalType": "bool",
          "name": "",
          "type": "bool"
        }
      ],
      "stateMutability": "view",
      "type": "function"
    },
    {
      "inputs": [
        {
          "internalType": "bytes32",
          "name": "role",
          "type": "bytes32"
        },
        {
          "internalType": "address",
          "name": "account",
          "type": "address"
        }
      ],
      "name": "renounceRole",
      "outputs": [],
      "stateMutability": "nonpayable",
      "type": "function"
    },
    {
      "inputs": [
        {
          "internalType": "bytes32",
          "name": "role",
          "type": "bytes32"
        },
        {
          "internalType": "address",
          "name": "account",
          "type": "address"
        }
      ],
      "name": "revokeRole",
      "outputs": [],
      "stateMutability": "nonpayable",
      "type": "function"
    },
    {
      "inputs": [],
      "name": "symbol",
      "outputs": [
        {
          "internalType": "string",
          "name": "",
          "type": "string"
        }
      ],
      "stateMutability": "view",
      "type": "function"
    },
    {
      "inputs": [],
      "name": "tokenTransferFeeDivisor",
      "outputs": [
        {
          "internalType": "uint32",
          "name": "",
          "type": "uint32"
        }
      ],
      "stateMutability": "view",
      "type": "function"
    },
    {
      "inputs": [],
      "name": "totalSupply",
      "outputs": [
        {
          "internalType": "uint256",
          "name": "",
          "type": "uint256"
        }
      ],
      "stateMutability": "view",
      "type": "function"
    },
    {
      "inputs": [
        {
          "internalType": "address",
          "name": "sender",
          "type": "address"
        },
        {
          "internalType": "address",
          "name": "recipient",
          "type": "address"
        },
        {
          "internalType": "uint256",
          "name": "amount",
          "type": "uint256"
        }
      ],
      "name": "transferFrom",
      "outputs": [
        {
          "internalType": "bool",
          "name": "",
          "type": "bool"
        }
      ],
      "stateMutability": "nonpayable",
      "type": "function"
    },
    {
      "inputs": [],
      "name": "unpause",
      "outputs": [],
      "stateMutability": "nonpayable",
      "type": "function"
    },
    {
      "inputs": [
        {
          "internalType": "address",
          "name": "recipient",
          "type": "address"
        },
        {
          "internalType": "uint256",
          "name": "amount",
          "type": "uint256"
        }
      ],
      "name": "mintWithoutDecimals",
      "outputs": [],
      "stateMutability": "nonpayable",
      "type": "function"
    },
    {
      "inputs": [
        {
          "internalType": "address",
          "name": "recipient",
          "type": "address"
        },
        {
          "internalType": "uint256",
          "name": "amount",
          "type": "uint256"
        }
      ],
      "name": "mintWithFee",
      "outputs": [],
      "stateMutability": "nonpayable",
      "type": "function"
    },
    {
      "inputs": [
        {
          "internalType": "address",
          "name": "recipient",
          "type": "address"
        },
        {
          "internalType": "uint256",
          "name": "amount",
          "type": "uint256"
        }
      ],
      "name": "transfer",
      "outputs": [
        {
          "internalType": "bool",
          "name": "",
          "type": "bool"
        }
      ],
      "stateMutability": "nonpayable",
      "type": "function"
    },
    {
      "inputs": [
        {
          "internalType": "address",
          "name": "_feeAddress",
          "type": "address"
        }
      ],
      "name": "setMintingFeeAddress",
      "outputs": [],
      "stateMutability": "nonpayable",
      "type": "function"
    },
    {
      "inputs": [
        {
          "internalType": "uint32",
          "name": "_tokenTransferFeeDivisor",
          "type": "uint32"
        }
      ],
      "name": "setMintingFeePercent",
      "outputs": [],
      "stateMutability": "nonpayable",
      "type": "function"
    }
  ],
  "bytecode": "0x608060405234801561001057600080fd5b506124d7806100206000396000f3fe608060405234801561001057600080fd5b50600436106102415760003560e01c80634e01b0d011610145578063a217fddf116100bd578063ca15c8731161008c578063d547741f11610071578063d547741f146107be578063dd62ed3e146107ea578063e63ab1e91461081857610241565b8063ca15c87314610799578063d5391393146107b657610241565b8063a217fddf14610713578063a457c2d71461071b578063a9059cbb14610747578063ae1cb3801461077357610241565b806379cc6790116101145780639010d07c116100f95780639010d07c146106bc57806391d14854146106df57806395d89b411461070b57610241565b806379cc6790146106885780638456cb59146106b457610241565b80634e01b0d0146106025780635c975abb1461062e5780635d520e641461063657806370a082311461066257610241565b80632f2ff15d116101d85780633f4ba83a116101a7578063412753581161018c578063412753581461049457806342966c68146104b85780634cd88b76146104d557610241565b80633f4ba83a1461046057806340c10f191461046857610241565b80632f2ff15d146103be578063313ce567146103ea57806336568abe14610408578063395093511461043457610241565b806323b872dd1161021457806323b872dd1461033e578063248a9ca314610374578063285f3989146103915780632dd8175a146103b657610241565b806306fdde0314610246578063095ea7b3146102c35780631804cb041461030357806318160ddd14610324575b600080fd5b61024e610820565b6040805160208082528351818301528351919283929083019185019080838360005b83811015610288578181015183820152602001610270565b50505050905090810190601f1680156102b55780820380516001836020036101000a031916815260200191505b509250505060405180910390f35b6102ef600480360360408110156102d957600080fd5b506001600160a01b0381351690602001356108b7565b604080519115158252519081900360200190f35b61030b6108d5565b6040805163ffffffff9092168252519081900360200190f35b61032c6108e2565b60408051918252519081900360200190f35b6102ef6004803603606081101561035457600080fd5b506001600160a01b038135811691602081013590911690604001356108e8565b61032c6004803603602081101561038a57600080fd5b5035610975565b6103b4600480360360208110156103a757600080fd5b503563ffffffff1661098a565b005b61032c610a2c565b6103b4600480360360408110156103d457600080fd5b50803590602001356001600160a01b0316610a61565b6103f2610ac8565b6040805160ff9092168252519081900360200190f35b6103b46004803603604081101561041e57600080fd5b50803590602001356001600160a01b0316610ad1565b6102ef6004803603604081101561044a57600080fd5b506001600160a01b038135169060200135610b32565b6103b4610b86565b6103b46004803603604081101561047e57600080fd5b506001600160a01b038135169060200135610bf7565b61049c610c68565b604080516001600160a01b039092168252519081900360200190f35b6103b4600480360360208110156104ce57600080fd5b5035610c80565b6103b4600480360360408110156104eb57600080fd5b81019060208101813564010000000081111561050657600080fd5b82018360208201111561051857600080fd5b8035906020019184600183028401116401000000008311171561053a57600080fd5b91908080601f016020809104026020016040519081016040528093929190818152602001838380828437600092019190915250929594936020810193503591505064010000000081111561058d57600080fd5b82018360208201111561059f57600080fd5b803590602001918460018302840111640100000000831117156105c157600080fd5b91908080601f016020809104026020016040519081016040528093929190818152602001838380828437600092019190915250929550610c94945050505050565b6103b46004803603604081101561061857600080fd5b506001600160a01b038135169060200135610c9e565b6102ef610cfa565b6103b46004803603604081101561064c57600080fd5b506001600160a01b038135169060200135610d03565b61032c6004803603602081101561067857600080fd5b50356001600160a01b0316610d5d565b6103b46004803603604081101561069e57600080fd5b506001600160a01b038135169060200135610d78565b6103b4610dd8565b61049c600480360360408110156106d257600080fd5b5080359060200135610e47565b6102ef600480360360408110156106f557600080fd5b50803590602001356001600160a01b0316610e6c565b61024e610e8a565b61032c610eeb565b6102ef6004803603604081101561073157600080fd5b506001600160a01b038135169060200135610ef0565b6102ef6004803603604081101561075d57600080fd5b506001600160a01b038135169060200135610f5e565b6103b46004803603602081101561078957600080fd5b50356001600160a01b0316610fcd565b61032c600480360360208110156107af57600080fd5b5035611094565b61032c6110ab565b6103b4600480360360408110156107d457600080fd5b50803590602001356001600160a01b03166110ce565b61032c6004803603604081101561080057600080fd5b506001600160a01b0381358116916020013516611127565b61032c611152565b609a8054604080516020601f60026000196101006001881615020190951694909404938401819004810282018101909252828152606093909290918301828280156108ac5780601f10610881576101008083540402835291602001916108ac565b820191906000526020600020905b81548152906001019060200180831161088f57829003601f168201915b505050505090505b90565b60006108cb6108c4611175565b8484611179565b5060015b92915050565b6101915463ffffffff1681565b60995490565b60006108f5848484611265565b61096b84610901611175565b61096685604051806060016040528060288152602001612267602891396001600160a01b038a1660009081526098602052604081209061093f611175565b6001600160a01b03168152602081019190915260400160002054919063ffffffff6113ce16565b611179565b5060019392505050565b60009081526065602052604090206002015490565b61099c6000610997611175565b610e6c565b6109d75760405162461bcd60e51b81526004018080602001828103825260368152602001806123ee6036913960400191505060405180910390fd5b610191805463ffffffff191663ffffffff838116919091179182905560408051929091168252517fb4fb343f6573d5bcc1c7ab700665911f5ed2699ecfc6a7d1b1af8405409b22ec916020908290030190a150565b604080517f4645455f4558434c554445445f524f4c450000000000000000000000000000008152905190819003601101902081565b600082815260656020526040902060020154610a7f90610997611175565b610aba5760405162461bcd60e51b815260040180806020018281038252602f815260200180612142602f913960400191505060405180910390fd5b610ac48282611465565b5050565b609c5460ff1690565b610ad9611175565b6001600160a01b0316816001600160a01b031614610b285760405162461bcd60e51b815260040180806020018281038252602f815260200180612449602f913960400191505060405180910390fd5b610ac482826114d4565b60006108cb610b3f611175565b846109668560986000610b50611175565b6001600160a01b03908116825260208083019390935260409182016000908120918c16815292529020549063ffffffff61154316565b604080516a5041555345525f524f4c4560a81b8152905190819003600b019020610bb290610997611175565b610bed5760405162461bcd60e51b81526004018080602001828103825260398152602001806121936039913960400191505060405180910390fd5b610bf561159d565b565b604080516a4d494e5445525f524f4c4560a81b8152905190819003600b019020610c2390610997611175565b610c5e5760405162461bcd60e51b815260040180806020018281038252603681526020018061228f6036913960400191505060405180910390fd5b610ac48282611644565b6101915464010000000090046001600160a01b031681565b610c91610c8b611175565b82611742565b50565b610ac4828261184a565b610cab6000610997611175565b610ce65760405162461bcd60e51b81526004018080602001828103825260238152602001806122446023913960400191505060405180910390fd5b610ac48282670de0b6b3a764000002611644565b60fb5460ff1690565b610d106000610997611175565b610d4b5760405162461bcd60e51b81526004018080602001828103825260238152602001806122446023913960400191505060405180910390fd5b610ac482610d5883611927565b611644565b6001600160a01b031660009081526097602052604090205490565b6000610db5826040518060600160405280602481526020016122f360249139610da886610da3611175565b611127565b919063ffffffff6113ce16565b9050610dc983610dc3611175565b83611179565b610dd38383611742565b505050565b604080516a5041555345525f524f4c4560a81b8152905190819003600b019020610e0490610997611175565b610e3f5760405162461bcd60e51b81526004018080602001828103825260378152602001806123b76037913960400191505060405180910390fd5b610bf5611978565b6000828152606560205260408120610e65908363ffffffff611a0616565b9392505050565b6000828152606560205260408120610e65908363ffffffff611a1216565b609b8054604080516020601f60026000196101006001881615020190951694909404938401819004810282018101909252828152606093909290918301828280156108ac5780601f10610881576101008083540402835291602001916108ac565b600081565b60006108cb610efd611175565b84610966856040518060600160405280602581526020016124246025913960986000610f27611175565b6001600160a01b03908116825260208083019390935260409182016000908120918d1681529252902054919063ffffffff6113ce16565b604080517f4645455f4558434c554445445f524f4c4500000000000000000000000000000081529051908190036011019020600090610f9f90610997611175565b15610fb457610fae8383611a27565b506108cf565b610fc683610fc184611927565b611a27565b90506108cf565b610fda6000610997611175565b6110155760405162461bcd60e51b81526004018080602001828103825260368152602001806123816036913960400191505060405180910390fd5b61019180546001600160a01b038084166401000000009081027fffffffffffffffff0000000000000000000000000000000000000000ffffffff9093169290921792839055604080519290930416815290517f6eea80b7608c97ee92c02a7c9e1b5f0373c4902a84a9b06c5f96072b2ebc6e739181900360200190a150565b60008181526065602052604081206108cf90611a3b565b604080516a4d494e5445525f524f4c4560a81b8152905190819003600b01902081565b6000828152606560205260409020600201546110ec90610997611175565b610b285760405162461bcd60e51b81526004018080602001828103825260308152602001806122146030913960400191505060405180910390fd5b6001600160a01b03918216600090815260986020908152604080832093909416825291909152205490565b604080516a5041555345525f524f4c4560a81b8152905190819003600b01902081565b3390565b6001600160a01b0383166111be5760405162461bcd60e51b815260040180806020018281038252602481526020018061235d6024913960400191505060405180910390fd5b6001600160a01b0382166112035760405162461bcd60e51b81526004018080602001828103825260228152602001806121cc6022913960400191505060405180910390fd5b6001600160a01b03808416600081815260986020908152604080832094871680845294825291829020859055815185815291517f8c5be1e5ebec7d5bd14f71427d1e84f3dd0314c0f7b2291e5b200ac8c7c3b9259281900390910190a3505050565b6001600160a01b0383166112aa5760405162461bcd60e51b81526004018080602001828103825260258152602001806123386025913960400191505060405180910390fd5b6001600160a01b0382166112ef5760405162461bcd60e51b815260040180806020018281038252602381526020018061211f6023913960400191505060405180910390fd5b6112fa838383611a46565b61133d816040518060600160405280602681526020016121ee602691396001600160a01b038616600090815260976020526040902054919063ffffffff6113ce16565b6001600160a01b038085166000908152609760205260408082209390935590841681522054611372908263ffffffff61154316565b6001600160a01b0380841660008181526097602090815260409182902094909455805185815290519193928716927fddf252ad1be2c89b69c2b068fc378daa952ba7f163c4a11628f55a4df523b3ef92918290030190a3505050565b6000818484111561145d5760405162461bcd60e51b81526004018080602001828103825283818151815260200191508051906020019080838360005b8381101561142257818101518382015260200161140a565b50505050905090810190601f16801561144f5780820380516001836020036101000a031916815260200191505b509250505060405180910390fd5b505050900390565b6000828152606560205260409020611483908263ffffffff611a5116565b15610ac457611490611175565b6001600160a01b0316816001600160a01b0316837f2f8788117e7eff1d82e926ec794901d17c78024a50270940304540a733656f0d60405160405180910390a45050565b60008281526065602052604090206114f2908263ffffffff611a6616565b15610ac4576114ff611175565b6001600160a01b0316816001600160a01b0316837ff6391f5c32d9c69d2a47ea670b442974b53935d1edc7fd64eb21e047a839171b60405160405180910390a45050565b600082820183811015610e65576040805162461bcd60e51b815260206004820152601b60248201527f536166654d6174683a206164646974696f6e206f766572666c6f770000000000604482015290519081900360640190fd5b60fb5460ff166115f4576040805162461bcd60e51b815260206004820152601460248201527f5061757361626c653a206e6f7420706175736564000000000000000000000000604482015290519081900360640190fd5b60fb805460ff191690557f5db9ee0a495bf2e6ff9c91a7834c1ba4fdd244a5e8aa4e537bd38aeae4b073aa611627611175565b604080516001600160a01b039092168252519081900360200190a1565b6001600160a01b03821661169f576040805162461bcd60e51b815260206004820152601f60248201527f45524332303a206d696e7420746f20746865207a65726f206164647265737300604482015290519081900360640190fd5b6116ab60008383611a46565b6099546116be908263ffffffff61154316565b6099556001600160a01b0382166000908152609760205260409020546116ea908263ffffffff61154316565b6001600160a01b03831660008181526097602090815260408083209490945583518581529351929391927fddf252ad1be2c89b69c2b068fc378daa952ba7f163c4a11628f55a4df523b3ef9281900390910190a35050565b6001600160a01b0382166117875760405162461bcd60e51b81526004018080602001828103825260218152602001806123176021913960400191505060405180910390fd5b61179382600083611a46565b6117d681604051806060016040528060228152602001612171602291396001600160a01b038516600090815260976020526040902054919063ffffffff6113ce16565b6001600160a01b038316600090815260976020526040902055609954611802908263ffffffff611a7b16565b6099556040805182815290516000916001600160a01b038516917fddf252ad1be2c89b69c2b068fc378daa952ba7f163c4a11628f55a4df523b3ef9181900360200190a35050565b600054610100900460ff16806118635750611863611abd565b80611871575060005460ff16155b6118ac5760405162461bcd60e51b815260040180806020018281038252602e8152602001806122c5602e913960400191505060405180910390fd5b600054610100900460ff161580156118d7576000805460ff1961ff0019909116610100171660011790555b6118df611ac3565b6118e7611ac3565b6118f18383611b64565b6118f9611ac3565b611901611c3c565b611909611ac3565b611911611ce7565b8015610dd3576000805461ff0019169055505050565b61019154600090819061194590849063ffffffff90811690611dde16565b610191549091506119679064010000000090046001600160a01b031682611a27565b50610e65838263ffffffff611a7b16565b60fb5460ff16156119d0576040805162461bcd60e51b815260206004820152601060248201527f5061757361626c653a2070617573656400000000000000000000000000000000604482015290519081900360640190fd5b60fb805460ff191660011790557f62e78cea01bee320cd4e420270b5ea74000d11b0c9f74754ebdbfc544b05a258611627611175565b6000610e658383611e20565b6000610e65836001600160a01b038416611e84565b60006108cb611a34611175565b8484611265565b60006108cf82611e9c565b610dd3838383611ea0565b6000610e65836001600160a01b038416611eef565b6000610e65836001600160a01b038416611f39565b6000610e6583836040518060400160405280601e81526020017f536166654d6174683a207375627472616374696f6e206f766572666c6f7700008152506113ce565b303b1590565b600054610100900460ff1680611adc5750611adc611abd565b80611aea575060005460ff16155b611b255760405162461bcd60e51b815260040180806020018281038252602e8152602001806122c5602e913960400191505060405180910390fd5b600054610100900460ff16158015611b50576000805460ff1961ff0019909116610100171660011790555b8015610c91576000805461ff001916905550565b600054610100900460ff1680611b7d5750611b7d611abd565b80611b8b575060005460ff16155b611bc65760405162461bcd60e51b815260040180806020018281038252602e8152602001806122c5602e913960400191505060405180910390fd5b600054610100900460ff16158015611bf1576000805460ff1961ff0019909116610100171660011790555b8251611c0490609a906020860190612064565b508151611c1890609b906020850190612064565b50609c805460ff191660121790558015610dd3576000805461ff0019169055505050565b600054610100900460ff1680611c555750611c55611abd565b80611c63575060005460ff16155b611c9e5760405162461bcd60e51b815260040180806020018281038252602e8152602001806122c5602e913960400191505060405180910390fd5b600054610100900460ff16158015611cc9576000805460ff1961ff0019909116610100171660011790555b60fb805460ff191690558015610c91576000805461ff001916905550565b600054610100900460ff1680611d005750611d00611abd565b80611d0e575060005460ff16155b611d495760405162461bcd60e51b815260040180806020018281038252602e8152602001806122c5602e913960400191505060405180910390fd5b600054610100900460ff16158015611d74576000805460ff1961ff0019909116610100171660011790555b611d866000611d81611175565b610aba565b604080516a4d494e5445525f524f4c4560a81b8152905190819003600b019020611db290611d81611175565b604080516a5041555345525f524f4c4560a81b8152905190819003600b019020611b5090611d81611175565b6000610e6583836040518060400160405280601a81526020017f536166654d6174683a206469766973696f6e206279207a65726f000000000000815250611fff565b81546000908210611e625760405162461bcd60e51b81526004018080602001828103825260228152602001806120fd6022913960400191505060405180910390fd5b826000018281548110611e7157fe5b9060005260206000200154905092915050565b60009081526001919091016020526040902054151590565b5490565b611eab838383610dd3565b611eb3610cfa565b15610dd35760405162461bcd60e51b815260040180806020018281038252602a815260200180612478602a913960400191505060405180910390fd5b6000611efb8383611e84565b611f31575081546001818101845560008481526020808220909301849055845484825282860190935260409020919091556108cf565b5060006108cf565b60008181526001830160205260408120548015611ff55783546000198083019190810190600090879083908110611f6c57fe5b9060005260206000200154905080876000018481548110611f8957fe5b600091825260208083209091019290925582815260018981019092526040902090840190558654879080611fb957fe5b600190038181906000526020600020016000905590558660010160008781526020019081526020016000206000905560019450505050506108cf565b60009150506108cf565b6000818361204e5760405162461bcd60e51b815260206004820181815283516024840152835190928392604490910191908501908083836000831561142257818101518382015260200161140a565b50600083858161205a57fe5b0495945050505050565b828054600181600116156101000203166002900490600052602060002090601f016020900481019282601f106120a557805160ff19168380011785556120d2565b828001600101855582156120d2579182015b828111156120d25782518255916020019190600101906120b7565b506120de9291506120e2565b5090565b6108b491905b808211156120de57600081556001016120e856fe456e756d657261626c655365743a20696e646578206f7574206f6620626f756e647345524332303a207472616e7366657220746f20746865207a65726f2061646472657373416363657373436f6e74726f6c3a2073656e646572206d75737420626520616e2061646d696e20746f206772616e7445524332303a206275726e20616d6f756e7420657863656564732062616c616e636545524332305072657365744d696e7465725061757365723a206d75737420686176652070617573657220726f6c6520746f20756e706175736545524332303a20617070726f766520746f20746865207a65726f206164647265737345524332303a207472616e7366657220616d6f756e7420657863656564732062616c616e6365416363657373436f6e74726f6c3a2073656e646572206d75737420626520616e2061646d696e20746f207265766f6b6543616c6c6572206d75737420686176652061646d696e20726f6c6520746f206d696e7445524332303a207472616e7366657220616d6f756e74206578636565647320616c6c6f77616e636545524332305072657365744d696e7465725061757365723a206d7573742068617665206d696e74657220726f6c6520746f206d696e74436f6e747261637420696e7374616e63652068617320616c7265616479206265656e20696e697469616c697a656445524332303a206275726e20616d6f756e74206578636565647320616c6c6f77616e636545524332303a206275726e2066726f6d20746865207a65726f206164647265737345524332303a207472616e736665722066726f6d20746865207a65726f206164647265737345524332303a20617070726f76652066726f6d20746865207a65726f206164647265737343616c6c6572206d75737420686176652061646d696e20726f6c6520746f20736574206d696e74696e6720666565206164647265737345524332305072657365744d696e7465725061757365723a206d75737420686176652070617573657220726f6c6520746f20706175736543616c6c6572206d75737420686176652061646d696e20726f6c6520746f20736574206d696e74696e67206665652070657263656e7445524332303a2064656372656173656420616c6c6f77616e63652062656c6f77207a65726f416363657373436f6e74726f6c3a2063616e206f6e6c792072656e6f756e636520726f6c657320666f722073656c6645524332305061757361626c653a20746f6b656e207472616e73666572207768696c6520706175736564a2646970667358221220b6e4084172c1de2eac17b88e6bf73181e6bdd29bc01cd791dfed9a30bf4888fa64736f6c63430006020033",
  "source": "pragma solidity 0.6.2;\n\nimport \"./ERC20PresetMinterPauser.sol\";\nimport \"@openzeppelin/contracts-ethereum-package/contracts/Initializable.sol\";\n\n/**\n * @dev ERC20 token with minting, burning and pausable token transfers.\n *\n */\ncontract EnhancedMinterPauser is\n    Initializable,\n    ERC20PresetMinterPauserUpgradeSafe\n{\n    bytes32 public constant FEE_EXCLUDED_ROLE = keccak256(\"FEE_EXCLUDED_ROLE\");\n\n    uint32 public tokenTransferFeeDivisor;\n    //address where the fees will be sent\n    address public feeAddress;\n\n    event mintingFeeAddressChanged(address newValue);\n    event mintingFeePercentChanged(uint32 newValue);\n\n    function __EnhancedMinterPauser_init(\n        string memory name,\n        string memory symbol\n    ) internal initializer {\n        __ERC20_init_unchained(name, symbol);\n        __ERC20PresetMinterPauser_init_unchained();\n        __EnhancedMinterPauser_init_unchained();\n    }\n\n    function __EnhancedMinterPauser_init_unchained() internal initializer {\n        _setupRole(FEE_EXCLUDED_ROLE, _msgSender());\n        setMintingFeeAddress(0xFEff5513B45A48D0De4f5e277eD22973a9389e0B);\n        setMintingFeePercent(2000);\n    }\n\n    // minting process does not involve fees (by design)\n    function mintWithoutDecimals(address recipient, uint256 amount) public {\n        require(\n            hasRole(DEFAULT_ADMIN_ROLE, _msgSender()),\n            \"Caller must have admin role to mint\"\n        );\n\n        return super._mint(recipient, amount * 1000000000000000000);\n    }\n\n    function mintWithFee(address recipient, uint256 amount) public {\n        require(\n            hasRole(DEFAULT_ADMIN_ROLE, _msgSender()),\n            \"Caller must have admin role to mint\"\n        );\n        return super._mint(recipient, _calculateAmountSubTransferFee(amount));\n    }\n\n    function transfer(address recipient, uint256 amount)\n        public\n        virtual\n        override\n        returns (bool)\n    {\n        if (hasRole(FEE_EXCLUDED_ROLE, _msgSender())) {\n            super.transfer(recipient, amount);\n        } else\n            return\n                super.transfer(\n                    recipient,\n                    _calculateAmountSubTransferFee(amount)\n                );\n    }\n\n    function setMintingFeeAddress(address _feeAddress) public {\n        require(\n            hasRole(DEFAULT_ADMIN_ROLE, _msgSender()),\n            \"Caller must have admin role to set minting fee address\"\n        );\n\n        feeAddress = _feeAddress;\n        emit mintingFeeAddressChanged(feeAddress);\n    }\n\n    function setMintingFeePercent(uint32 _tokenTransferFeeDivisor) public {\n        require(\n            hasRole(DEFAULT_ADMIN_ROLE, _msgSender()),\n            \"Caller must have admin role to set minting fee percent\"\n        );\n\n        tokenTransferFeeDivisor = _tokenTransferFeeDivisor;\n        emit mintingFeePercentChanged(tokenTransferFeeDivisor);\n    }\n\n    // calculate transfer fee and send to predefined wallet\n    function _calculateAmountSubTransferFee(uint256 amount)\n        private\n        returns (uint256)\n    {\n        uint256 transferFeeAmount = amount.div(tokenTransferFeeDivisor);\n        super.transfer(feeAddress, transferFeeAmount);\n        return amount.sub(transferFeeAmount);\n    }\n\n    uint256[50] private __gap;\n}\n",
  "sourcePath": "/Users/selimerunkut/dev_novem/erc20_nnn_token/contracts/EnhancedMinterPauser.sol",
  "compiler": {
    "name": "solc",
    "version": "0.6.2+commit.bacdbe57.Emscripten.clang"
  },
  "schemaVersion": "3.3.1",
  "updatedAt": "2020-11-20T19:17:07.403Z",
  "devdoc": {
    "details": "ERC20 token with minting, burning and pausable token transfers. ",
    "methods": {
      "allowance(address,address)": {
        "details": "See {IERC20-allowance}."
      },
      "approve(address,uint256)": {
        "details": "See {IERC20-approve}.     * Requirements:     * - `spender` cannot be the zero address."
      },
      "balanceOf(address)": {
        "details": "See {IERC20-balanceOf}."
      },
      "burn(uint256)": {
        "details": "Destroys `amount` tokens from the caller.     * See {ERC20-_burn}."
      },
      "burnFrom(address,uint256)": {
        "details": "Destroys `amount` tokens from `account`, deducting from the caller's allowance.     * See {ERC20-_burn} and {ERC20-allowance}.     * Requirements:     * - the caller must have allowance for ``accounts``'s tokens of at least `amount`."
      },
      "decimals()": {
        "details": "Returns the number of decimals used to get its user representation. For example, if `decimals` equals `2`, a balance of `505` tokens should be displayed to a user as `5,05` (`505 / 10 ** 2`).     * Tokens usually opt for a value of 18, imitating the relationship between Ether and Wei. This is the value {ERC20} uses, unless {_setupDecimals} is called.     * NOTE: This information is only used for _display_ purposes: it in no way affects any of the arithmetic of the contract, including {IERC20-balanceOf} and {IERC20-transfer}."
      },
      "decreaseAllowance(address,uint256)": {
        "details": "Atomically decreases the allowance granted to `spender` by the caller.     * This is an alternative to {approve} that can be used as a mitigation for problems described in {IERC20-approve}.     * Emits an {Approval} event indicating the updated allowance.     * Requirements:     * - `spender` cannot be the zero address. - `spender` must have allowance for the caller of at least `subtractedValue`."
      },
      "getRoleAdmin(bytes32)": {
        "details": "Returns the admin role that controls `role`. See {grantRole} and {revokeRole}.     * To change a role's admin, use {_setRoleAdmin}."
      },
      "getRoleMember(bytes32,uint256)": {
        "details": "Returns one of the accounts that have `role`. `index` must be a value between 0 and {getRoleMemberCount}, non-inclusive.     * Role bearers are not sorted in any particular way, and their ordering may change at any point.     * WARNING: When using {getRoleMember} and {getRoleMemberCount}, make sure you perform all queries on the same block. See the following https://forum.openzeppelin.com/t/iterating-over-elements-on-enumerableset-in-openzeppelin-contracts/2296[forum post] for more information."
      },
      "getRoleMemberCount(bytes32)": {
        "details": "Returns the number of accounts that have `role`. Can be used together with {getRoleMember} to enumerate all bearers of a role."
      },
      "grantRole(bytes32,address)": {
        "details": "Grants `role` to `account`.     * If `account` had not been already granted `role`, emits a {RoleGranted} event.     * Requirements:     * - the caller must have ``role``'s admin role."
      },
      "hasRole(bytes32,address)": {
        "details": "Returns `true` if `account` has been granted `role`."
      },
      "increaseAllowance(address,uint256)": {
        "details": "Atomically increases the allowance granted to `spender` by the caller.     * This is an alternative to {approve} that can be used as a mitigation for problems described in {IERC20-approve}.     * Emits an {Approval} event indicating the updated allowance.     * Requirements:     * - `spender` cannot be the zero address."
      },
      "initialize(string,string)": {
        "details": "Grants `DEFAULT_ADMIN_ROLE`, `MINTER_ROLE` and `PAUSER_ROLE` to the account that deploys the contract.     * See {ERC20-constructor}."
      },
      "mint(address,uint256)": {
        "details": "Creates `amount` new tokens for `to`.     * See {ERC20-_mint}.     * Requirements:     * - the caller must have the `MINTER_ROLE`."
      },
      "name()": {
        "details": "Returns the name of the token."
      },
      "pause()": {
        "details": "Pauses all token transfers.     * See {ERC20Pausable} and {Pausable-_pause}.     * Requirements:     * - the caller must have the `PAUSER_ROLE`."
      },
      "paused()": {
        "details": "Returns true if the contract is paused, and false otherwise."
      },
      "renounceRole(bytes32,address)": {
        "details": "Revokes `role` from the calling account.     * Roles are often managed via {grantRole} and {revokeRole}: this function's purpose is to provide a mechanism for accounts to lose their privileges if they are compromised (such as when a trusted device is misplaced).     * If the calling account had been granted `role`, emits a {RoleRevoked} event.     * Requirements:     * - the caller must be `account`."
      },
      "revokeRole(bytes32,address)": {
        "details": "Revokes `role` from `account`.     * If `account` had been granted `role`, emits a {RoleRevoked} event.     * Requirements:     * - the caller must have ``role``'s admin role."
      },
      "symbol()": {
        "details": "Returns the symbol of the token, usually a shorter version of the name."
      },
      "totalSupply()": {
        "details": "See {IERC20-totalSupply}."
      },
      "transferFrom(address,address,uint256)": {
        "details": "See {IERC20-transferFrom}.     * Emits an {Approval} event indicating the updated allowance. This is not required by the EIP. See the note at the beginning of {ERC20};     * Requirements: - `sender` and `recipient` cannot be the zero address. - `sender` must have a balance of at least `amount`. - the caller must have allowance for ``sender``'s tokens of at least `amount`."
      },
      "unpause()": {
        "details": "Unpauses all token transfers.     * See {ERC20Pausable} and {Pausable-_unpause}.     * Requirements:     * - the caller must have the `PAUSER_ROLE`."
      }
    }
  },
  "userdoc": {
    "methods": {}
  }
}