{
  "contractName": "EnhancedMinterPauser",
  "abi": [
    {
      "anonymous": false,
      "inputs": [
        {
          "indexed": true,
          "internalType": "address",
          "name": "owner",
          "type": "address"
        },
        {
          "indexed": true,
          "internalType": "address",
          "name": "spender",
          "type": "address"
        },
        {
          "indexed": false,
          "internalType": "uint256",
          "name": "value",
          "type": "uint256"
        }
      ],
      "name": "Approval",
      "type": "event"
    },
    {
      "anonymous": false,
      "inputs": [
        {
          "indexed": false,
          "internalType": "address",
          "name": "account",
          "type": "address"
        }
      ],
      "name": "Paused",
      "type": "event"
    },
    {
      "anonymous": false,
      "inputs": [
        {
          "indexed": true,
          "internalType": "bytes32",
          "name": "role",
          "type": "bytes32"
        },
        {
          "indexed": true,
          "internalType": "bytes32",
          "name": "previousAdminRole",
          "type": "bytes32"
        },
        {
          "indexed": true,
          "internalType": "bytes32",
          "name": "newAdminRole",
          "type": "bytes32"
        }
      ],
      "name": "RoleAdminChanged",
      "type": "event"
    },
    {
      "anonymous": false,
      "inputs": [
        {
          "indexed": true,
          "internalType": "bytes32",
          "name": "role",
          "type": "bytes32"
        },
        {
          "indexed": true,
          "internalType": "address",
          "name": "account",
          "type": "address"
        },
        {
          "indexed": true,
          "internalType": "address",
          "name": "sender",
          "type": "address"
        }
      ],
      "name": "RoleGranted",
      "type": "event"
    },
    {
      "anonymous": false,
      "inputs": [
        {
          "indexed": true,
          "internalType": "bytes32",
          "name": "role",
          "type": "bytes32"
        },
        {
          "indexed": true,
          "internalType": "address",
          "name": "account",
          "type": "address"
        },
        {
          "indexed": true,
          "internalType": "address",
          "name": "sender",
          "type": "address"
        }
      ],
      "name": "RoleRevoked",
      "type": "event"
    },
    {
      "anonymous": false,
      "inputs": [
        {
          "indexed": true,
          "internalType": "address",
          "name": "from",
          "type": "address"
        },
        {
          "indexed": true,
          "internalType": "address",
          "name": "to",
          "type": "address"
        },
        {
          "indexed": false,
          "internalType": "uint256",
          "name": "value",
          "type": "uint256"
        }
      ],
      "name": "Transfer",
      "type": "event"
    },
    {
      "anonymous": false,
      "inputs": [
        {
          "indexed": false,
          "internalType": "address",
          "name": "account",
          "type": "address"
        }
      ],
      "name": "Unpaused",
      "type": "event"
    },
    {
      "anonymous": false,
      "inputs": [
        {
          "indexed": false,
          "internalType": "address",
          "name": "newValue",
          "type": "address"
        }
      ],
      "name": "mintingFeeAddressChanged",
      "type": "event"
    },
    {
      "anonymous": false,
      "inputs": [
        {
          "indexed": false,
          "internalType": "uint32",
          "name": "newValue",
          "type": "uint32"
        }
      ],
      "name": "mintingFeePercentChanged",
      "type": "event"
    },
    {
      "inputs": [],
      "name": "DEFAULT_ADMIN_ROLE",
      "outputs": [
        {
          "internalType": "bytes32",
          "name": "",
          "type": "bytes32"
        }
      ],
      "stateMutability": "view",
      "type": "function"
    },
    {
      "inputs": [],
      "name": "FEE_EXCLUDED_ROLE",
      "outputs": [
        {
          "internalType": "bytes32",
          "name": "",
          "type": "bytes32"
        }
      ],
      "stateMutability": "view",
      "type": "function"
    },
    {
      "inputs": [],
      "name": "MINTER_ROLE",
      "outputs": [
        {
          "internalType": "bytes32",
          "name": "",
          "type": "bytes32"
        }
      ],
      "stateMutability": "view",
      "type": "function"
    },
    {
      "inputs": [],
      "name": "PAUSER_ROLE",
      "outputs": [
        {
          "internalType": "bytes32",
          "name": "",
          "type": "bytes32"
        }
      ],
      "stateMutability": "view",
      "type": "function"
    },
    {
      "inputs": [
        {
          "internalType": "address",
          "name": "owner",
          "type": "address"
        },
        {
          "internalType": "address",
          "name": "spender",
          "type": "address"
        }
      ],
      "name": "allowance",
      "outputs": [
        {
          "internalType": "uint256",
          "name": "",
          "type": "uint256"
        }
      ],
      "stateMutability": "view",
      "type": "function"
    },
    {
      "inputs": [
        {
          "internalType": "address",
          "name": "spender",
          "type": "address"
        },
        {
          "internalType": "uint256",
          "name": "amount",
          "type": "uint256"
        }
      ],
      "name": "approve",
      "outputs": [
        {
          "internalType": "bool",
          "name": "",
          "type": "bool"
        }
      ],
      "stateMutability": "nonpayable",
      "type": "function"
    },
    {
      "inputs": [
        {
          "internalType": "address",
          "name": "account",
          "type": "address"
        }
      ],
      "name": "balanceOf",
      "outputs": [
        {
          "internalType": "uint256",
          "name": "",
          "type": "uint256"
        }
      ],
      "stateMutability": "view",
      "type": "function"
    },
    {
      "inputs": [
        {
          "internalType": "uint256",
          "name": "amount",
          "type": "uint256"
        }
      ],
      "name": "burn",
      "outputs": [],
      "stateMutability": "nonpayable",
      "type": "function"
    },
    {
      "inputs": [
        {
          "internalType": "address",
          "name": "account",
          "type": "address"
        },
        {
          "internalType": "uint256",
          "name": "amount",
          "type": "uint256"
        }
      ],
      "name": "burnFrom",
      "outputs": [],
      "stateMutability": "nonpayable",
      "type": "function"
    },
    {
      "inputs": [],
      "name": "decimals",
      "outputs": [
        {
          "internalType": "uint8",
          "name": "",
          "type": "uint8"
        }
      ],
      "stateMutability": "view",
      "type": "function"
    },
    {
      "inputs": [
        {
          "internalType": "address",
          "name": "spender",
          "type": "address"
        },
        {
          "internalType": "uint256",
          "name": "subtractedValue",
          "type": "uint256"
        }
      ],
      "name": "decreaseAllowance",
      "outputs": [
        {
          "internalType": "bool",
          "name": "",
          "type": "bool"
        }
      ],
      "stateMutability": "nonpayable",
      "type": "function"
    },
    {
      "inputs": [],
      "name": "feeAddress",
      "outputs": [
        {
          "internalType": "address",
          "name": "",
          "type": "address"
        }
      ],
      "stateMutability": "view",
      "type": "function"
    },
    {
      "inputs": [
        {
          "internalType": "bytes32",
          "name": "role",
          "type": "bytes32"
        }
      ],
      "name": "getRoleAdmin",
      "outputs": [
        {
          "internalType": "bytes32",
          "name": "",
          "type": "bytes32"
        }
      ],
      "stateMutability": "view",
      "type": "function"
    },
    {
      "inputs": [
        {
          "internalType": "bytes32",
          "name": "role",
          "type": "bytes32"
        },
        {
          "internalType": "uint256",
          "name": "index",
          "type": "uint256"
        }
      ],
      "name": "getRoleMember",
      "outputs": [
        {
          "internalType": "address",
          "name": "",
          "type": "address"
        }
      ],
      "stateMutability": "view",
      "type": "function"
    },
    {
      "inputs": [
        {
          "internalType": "bytes32",
          "name": "role",
          "type": "bytes32"
        }
      ],
      "name": "getRoleMemberCount",
      "outputs": [
        {
          "internalType": "uint256",
          "name": "",
          "type": "uint256"
        }
      ],
      "stateMutability": "view",
      "type": "function"
    },
    {
      "inputs": [
        {
          "internalType": "bytes32",
          "name": "role",
          "type": "bytes32"
        },
        {
          "internalType": "address",
          "name": "account",
          "type": "address"
        }
      ],
      "name": "grantRole",
      "outputs": [],
      "stateMutability": "nonpayable",
      "type": "function"
    },
    {
      "inputs": [
        {
          "internalType": "bytes32",
          "name": "role",
          "type": "bytes32"
        },
        {
          "internalType": "address",
          "name": "account",
          "type": "address"
        }
      ],
      "name": "hasRole",
      "outputs": [
        {
          "internalType": "bool",
          "name": "",
          "type": "bool"
        }
      ],
      "stateMutability": "view",
      "type": "function"
    },
    {
      "inputs": [
        {
          "internalType": "address",
          "name": "spender",
          "type": "address"
        },
        {
          "internalType": "uint256",
          "name": "addedValue",
          "type": "uint256"
        }
      ],
      "name": "increaseAllowance",
      "outputs": [
        {
          "internalType": "bool",
          "name": "",
          "type": "bool"
        }
      ],
      "stateMutability": "nonpayable",
      "type": "function"
    },
    {
      "inputs": [
        {
          "internalType": "string",
          "name": "name",
          "type": "string"
        },
        {
          "internalType": "string",
          "name": "symbol",
          "type": "string"
        }
      ],
      "name": "initialize",
      "outputs": [],
      "stateMutability": "nonpayable",
      "type": "function"
    },
    {
      "inputs": [
        {
          "internalType": "address",
          "name": "to",
          "type": "address"
        },
        {
          "internalType": "uint256",
          "name": "amount",
          "type": "uint256"
        }
      ],
      "name": "mint",
      "outputs": [],
      "stateMutability": "nonpayable",
      "type": "function"
    },
    {
      "inputs": [],
      "name": "name",
      "outputs": [
        {
          "internalType": "string",
          "name": "",
          "type": "string"
        }
      ],
      "stateMutability": "view",
      "type": "function"
    },
    {
      "inputs": [],
      "name": "pause",
      "outputs": [],
      "stateMutability": "nonpayable",
      "type": "function"
    },
    {
      "inputs": [],
      "name": "paused",
      "outputs": [
        {
          "internalType": "bool",
          "name": "",
          "type": "bool"
        }
      ],
      "stateMutability": "view",
      "type": "function"
    },
    {
      "inputs": [
        {
          "internalType": "bytes32",
          "name": "role",
          "type": "bytes32"
        },
        {
          "internalType": "address",
          "name": "account",
          "type": "address"
        }
      ],
      "name": "renounceRole",
      "outputs": [],
      "stateMutability": "nonpayable",
      "type": "function"
    },
    {
      "inputs": [
        {
          "internalType": "bytes32",
          "name": "role",
          "type": "bytes32"
        },
        {
          "internalType": "address",
          "name": "account",
          "type": "address"
        }
      ],
      "name": "revokeRole",
      "outputs": [],
      "stateMutability": "nonpayable",
      "type": "function"
    },
    {
      "inputs": [],
      "name": "symbol",
      "outputs": [
        {
          "internalType": "string",
          "name": "",
          "type": "string"
        }
      ],
      "stateMutability": "view",
      "type": "function"
    },
    {
      "inputs": [],
      "name": "tokenTransferFeeDivisor",
      "outputs": [
        {
          "internalType": "uint32",
          "name": "",
          "type": "uint32"
        }
      ],
      "stateMutability": "view",
      "type": "function"
    },
    {
      "inputs": [],
      "name": "totalSupply",
      "outputs": [
        {
          "internalType": "uint256",
          "name": "",
          "type": "uint256"
        }
      ],
      "stateMutability": "view",
      "type": "function"
    },
    {
      "inputs": [
        {
          "internalType": "address",
          "name": "sender",
          "type": "address"
        },
        {
          "internalType": "address",
          "name": "recipient",
          "type": "address"
        },
        {
          "internalType": "uint256",
          "name": "amount",
          "type": "uint256"
        }
      ],
      "name": "transferFrom",
      "outputs": [
        {
          "internalType": "bool",
          "name": "",
          "type": "bool"
        }
      ],
      "stateMutability": "nonpayable",
      "type": "function"
    },
    {
      "inputs": [],
      "name": "unpause",
      "outputs": [],
      "stateMutability": "nonpayable",
      "type": "function"
    },
    {
      "inputs": [
        {
          "internalType": "address",
          "name": "recipient",
          "type": "address"
        },
        {
          "internalType": "uint256",
          "name": "amount",
          "type": "uint256"
        }
      ],
      "name": "mintWithoutDecimals",
      "outputs": [],
      "stateMutability": "nonpayable",
      "type": "function"
    },
    {
      "inputs": [
        {
          "internalType": "address",
          "name": "recipient",
          "type": "address"
        },
        {
          "internalType": "uint256",
          "name": "amount",
          "type": "uint256"
        }
      ],
      "name": "mintWithFee",
      "outputs": [],
      "stateMutability": "nonpayable",
      "type": "function"
    },
    {
      "inputs": [
        {
          "internalType": "address",
          "name": "recipient",
          "type": "address"
        },
        {
          "internalType": "uint256",
          "name": "amount",
          "type": "uint256"
        }
      ],
      "name": "transfer",
      "outputs": [
        {
          "internalType": "bool",
          "name": "",
          "type": "bool"
        }
      ],
      "stateMutability": "nonpayable",
      "type": "function"
    },
    {
      "inputs": [
        {
          "internalType": "address",
          "name": "_feeAddress",
          "type": "address"
        }
      ],
      "name": "setMintingFeeAddress",
      "outputs": [],
      "stateMutability": "nonpayable",
      "type": "function"
    },
    {
      "inputs": [
        {
          "internalType": "uint32",
          "name": "_tokenTransferFeeDivisor",
          "type": "uint32"
        }
      ],
      "name": "setMintingFeePercent",
      "outputs": [],
      "stateMutability": "nonpayable",
      "type": "function"
    }
  ],
  "bytecode": "0x608060405234801561001057600080fd5b506124ec806100206000396000f3fe608060405234801561001057600080fd5b50600436106102415760003560e01c80634e01b0d011610145578063a217fddf116100bd578063ca15c8731161008c578063d547741f11610071578063d547741f146107be578063dd62ed3e146107ea578063e63ab1e91461081857610241565b8063ca15c87314610799578063d5391393146107b657610241565b8063a217fddf14610713578063a457c2d71461071b578063a9059cbb14610747578063ae1cb3801461077357610241565b806379cc6790116101145780639010d07c116100f95780639010d07c146106bc57806391d14854146106df57806395d89b411461070b57610241565b806379cc6790146106885780638456cb59146106b457610241565b80634e01b0d0146106025780635c975abb1461062e5780635d520e641461063657806370a082311461066257610241565b80632f2ff15d116101d85780633f4ba83a116101a7578063412753581161018c578063412753581461049457806342966c68146104b85780634cd88b76146104d557610241565b80633f4ba83a1461046057806340c10f191461046857610241565b80632f2ff15d146103be578063313ce567146103ea57806336568abe14610408578063395093511461043457610241565b806323b872dd1161021457806323b872dd1461033e578063248a9ca314610374578063285f3989146103915780632dd8175a146103b657610241565b806306fdde0314610246578063095ea7b3146102c35780631804cb041461030357806318160ddd14610324575b600080fd5b61024e610820565b6040805160208082528351818301528351919283929083019185019080838360005b83811015610288578181015183820152602001610270565b50505050905090810190601f1680156102b55780820380516001836020036101000a031916815260200191505b509250505060405180910390f35b6102ef600480360360408110156102d957600080fd5b506001600160a01b0381351690602001356108b6565b604080519115158252519081900360200190f35b61030b6108d4565b6040805163ffffffff9092168252519081900360200190f35b61032c6108e1565b60408051918252519081900360200190f35b6102ef6004803603606081101561035457600080fd5b506001600160a01b038135811691602081013590911690604001356108e7565b61032c6004803603602081101561038a57600080fd5b503561096e565b6103b4600480360360208110156103a757600080fd5b503563ffffffff16610983565b005b61032c610a25565b6103b4600480360360408110156103d457600080fd5b50803590602001356001600160a01b0316610a49565b6103f2610ab0565b6040805160ff9092168252519081900360200190f35b6103b46004803603604081101561041e57600080fd5b50803590602001356001600160a01b0316610ab9565b6102ef6004803603604081101561044a57600080fd5b506001600160a01b038135169060200135610b1a565b6103b4610b68565b6103b46004803603604081101561047e57600080fd5b506001600160a01b038135169060200135610bd9565b61049c610c4a565b604080516001600160a01b039092168252519081900360200190f35b6103b4600480360360208110156104ce57600080fd5b5035610c62565b6103b4600480360360408110156104eb57600080fd5b81019060208101813564010000000081111561050657600080fd5b82018360208201111561051857600080fd5b8035906020019184600183028401116401000000008311171561053a57600080fd5b91908080601f016020809104026020016040519081016040528093929190818152602001838380828437600092019190915250929594936020810193503591505064010000000081111561058d57600080fd5b82018360208201111561059f57600080fd5b803590602001918460018302840111640100000000831117156105c157600080fd5b91908080601f016020809104026020016040519081016040528093929190818152602001838380828437600092019190915250929550610c76945050505050565b6103b46004803603604081101561061857600080fd5b506001600160a01b038135169060200135610d24565b6102ef610d80565b6103b46004803603604081101561064c57600080fd5b506001600160a01b038135169060200135610d89565b61032c6004803603602081101561067857600080fd5b50356001600160a01b0316610de3565b6103b46004803603604081101561069e57600080fd5b506001600160a01b038135169060200135610dfe565b6103b4610e53565b61049c600480360360408110156106d257600080fd5b5080359060200135610ec2565b6102ef600480360360408110156106f557600080fd5b50803590602001356001600160a01b0316610ee1565b61024e610ef9565b61032c610f5a565b6102ef6004803603604081101561073157600080fd5b506001600160a01b038135169060200135610f5f565b6102ef6004803603604081101561075d57600080fd5b506001600160a01b038135169060200135610fc7565b6103b46004803603602081101561078957600080fd5b50356001600160a01b0316611023565b61032c600480360360208110156107af57600080fd5b50356110ea565b61032c611101565b6103b4600480360360408110156107d457600080fd5b50803590602001356001600160a01b0316611125565b61032c6004803603604081101561080057600080fd5b506001600160a01b038135811691602001351661117e565b61032c6111a9565b60688054604080516020601f60026000196101006001881615020190951694909404938401819004810282018101909252828152606093909290918301828280156108ac5780601f10610881576101008083540402835291602001916108ac565b820191906000526020600020905b81548152906001019060200180831161088f57829003601f168201915b5050505050905090565b60006108ca6108c36111cd565b84846111d1565b5060015b92915050565b61015f5463ffffffff1681565b60675490565b60006108f48484846112bd565b610964846109006111cd565b61095f856040518060600160405280602881526020016122aa602891396001600160a01b038a1660009081526066602052604081209061093e6111cd565b6001600160a01b03168152602081019190915260400160002054919061141a565b6111d1565b5060019392505050565b60009081526033602052604090206002015490565b61099560006109906111cd565b610ee1565b6109d05760405162461bcd60e51b81526004018080602001828103825260368152602001806124036036913960400191505060405180910390fd5b61015f805463ffffffff191663ffffffff838116919091179182905560408051929091168252517fb4fb343f6573d5bcc1c7ab700665911f5ed2699ecfc6a7d1b1af8405409b22ec916020908290030190a150565b7fbcaa5c4620c62b2fedc77ef4fe401724814aeef811d907416a737179a85b1ab281565b600082815260336020526040902060020154610a67906109906111cd565b610aa25760405162461bcd60e51b815260040180806020018281038252602f815260200180612157602f913960400191505060405180910390fd5b610aac82826114b1565b5050565b606a5460ff1690565b610ac16111cd565b6001600160a01b0316816001600160a01b031614610b105760405162461bcd60e51b815260040180806020018281038252602f81526020018061245e602f913960400191505060405180910390fd5b610aac828261151a565b60006108ca610b276111cd565b8461095f8560666000610b386111cd565b6001600160a01b03908116825260208083019390935260409182016000908120918c168152925290205490611583565b610b947f65d7a28e3265b37a6474929f336521b332c1681b933f6cb9f3376673440d862a6109906111cd565b610bcf5760405162461bcd60e51b81526004018080602001828103825260398152602001806121a86039913960400191505060405180910390fd5b610bd76115dd565b565b610c057f9f2df0fed2c77648de5860a4cc508cd0818c85b8b8a1ab4ceeef8d981c8956a66109906111cd565b610c405760405162461bcd60e51b81526004018080602001828103825260368152602001806122d26036913960400191505060405180910390fd5b610aac8282611684565b61015f5464010000000090046001600160a01b031681565b610c73610c6d6111cd565b82611776565b50565b600054610100900460ff1680610c8f5750610c8f611872565b80610c9d575060005460ff16155b610cd85760405162461bcd60e51b815260040180806020018281038252602e815260200180612259602e913960400191505060405180910390fd5b600054610100900460ff16158015610d03576000805460ff1961ff0019909116610100171660011790555b610d0d8383611878565b8015610d1f576000805461ff00191690555b505050565b610d3160006109906111cd565b610d6c5760405162461bcd60e51b81526004018080602001828103825260238152602001806122876023913960400191505060405180910390fd5b610aac8282670de0b6b3a764000002611684565b60c95460ff1690565b610d9660006109906111cd565b610dd15760405162461bcd60e51b81526004018080602001828103825260238152602001806122876023913960400191505060405180910390fd5b610aac82610dde83611941565b611684565b6001600160a01b031660009081526065602052604090205490565b6000610e358260405180606001604052806024815260200161230860249139610e2e86610e296111cd565b61117e565b919061141a565b9050610e4983610e436111cd565b836111d1565b610d1f8383611776565b610e7f7f65d7a28e3265b37a6474929f336521b332c1681b933f6cb9f3376673440d862a6109906111cd565b610eba5760405162461bcd60e51b81526004018080602001828103825260378152602001806123cc6037913960400191505060405180910390fd5b610bd7611998565b6000828152603360205260408120610eda9083611a26565b9392505050565b6000828152603360205260408120610eda9083611a32565b60698054604080516020601f60026000196101006001881615020190951694909404938401819004810282018101909252828152606093909290918301828280156108ac5780601f10610881576101008083540402835291602001916108ac565b600081565b60006108ca610f6c6111cd565b8461095f856040518060600160405280602581526020016124396025913960666000610f966111cd565b6001600160a01b03908116825260208083019390935260409182016000908120918d1681529252902054919061141a565b6000610ff57fbcaa5c4620c62b2fedc77ef4fe401724814aeef811d907416a737179a85b1ab26109906111cd565b1561100a576110048383611a47565b506108ce565b61101c8361101784611941565b611a47565b90506108ce565b61103060006109906111cd565b61106b5760405162461bcd60e51b81526004018080602001828103825260368152602001806123966036913960400191505060405180910390fd5b61015f80546001600160a01b038084166401000000009081027fffffffffffffffff0000000000000000000000000000000000000000ffffffff9093169290921792839055604080519290930416815290517f6eea80b7608c97ee92c02a7c9e1b5f0373c4902a84a9b06c5f96072b2ebc6e739181900360200190a150565b60008181526033602052604081206108ce90611a5b565b7f9f2df0fed2c77648de5860a4cc508cd0818c85b8b8a1ab4ceeef8d981c8956a681565b600082815260336020526040902060020154611143906109906111cd565b610b105760405162461bcd60e51b81526004018080602001828103825260308152602001806122296030913960400191505060405180910390fd5b6001600160a01b03918216600090815260666020908152604080832093909416825291909152205490565b7f65d7a28e3265b37a6474929f336521b332c1681b933f6cb9f3376673440d862a81565b3390565b6001600160a01b0383166112165760405162461bcd60e51b81526004018080602001828103825260248152602001806123726024913960400191505060405180910390fd5b6001600160a01b03821661125b5760405162461bcd60e51b81526004018080602001828103825260228152602001806121e16022913960400191505060405180910390fd5b6001600160a01b03808416600081815260666020908152604080832094871680845294825291829020859055815185815291517f8c5be1e5ebec7d5bd14f71427d1e84f3dd0314c0f7b2291e5b200ac8c7c3b9259281900390910190a3505050565b6001600160a01b0383166113025760405162461bcd60e51b815260040180806020018281038252602581526020018061234d6025913960400191505060405180910390fd5b6001600160a01b0382166113475760405162461bcd60e51b81526004018080602001828103825260238152602001806121346023913960400191505060405180910390fd5b611352838383611a66565b61138f81604051806060016040528060268152602001612203602691396001600160a01b038616600090815260656020526040902054919061141a565b6001600160a01b0380851660009081526065602052604080822093909355908416815220546113be9082611583565b6001600160a01b0380841660008181526065602090815260409182902094909455805185815290519193928716927fddf252ad1be2c89b69c2b068fc378daa952ba7f163c4a11628f55a4df523b3ef92918290030190a3505050565b600081848411156114a95760405162461bcd60e51b81526004018080602001828103825283818151815260200191508051906020019080838360005b8381101561146e578181015183820152602001611456565b50505050905090810190601f16801561149b5780820380516001836020036101000a031916815260200191505b509250505060405180910390fd5b505050900390565b60008281526033602052604090206114c99082611a71565b15610aac576114d66111cd565b6001600160a01b0316816001600160a01b0316837f2f8788117e7eff1d82e926ec794901d17c78024a50270940304540a733656f0d60405160405180910390a45050565b60008281526033602052604090206115329082611a86565b15610aac5761153f6111cd565b6001600160a01b0316816001600160a01b0316837ff6391f5c32d9c69d2a47ea670b442974b53935d1edc7fd64eb21e047a839171b60405160405180910390a45050565b600082820183811015610eda576040805162461bcd60e51b815260206004820152601b60248201527f536166654d6174683a206164646974696f6e206f766572666c6f770000000000604482015290519081900360640190fd5b60c95460ff16611634576040805162461bcd60e51b815260206004820152601460248201527f5061757361626c653a206e6f7420706175736564000000000000000000000000604482015290519081900360640190fd5b60c9805460ff191690557f5db9ee0a495bf2e6ff9c91a7834c1ba4fdd244a5e8aa4e537bd38aeae4b073aa6116676111cd565b604080516001600160a01b039092168252519081900360200190a1565b6001600160a01b0382166116df576040805162461bcd60e51b815260206004820152601f60248201527f45524332303a206d696e7420746f20746865207a65726f206164647265737300604482015290519081900360640190fd5b6116eb60008383611a66565b6067546116f89082611583565b6067556001600160a01b03821660009081526065602052604090205461171e9082611583565b6001600160a01b03831660008181526065602090815260408083209490945583518581529351929391927fddf252ad1be2c89b69c2b068fc378daa952ba7f163c4a11628f55a4df523b3ef9281900390910190a35050565b6001600160a01b0382166117bb5760405162461bcd60e51b815260040180806020018281038252602181526020018061232c6021913960400191505060405180910390fd5b6117c782600083611a66565b61180481604051806060016040528060228152602001612186602291396001600160a01b038516600090815260656020526040902054919061141a565b6001600160a01b03831660009081526065602052604090205560675461182a9082611a9b565b6067556040805182815290516000916001600160a01b038516917fddf252ad1be2c89b69c2b068fc378daa952ba7f163c4a11628f55a4df523b3ef9181900360200190a35050565b303b1590565b600054610100900460ff16806118915750611891611872565b8061189f575060005460ff16155b6118da5760405162461bcd60e51b815260040180806020018281038252602e815260200180612259602e913960400191505060405180910390fd5b600054610100900460ff16158015611905576000805460ff1961ff0019909116610100171660011790555b61190d611add565b611915611add565b61191f8383611b7e565b611927611add565b61192f611c56565b611937611add565b610d0d8383611d01565b61015f54600090611973906001600160a01b036401000000008204169061101790859063ffffffff90811690611df816565b5061015f546108ce9061199190849063ffffffff90811690611df816565b8390611a9b565b60c95460ff16156119f0576040805162461bcd60e51b815260206004820152601060248201527f5061757361626c653a2070617573656400000000000000000000000000000000604482015290519081900360640190fd5b60c9805460ff191660011790557f62e78cea01bee320cd4e420270b5ea74000d11b0c9f74754ebdbfc544b05a2586116676111cd565b6000610eda8383611e3a565b6000610eda836001600160a01b038416611e9e565b60006108ca611a546111cd565b84846112bd565b60006108ce82611eb6565b610d1f838383611eba565b6000610eda836001600160a01b038416611f09565b6000610eda836001600160a01b038416611f53565b6000610eda83836040518060400160405280601e81526020017f536166654d6174683a207375627472616374696f6e206f766572666c6f77000081525061141a565b600054610100900460ff1680611af65750611af6611872565b80611b04575060005460ff16155b611b3f5760405162461bcd60e51b815260040180806020018281038252602e815260200180612259602e913960400191505060405180910390fd5b600054610100900460ff16158015611b6a576000805460ff1961ff0019909116610100171660011790555b8015610c73576000805461ff001916905550565b600054610100900460ff1680611b975750611b97611872565b80611ba5575060005460ff16155b611be05760405162461bcd60e51b815260040180806020018281038252602e815260200180612259602e913960400191505060405180910390fd5b600054610100900460ff16158015611c0b576000805460ff1961ff0019909116610100171660011790555b8251611c1e90606890602086019061207e565b508151611c3290606990602085019061207e565b50606a805460ff191660121790558015610d1f576000805461ff0019169055505050565b600054610100900460ff1680611c6f5750611c6f611872565b80611c7d575060005460ff16155b611cb85760405162461bcd60e51b815260040180806020018281038252602e815260200180612259602e913960400191505060405180910390fd5b600054610100900460ff16158015611ce3576000805460ff1961ff0019909116610100171660011790555b60c9805460ff191690558015610c73576000805461ff001916905550565b600054610100900460ff1680611d1a5750611d1a611872565b80611d28575060005460ff16155b611d635760405162461bcd60e51b815260040180806020018281038252602e815260200180612259602e913960400191505060405180910390fd5b600054610100900460ff16158015611d8e576000805460ff1961ff0019909116610100171660011790555b611da06000611d9b6111cd565b610aa2565b611dcc7f9f2df0fed2c77648de5860a4cc508cd0818c85b8b8a1ab4ceeef8d981c8956a6611d9b6111cd565b610d0d7f65d7a28e3265b37a6474929f336521b332c1681b933f6cb9f3376673440d862a611d9b6111cd565b6000610eda83836040518060400160405280601a81526020017f536166654d6174683a206469766973696f6e206279207a65726f000000000000815250612019565b81546000908210611e7c5760405162461bcd60e51b81526004018080602001828103825260228152602001806121126022913960400191505060405180910390fd5b826000018281548110611e8b57fe5b9060005260206000200154905092915050565b60009081526001919091016020526040902054151590565b5490565b611ec5838383610d1f565b611ecd610d80565b15610d1f5760405162461bcd60e51b815260040180806020018281038252602a81526020018061248d602a913960400191505060405180910390fd5b6000611f158383611e9e565b611f4b575081546001818101845560008481526020808220909301849055845484825282860190935260409020919091556108ce565b5060006108ce565b6000818152600183016020526040812054801561200f5783546000198083019190810190600090879083908110611f8657fe5b9060005260206000200154905080876000018481548110611fa357fe5b600091825260208083209091019290925582815260018981019092526040902090840190558654879080611fd357fe5b600190038181906000526020600020016000905590558660010160008781526020019081526020016000206000905560019450505050506108ce565b60009150506108ce565b600081836120685760405162461bcd60e51b815260206004820181815283516024840152835190928392604490910191908501908083836000831561146e578181015183820152602001611456565b50600083858161207457fe5b0495945050505050565b828054600181600116156101000203166002900490600052602060002090601f016020900481019282601f106120bf57805160ff19168380011785556120ec565b828001600101855582156120ec579182015b828111156120ec5782518255916020019190600101906120d1565b506120f89291506120fc565b5090565b5b808211156120f857600081556001016120fd56fe456e756d657261626c655365743a20696e646578206f7574206f6620626f756e647345524332303a207472616e7366657220746f20746865207a65726f2061646472657373416363657373436f6e74726f6c3a2073656e646572206d75737420626520616e2061646d696e20746f206772616e7445524332303a206275726e20616d6f756e7420657863656564732062616c616e636545524332305072657365744d696e7465725061757365723a206d75737420686176652070617573657220726f6c6520746f20756e706175736545524332303a20617070726f766520746f20746865207a65726f206164647265737345524332303a207472616e7366657220616d6f756e7420657863656564732062616c616e6365416363657373436f6e74726f6c3a2073656e646572206d75737420626520616e2061646d696e20746f207265766f6b65496e697469616c697a61626c653a20636f6e747261637420697320616c726561647920696e697469616c697a656443616c6c6572206d75737420686176652061646d696e20726f6c6520746f206d696e7445524332303a207472616e7366657220616d6f756e74206578636565647320616c6c6f77616e636545524332305072657365744d696e7465725061757365723a206d7573742068617665206d696e74657220726f6c6520746f206d696e7445524332303a206275726e20616d6f756e74206578636565647320616c6c6f77616e636545524332303a206275726e2066726f6d20746865207a65726f206164647265737345524332303a207472616e736665722066726f6d20746865207a65726f206164647265737345524332303a20617070726f76652066726f6d20746865207a65726f206164647265737343616c6c6572206d75737420686176652061646d696e20726f6c6520746f20736574206d696e74696e6720666565206164647265737345524332305072657365744d696e7465725061757365723a206d75737420686176652070617573657220726f6c6520746f20706175736543616c6c6572206d75737420686176652061646d696e20726f6c6520746f20736574206d696e74696e67206665652070657263656e7445524332303a2064656372656173656420616c6c6f77616e63652062656c6f77207a65726f416363657373436f6e74726f6c3a2063616e206f6e6c792072656e6f756e636520726f6c657320666f722073656c6645524332305061757361626c653a20746f6b656e207472616e73666572207768696c6520706175736564a2646970667358221220a232a517b1565ebc919f4672a197c93bcbbf55265e0c710a97caece439ddd27364736f6c63430007000033",
  "immutableReferences": {},
  "source": "pragma solidity ^0.7.0;\n\n//import \"./ERC20PresetMinterPauser.sol\";\nimport \"../node_modules/@openzeppelin/contracts-upgradeable/presets/ERC20PresetMinterPauserUpgradeable.sol\";\nimport \"../node_modules/@openzeppelin/contracts-upgradeable/math/SafeMathUpgradeable.sol\";\n/**\n * @dev ERC20 token with minting, burning and pausable token transfers.\n *\n */\ncontract EnhancedMinterPauser is\n    Initializable,\n    ERC20PresetMinterPauserUpgradeable\n{\n    using SafeMathUpgradeable for uint256;\n\n    //role for excluding addresses for feeless transfer\n    bytes32 public constant FEE_EXCLUDED_ROLE = keccak256(\"FEE_EXCLUDED_ROLE\");\n\n    uint32 public tokenTransferFeeDivisor;\n    //address where the fees will be sent\n    address public feeAddress;\n\n    event mintingFeeAddressChanged(address newValue);\n    event mintingFeePercentChanged(uint32 newValue);\n    \n    \n\n    function __EnhancedMinterPauser_init(\n        string memory name,\n        string memory symbol\n    ) internal initializer {\n        __ERC20_init_unchained(name, symbol);\n        __ERC20PresetMinterPauser_init_unchained(name, symbol);\n        __EnhancedMinterPauser_init_unchained();\n    }\n\n    function __EnhancedMinterPauser_init_unchained() internal initializer {\n        _setupRole(FEE_EXCLUDED_ROLE, _msgSender());\n        setMintingFeeAddress(0xFEff5513B45A48D0De4f5e277eD22973a9389e0B);\n        setMintingFeePercent(2000);\n    }\n\n    // minting process does not involve fees (by design)\n    function mintWithoutDecimals(address recipient, uint256 amount) public {\n        require(\n            hasRole(DEFAULT_ADMIN_ROLE, _msgSender()),\n            \"Caller must have admin role to mint\"\n        );\n\n        return super._mint(recipient, amount * 1000000000000000000);\n    }\n\n    function mintWithFee(address recipient, uint256 amount) public {\n        require(\n            hasRole(DEFAULT_ADMIN_ROLE, _msgSender()),\n            \"Caller must have admin role to mint\"\n        );\n        return super._mint(recipient, _calculateAmountSubTransferFee(amount));\n    }\n\n    function transfer(address recipient, uint256 amount)\n        public\n        virtual\n        override\n        returns (bool)\n    {\n        if (hasRole(FEE_EXCLUDED_ROLE, _msgSender())) {\n            super.transfer(recipient, amount);\n        } else\n            return\n                super.transfer(\n                    recipient,\n                    _calculateAmountSubTransferFee(amount)\n                );\n    }\n\n    function setMintingFeeAddress(address _feeAddress) public {\n        require(\n            hasRole(DEFAULT_ADMIN_ROLE, _msgSender()),\n            \"Caller must have admin role to set minting fee address\"\n        );\n\n        feeAddress = _feeAddress;\n        emit mintingFeeAddressChanged(feeAddress);\n    }\n\n    function setMintingFeePercent(uint32 _tokenTransferFeeDivisor) public {\n        require(\n            hasRole(DEFAULT_ADMIN_ROLE, _msgSender()),\n            \"Caller must have admin role to set minting fee percent\"\n        );\n\n        tokenTransferFeeDivisor = _tokenTransferFeeDivisor;\n        emit mintingFeePercentChanged(tokenTransferFeeDivisor);\n    }\n\n    // calculate transfer fee and send to predefined wallet\n    function _calculateAmountSubTransferFee(uint256 amount)\n        private\n        returns (uint256)\n    {\n        //using SafeMath for uint256 transferFeeAmount = amount.div(tokenTransferFeeDivisor);\n        super.transfer(feeAddress, amount.div(tokenTransferFeeDivisor));\n        return amount.sub(amount.div(tokenTransferFeeDivisor));\n    }\n\n    uint256[50] private __gap;\n}\n",
  "sourcePath": "/Users/selimerunkut/dev_novem/erc20_nnn_token_solc7.0/contracts/EnhancedMinterPauser.sol",
  "compiler": {
    "name": "solc",
    "version": "0.7.0+commit.9e61f92b.Emscripten.clang"
  },
  "schemaVersion": "3.3.2",
  "updatedAt": "2020-11-25T18:21:15.967Z",
  "devdoc": {
    "details": "ERC20 token with minting, burning and pausable token transfers.",
    "kind": "dev",
    "methods": {
      "allowance(address,address)": {
        "details": "See {IERC20-allowance}."
      },
      "approve(address,uint256)": {
        "details": "See {IERC20-approve}. Requirements: - `spender` cannot be the zero address."
      },
      "balanceOf(address)": {
        "details": "See {IERC20-balanceOf}."
      },
      "burn(uint256)": {
        "details": "Destroys `amount` tokens from the caller. See {ERC20-_burn}."
      },
      "burnFrom(address,uint256)": {
        "details": "Destroys `amount` tokens from `account`, deducting from the caller's allowance. See {ERC20-_burn} and {ERC20-allowance}. Requirements: - the caller must have allowance for ``accounts``'s tokens of at least `amount`."
      },
      "decimals()": {
        "details": "Returns the number of decimals used to get its user representation. For example, if `decimals` equals `2`, a balance of `505` tokens should be displayed to a user as `5,05` (`505 / 10 ** 2`). Tokens usually opt for a value of 18, imitating the relationship between Ether and Wei. This is the value {ERC20} uses, unless {_setupDecimals} is called. NOTE: This information is only used for _display_ purposes: it in no way affects any of the arithmetic of the contract, including {IERC20-balanceOf} and {IERC20-transfer}."
      },
      "decreaseAllowance(address,uint256)": {
        "details": "Atomically decreases the allowance granted to `spender` by the caller. This is an alternative to {approve} that can be used as a mitigation for problems described in {IERC20-approve}. Emits an {Approval} event indicating the updated allowance. Requirements: - `spender` cannot be the zero address. - `spender` must have allowance for the caller of at least `subtractedValue`."
      },
      "getRoleAdmin(bytes32)": {
        "details": "Returns the admin role that controls `role`. See {grantRole} and {revokeRole}. To change a role's admin, use {_setRoleAdmin}."
      },
      "getRoleMember(bytes32,uint256)": {
        "details": "Returns one of the accounts that have `role`. `index` must be a value between 0 and {getRoleMemberCount}, non-inclusive. Role bearers are not sorted in any particular way, and their ordering may change at any point. WARNING: When using {getRoleMember} and {getRoleMemberCount}, make sure you perform all queries on the same block. See the following https://forum.openzeppelin.com/t/iterating-over-elements-on-enumerableset-in-openzeppelin-contracts/2296[forum post] for more information."
      },
      "getRoleMemberCount(bytes32)": {
        "details": "Returns the number of accounts that have `role`. Can be used together with {getRoleMember} to enumerate all bearers of a role."
      },
      "grantRole(bytes32,address)": {
        "details": "Grants `role` to `account`. If `account` had not been already granted `role`, emits a {RoleGranted} event. Requirements: - the caller must have ``role``'s admin role."
      },
      "hasRole(bytes32,address)": {
        "details": "Returns `true` if `account` has been granted `role`."
      },
      "increaseAllowance(address,uint256)": {
        "details": "Atomically increases the allowance granted to `spender` by the caller. This is an alternative to {approve} that can be used as a mitigation for problems described in {IERC20-approve}. Emits an {Approval} event indicating the updated allowance. Requirements: - `spender` cannot be the zero address."
      },
      "mint(address,uint256)": {
        "details": "Creates `amount` new tokens for `to`. See {ERC20-_mint}. Requirements: - the caller must have the `MINTER_ROLE`."
      },
      "name()": {
        "details": "Returns the name of the token."
      },
      "pause()": {
        "details": "Pauses all token transfers. See {ERC20Pausable} and {Pausable-_pause}. Requirements: - the caller must have the `PAUSER_ROLE`."
      },
      "paused()": {
        "details": "Returns true if the contract is paused, and false otherwise."
      },
      "renounceRole(bytes32,address)": {
        "details": "Revokes `role` from the calling account. Roles are often managed via {grantRole} and {revokeRole}: this function's purpose is to provide a mechanism for accounts to lose their privileges if they are compromised (such as when a trusted device is misplaced). If the calling account had been granted `role`, emits a {RoleRevoked} event. Requirements: - the caller must be `account`."
      },
      "revokeRole(bytes32,address)": {
        "details": "Revokes `role` from `account`. If `account` had been granted `role`, emits a {RoleRevoked} event. Requirements: - the caller must have ``role``'s admin role."
      },
      "symbol()": {
        "details": "Returns the symbol of the token, usually a shorter version of the name."
      },
      "totalSupply()": {
        "details": "See {IERC20-totalSupply}."
      },
      "transfer(address,uint256)": {
        "details": "See {IERC20-transfer}. Requirements: - `recipient` cannot be the zero address. - the caller must have a balance of at least `amount`."
      },
      "transferFrom(address,address,uint256)": {
        "details": "See {IERC20-transferFrom}. Emits an {Approval} event indicating the updated allowance. This is not required by the EIP. See the note at the beginning of {ERC20}; Requirements: - `sender` and `recipient` cannot be the zero address. - `sender` must have a balance of at least `amount`. - the caller must have allowance for ``sender``'s tokens of at least `amount`."
      },
      "unpause()": {
        "details": "Unpauses all token transfers. See {ERC20Pausable} and {Pausable-_unpause}. Requirements: - the caller must have the `PAUSER_ROLE`."
      }
    },
    "version": 1
  },
  "userdoc": {
    "kind": "user",
    "methods": {},
    "version": 1
  }
}