{
  "contractName": "NNNToken",
  "abi": [
    {
      "anonymous": false,
      "inputs": [
        {
          "indexed": true,
          "internalType": "address",
          "name": "owner",
          "type": "address"
        },
        {
          "indexed": true,
          "internalType": "address",
          "name": "spender",
          "type": "address"
        },
        {
          "indexed": false,
          "internalType": "uint256",
          "name": "value",
          "type": "uint256"
        }
      ],
      "name": "Approval",
      "type": "event"
    },
    {
      "anonymous": false,
      "inputs": [
        {
          "indexed": false,
          "internalType": "address",
          "name": "account",
          "type": "address"
        }
      ],
      "name": "Paused",
      "type": "event"
    },
    {
      "anonymous": false,
      "inputs": [
        {
          "indexed": true,
          "internalType": "bytes32",
          "name": "role",
          "type": "bytes32"
        },
        {
          "indexed": true,
          "internalType": "bytes32",
          "name": "previousAdminRole",
          "type": "bytes32"
        },
        {
          "indexed": true,
          "internalType": "bytes32",
          "name": "newAdminRole",
          "type": "bytes32"
        }
      ],
      "name": "RoleAdminChanged",
      "type": "event"
    },
    {
      "anonymous": false,
      "inputs": [
        {
          "indexed": true,
          "internalType": "bytes32",
          "name": "role",
          "type": "bytes32"
        },
        {
          "indexed": true,
          "internalType": "address",
          "name": "account",
          "type": "address"
        },
        {
          "indexed": true,
          "internalType": "address",
          "name": "sender",
          "type": "address"
        }
      ],
      "name": "RoleGranted",
      "type": "event"
    },
    {
      "anonymous": false,
      "inputs": [
        {
          "indexed": true,
          "internalType": "bytes32",
          "name": "role",
          "type": "bytes32"
        },
        {
          "indexed": true,
          "internalType": "address",
          "name": "account",
          "type": "address"
        },
        {
          "indexed": true,
          "internalType": "address",
          "name": "sender",
          "type": "address"
        }
      ],
      "name": "RoleRevoked",
      "type": "event"
    },
    {
      "anonymous": false,
      "inputs": [
        {
          "indexed": true,
          "internalType": "address",
          "name": "from",
          "type": "address"
        },
        {
          "indexed": true,
          "internalType": "address",
          "name": "to",
          "type": "address"
        },
        {
          "indexed": false,
          "internalType": "uint256",
          "name": "value",
          "type": "uint256"
        }
      ],
      "name": "Transfer",
      "type": "event"
    },
    {
      "anonymous": false,
      "inputs": [
        {
          "indexed": false,
          "internalType": "address",
          "name": "account",
          "type": "address"
        }
      ],
      "name": "Unpaused",
      "type": "event"
    },
    {
      "anonymous": false,
      "inputs": [
        {
          "indexed": false,
          "internalType": "address",
          "name": "newValue",
          "type": "address"
        }
      ],
      "name": "mintingFeeAddressChanged",
      "type": "event"
    },
    {
      "anonymous": false,
      "inputs": [
        {
          "indexed": false,
          "internalType": "uint32",
          "name": "newValue",
          "type": "uint32"
        }
      ],
      "name": "mintingFeePercentChanged",
      "type": "event"
    },
    {
      "inputs": [],
      "name": "DEFAULT_ADMIN_ROLE",
      "outputs": [
        {
          "internalType": "bytes32",
          "name": "",
          "type": "bytes32"
        }
      ],
      "stateMutability": "view",
      "type": "function"
    },
    {
      "inputs": [],
      "name": "FEE_EXCLUDED_ROLE",
      "outputs": [
        {
          "internalType": "bytes32",
          "name": "",
          "type": "bytes32"
        }
      ],
      "stateMutability": "view",
      "type": "function"
    },
    {
      "inputs": [],
      "name": "MINTER_ROLE",
      "outputs": [
        {
          "internalType": "bytes32",
          "name": "",
          "type": "bytes32"
        }
      ],
      "stateMutability": "view",
      "type": "function"
    },
    {
      "inputs": [],
      "name": "PAUSER_ROLE",
      "outputs": [
        {
          "internalType": "bytes32",
          "name": "",
          "type": "bytes32"
        }
      ],
      "stateMutability": "view",
      "type": "function"
    },
    {
      "inputs": [
        {
          "internalType": "address",
          "name": "owner",
          "type": "address"
        },
        {
          "internalType": "address",
          "name": "spender",
          "type": "address"
        }
      ],
      "name": "allowance",
      "outputs": [
        {
          "internalType": "uint256",
          "name": "",
          "type": "uint256"
        }
      ],
      "stateMutability": "view",
      "type": "function"
    },
    {
      "inputs": [
        {
          "internalType": "address",
          "name": "spender",
          "type": "address"
        },
        {
          "internalType": "uint256",
          "name": "amount",
          "type": "uint256"
        }
      ],
      "name": "approve",
      "outputs": [
        {
          "internalType": "bool",
          "name": "",
          "type": "bool"
        }
      ],
      "stateMutability": "nonpayable",
      "type": "function"
    },
    {
      "inputs": [
        {
          "internalType": "address",
          "name": "account",
          "type": "address"
        }
      ],
      "name": "balanceOf",
      "outputs": [
        {
          "internalType": "uint256",
          "name": "",
          "type": "uint256"
        }
      ],
      "stateMutability": "view",
      "type": "function"
    },
    {
      "inputs": [
        {
          "internalType": "uint256",
          "name": "amount",
          "type": "uint256"
        }
      ],
      "name": "burn",
      "outputs": [],
      "stateMutability": "nonpayable",
      "type": "function"
    },
    {
      "inputs": [
        {
          "internalType": "address",
          "name": "account",
          "type": "address"
        },
        {
          "internalType": "uint256",
          "name": "amount",
          "type": "uint256"
        }
      ],
      "name": "burnFrom",
      "outputs": [],
      "stateMutability": "nonpayable",
      "type": "function"
    },
    {
      "inputs": [],
      "name": "decimals",
      "outputs": [
        {
          "internalType": "uint8",
          "name": "",
          "type": "uint8"
        }
      ],
      "stateMutability": "view",
      "type": "function"
    },
    {
      "inputs": [
        {
          "internalType": "address",
          "name": "spender",
          "type": "address"
        },
        {
          "internalType": "uint256",
          "name": "subtractedValue",
          "type": "uint256"
        }
      ],
      "name": "decreaseAllowance",
      "outputs": [
        {
          "internalType": "bool",
          "name": "",
          "type": "bool"
        }
      ],
      "stateMutability": "nonpayable",
      "type": "function"
    },
    {
      "inputs": [],
      "name": "feeAddress",
      "outputs": [
        {
          "internalType": "address",
          "name": "",
          "type": "address"
        }
      ],
      "stateMutability": "view",
      "type": "function"
    },
    {
      "inputs": [
        {
          "internalType": "bytes32",
          "name": "role",
          "type": "bytes32"
        }
      ],
      "name": "getRoleAdmin",
      "outputs": [
        {
          "internalType": "bytes32",
          "name": "",
          "type": "bytes32"
        }
      ],
      "stateMutability": "view",
      "type": "function"
    },
    {
      "inputs": [
        {
          "internalType": "bytes32",
          "name": "role",
          "type": "bytes32"
        },
        {
          "internalType": "uint256",
          "name": "index",
          "type": "uint256"
        }
      ],
      "name": "getRoleMember",
      "outputs": [
        {
          "internalType": "address",
          "name": "",
          "type": "address"
        }
      ],
      "stateMutability": "view",
      "type": "function"
    },
    {
      "inputs": [
        {
          "internalType": "bytes32",
          "name": "role",
          "type": "bytes32"
        }
      ],
      "name": "getRoleMemberCount",
      "outputs": [
        {
          "internalType": "uint256",
          "name": "",
          "type": "uint256"
        }
      ],
      "stateMutability": "view",
      "type": "function"
    },
    {
      "inputs": [
        {
          "internalType": "bytes32",
          "name": "role",
          "type": "bytes32"
        },
        {
          "internalType": "address",
          "name": "account",
          "type": "address"
        }
      ],
      "name": "grantRole",
      "outputs": [],
      "stateMutability": "nonpayable",
      "type": "function"
    },
    {
      "inputs": [
        {
          "internalType": "bytes32",
          "name": "role",
          "type": "bytes32"
        },
        {
          "internalType": "address",
          "name": "account",
          "type": "address"
        }
      ],
      "name": "hasRole",
      "outputs": [
        {
          "internalType": "bool",
          "name": "",
          "type": "bool"
        }
      ],
      "stateMutability": "view",
      "type": "function"
    },
    {
      "inputs": [
        {
          "internalType": "address",
          "name": "spender",
          "type": "address"
        },
        {
          "internalType": "uint256",
          "name": "addedValue",
          "type": "uint256"
        }
      ],
      "name": "increaseAllowance",
      "outputs": [
        {
          "internalType": "bool",
          "name": "",
          "type": "bool"
        }
      ],
      "stateMutability": "nonpayable",
      "type": "function"
    },
    {
      "inputs": [
        {
          "internalType": "string",
          "name": "name",
          "type": "string"
        },
        {
          "internalType": "string",
          "name": "symbol",
          "type": "string"
        }
      ],
      "name": "initialize",
      "outputs": [],
      "stateMutability": "nonpayable",
      "type": "function"
    },
    {
      "inputs": [
        {
          "internalType": "address",
          "name": "to",
          "type": "address"
        },
        {
          "internalType": "uint256",
          "name": "amount",
          "type": "uint256"
        }
      ],
      "name": "mint",
      "outputs": [],
      "stateMutability": "nonpayable",
      "type": "function"
    },
    {
      "inputs": [
        {
          "internalType": "address",
          "name": "recipient",
          "type": "address"
        },
        {
          "internalType": "uint256",
          "name": "amount",
          "type": "uint256"
        }
      ],
      "name": "mintWithFee",
      "outputs": [],
      "stateMutability": "nonpayable",
      "type": "function"
    },
    {
      "inputs": [
        {
          "internalType": "address",
          "name": "recipient",
          "type": "address"
        },
        {
          "internalType": "uint256",
          "name": "amount",
          "type": "uint256"
        }
      ],
      "name": "mintWithoutDecimals",
      "outputs": [],
      "stateMutability": "nonpayable",
      "type": "function"
    },
    {
      "inputs": [],
      "name": "name",
      "outputs": [
        {
          "internalType": "string",
          "name": "",
          "type": "string"
        }
      ],
      "stateMutability": "view",
      "type": "function"
    },
    {
      "inputs": [],
      "name": "pause",
      "outputs": [],
      "stateMutability": "nonpayable",
      "type": "function"
    },
    {
      "inputs": [],
      "name": "paused",
      "outputs": [
        {
          "internalType": "bool",
          "name": "",
          "type": "bool"
        }
      ],
      "stateMutability": "view",
      "type": "function"
    },
    {
      "inputs": [
        {
          "internalType": "bytes32",
          "name": "role",
          "type": "bytes32"
        },
        {
          "internalType": "address",
          "name": "account",
          "type": "address"
        }
      ],
      "name": "renounceRole",
      "outputs": [],
      "stateMutability": "nonpayable",
      "type": "function"
    },
    {
      "inputs": [
        {
          "internalType": "bytes32",
          "name": "role",
          "type": "bytes32"
        },
        {
          "internalType": "address",
          "name": "account",
          "type": "address"
        }
      ],
      "name": "revokeRole",
      "outputs": [],
      "stateMutability": "nonpayable",
      "type": "function"
    },
    {
      "inputs": [
        {
          "internalType": "address",
          "name": "_feeAddress",
          "type": "address"
        }
      ],
      "name": "setMintingFeeAddress",
      "outputs": [],
      "stateMutability": "nonpayable",
      "type": "function"
    },
    {
      "inputs": [
        {
          "internalType": "uint32",
          "name": "_tokenTransferFeeDivisor",
          "type": "uint32"
        }
      ],
      "name": "setTransferFeeDivisor",
      "outputs": [],
      "stateMutability": "nonpayable",
      "type": "function"
    },
    {
      "inputs": [],
      "name": "symbol",
      "outputs": [
        {
          "internalType": "string",
          "name": "",
          "type": "string"
        }
      ],
      "stateMutability": "view",
      "type": "function"
    },
    {
      "inputs": [],
      "name": "tokenTransferFeeDivisor",
      "outputs": [
        {
          "internalType": "uint32",
          "name": "",
          "type": "uint32"
        }
      ],
      "stateMutability": "view",
      "type": "function"
    },
    {
      "inputs": [],
      "name": "totalSupply",
      "outputs": [
        {
          "internalType": "uint256",
          "name": "",
          "type": "uint256"
        }
      ],
      "stateMutability": "view",
      "type": "function"
    },
    {
      "inputs": [
        {
          "internalType": "address",
          "name": "recipient",
          "type": "address"
        },
        {
          "internalType": "uint256",
          "name": "amount",
          "type": "uint256"
        }
      ],
      "name": "transfer",
      "outputs": [
        {
          "internalType": "bool",
          "name": "",
          "type": "bool"
        }
      ],
      "stateMutability": "nonpayable",
      "type": "function"
    },
    {
      "inputs": [
        {
          "internalType": "address",
          "name": "sender",
          "type": "address"
        },
        {
          "internalType": "address",
          "name": "recipient",
          "type": "address"
        },
        {
          "internalType": "uint256",
          "name": "amount",
          "type": "uint256"
        }
      ],
      "name": "transferFrom",
      "outputs": [
        {
          "internalType": "bool",
          "name": "",
          "type": "bool"
        }
      ],
      "stateMutability": "nonpayable",
      "type": "function"
    },
    {
      "inputs": [],
      "name": "unpause",
      "outputs": [],
      "stateMutability": "nonpayable",
      "type": "function"
    },
    {
      "inputs": [
        {
          "internalType": "string",
          "name": "name",
          "type": "string"
        },
        {
          "internalType": "string",
          "name": "symbol",
          "type": "string"
        }
      ],
      "name": "__initialize",
      "outputs": [],
      "stateMutability": "nonpayable",
      "type": "function"
    }
  ],
  "bytecode": "0x608060405234801561001057600080fd5b5061284f806100206000396000f3fe608060405234801561001057600080fd5b506004361061025c5760003560e01c80635c975abb11610145578063a217fddf116100bd578063ca15c8731161008c578063d547741f11610071578063d547741f14610906578063dd62ed3e14610932578063e63ab1e9146109605761025c565b8063ca15c873146108e1578063d5391393146108fe5761025c565b8063a217fddf1461085b578063a457c2d714610863578063a9059cbb1461088f578063ae1cb380146108bb5761025c565b806381170e24116101145780639010d07c116100f95780639010d07c1461080457806391d148541461082757806395d89b41146108535761025c565b806381170e24146106cf5780638456cb59146107fc5761025c565b80635c975abb146106495780635d520e641461065157806370a082311461067d57806379cc6790146106a35761025c565b806336568abe116101d857806341275358116101a757806349178ad51161018c57806349178ad5146104cd5780634cd88b76146104f05780634e01b0d01461061d5761025c565b8063412753581461048c57806342966c68146104b05761025c565b806336568abe14610400578063395093511461042c5780633f4ba83a1461045857806340c10f19146104605761025c565b806323b872dd1161022f5780632dd8175a116102145780632dd8175a146103ac5780632f2ff15d146103b4578063313ce567146103e25761025c565b806323b872dd14610359578063248a9ca31461038f5761025c565b806306fdde0314610261578063095ea7b3146102de5780631804cb041461031e57806318160ddd1461033f575b600080fd5b610269610968565b6040805160208082528351818301528351919283929083019185019080838360005b838110156102a357818101518382015260200161028b565b50505050905090810190601f1680156102d05780820380516001836020036101000a031916815260200191505b509250505060405180910390f35b61030a600480360360408110156102f457600080fd5b506001600160a01b0381351690602001356109fe565b604080519115158252519081900360200190f35b610326610a1c565b6040805163ffffffff9092168252519081900360200190f35b610347610a29565b60408051918252519081900360200190f35b61030a6004803603606081101561036f57600080fd5b506001600160a01b03813581169160208101359091169060400135610a2f565b610347600480360360208110156103a557600080fd5b5035610ab6565b610347610acb565b6103e0600480360360408110156103ca57600080fd5b50803590602001356001600160a01b0316610aef565b005b6103ea610b5b565b6040805160ff9092168252519081900360200190f35b6103e06004803603604081101561041657600080fd5b50803590602001356001600160a01b0316610b64565b61030a6004803603604081101561044257600080fd5b506001600160a01b038135169060200135610bc5565b6103e0610c13565b6103e06004803603604081101561047657600080fd5b506001600160a01b038135169060200135610c84565b610494610cf5565b604080516001600160a01b039092168252519081900360200190f35b6103e0600480360360208110156104c657600080fd5b5035610d0d565b6103e0600480360360208110156104e357600080fd5b503563ffffffff16610d21565b6103e06004803603604081101561050657600080fd5b81019060208101813564010000000081111561052157600080fd5b82018360208201111561053357600080fd5b8035906020019184600183028401116401000000008311171561055557600080fd5b91908080601f01602080910402602001604051908101604052809392919081815260200183838082843760009201919091525092959493602081019350359150506401000000008111156105a857600080fd5b8201836020820111156105ba57600080fd5b803590602001918460018302840111640100000000831117156105dc57600080fd5b91908080601f016020809104026020016040519081016040528093929190818152602001838380828437600092019190915250929550610e03945050505050565b6103e06004803603604081101561063357600080fd5b506001600160a01b038135169060200135610eb1565b61030a610f0d565b6103e06004803603604081101561066757600080fd5b506001600160a01b038135169060200135610f16565b6103476004803603602081101561069357600080fd5b50356001600160a01b0316610f70565b6103e0600480360360408110156106b957600080fd5b506001600160a01b038135169060200135610f8b565b6103e0600480360360408110156106e557600080fd5b81019060208101813564010000000081111561070057600080fd5b82018360208201111561071257600080fd5b8035906020019184600183028401116401000000008311171561073457600080fd5b91908080601f016020809104026020016040519081016040528093929190818152602001838380828437600092019190915250929594936020810193503591505064010000000081111561078757600080fd5b82018360208201111561079957600080fd5b803590602001918460018302840111640100000000831117156107bb57600080fd5b91908080601f016020809104026020016040519081016040528093929190818152602001838380828437600092019190915250929550610fe0945050505050565b6103e0611089565b6104946004803603604081101561081a57600080fd5b50803590602001356110f8565b61030a6004803603604081101561083d57600080fd5b50803590602001356001600160a01b0316611117565b61026961112f565b610347611190565b61030a6004803603604081101561087957600080fd5b506001600160a01b038135169060200135611195565b61030a600480360360408110156108a557600080fd5b506001600160a01b0381351690602001356111fd565b6103e0600480360360208110156108d157600080fd5b50356001600160a01b0316611253565b610347600480360360208110156108f757600080fd5b503561131a565b610347611331565b6103e06004803603604081101561091c57600080fd5b50803590602001356001600160a01b0316611355565b6103476004803603604081101561094857600080fd5b506001600160a01b03813581169160200135166113ae565b6103476113d9565b60688054604080516020601f60026000196101006001881615020190951694909404938401819004810282018101909252828152606093909290918301828280156109f45780601f106109c9576101008083540402835291602001916109f4565b820191906000526020600020905b8154815290600101906020018083116109d757829003601f168201915b5050505050905090565b6000610a12610a0b6113fd565b8484611401565b5060015b92915050565b61015f5463ffffffff1681565b60675490565b6000610a3c8484846114ed565b610aac84610a486113fd565b610aa78560405180606001604052806028815260200161260d602891396001600160a01b038a16600090815260666020526040812090610a866113fd565b6001600160a01b03168152602081019190915260400160002054919061164a565b611401565b5060019392505050565b60009081526033602052604090206002015490565b7fbcaa5c4620c62b2fedc77ef4fe401724814aeef811d907416a737179a85b1ab281565b600082815260336020526040902060020154610b1290610b0d6113fd565b611117565b610b4d5760405162461bcd60e51b815260040180806020018281038252602f815260200180612489602f913960400191505060405180910390fd5b610b5782826116e1565b5050565b606a5460ff1690565b610b6c6113fd565b6001600160a01b0316816001600160a01b031614610bbb5760405162461bcd60e51b815260040180806020018281038252602f8152602001806127c1602f913960400191505060405180910390fd5b610b57828261174a565b6000610a12610bd26113fd565b84610aa78560666000610be36113fd565b6001600160a01b03908116825260208083019390935260409182016000908120918c1681529252902054906117b3565b610c3f7f65d7a28e3265b37a6474929f336521b332c1681b933f6cb9f3376673440d862a610b0d6113fd565b610c7a5760405162461bcd60e51b815260040180806020018281038252603981526020018061250b6039913960400191505060405180910390fd5b610c8261180d565b565b610cb07f9f2df0fed2c77648de5860a4cc508cd0818c85b8b8a1ab4ceeef8d981c8956a6610b0d6113fd565b610ceb5760405162461bcd60e51b81526004018080602001828103825260368152602001806126356036913960400191505060405180910390fd5b610b5782826118b4565b61015f5464010000000090046001600160a01b031681565b610d1e610d186113fd565b826119a6565b50565b610d2e6000610b0d6113fd565b610d695760405162461bcd60e51b81526004018080602001828103825260368152602001806127666036913960400191505060405180910390fd5b60008163ffffffff1611610dae5760405162461bcd60e51b81526004018080602001828103825260318152602001806124b86031913960400191505060405180910390fd5b61015f805463ffffffff191663ffffffff838116919091179182905560408051929091168252517fb4fb343f6573d5bcc1c7ab700665911f5ed2699ecfc6a7d1b1af8405409b22ec916020908290030190a150565b600054610100900460ff1680610e1c5750610e1c611aa2565b80610e2a575060005460ff16155b610e655760405162461bcd60e51b815260040180806020018281038252602e8152602001806125bc602e913960400191505060405180910390fd5b600054610100900460ff16158015610e90576000805460ff1961ff0019909116610100171660011790555b610e9a8383611aa8565b8015610eac576000805461ff00191690555b505050565b610ebe6000610b0d6113fd565b610ef95760405162461bcd60e51b81526004018080602001828103825260238152602001806125ea6023913960400191505060405180910390fd5b610b578282670de0b6b3a7640000026118b4565b60c95460ff1690565b610f236000610b0d6113fd565b610f5e5760405162461bcd60e51b81526004018080602001828103825260238152602001806125ea6023913960400191505060405180910390fd5b610b5782610f6b83611b71565b6118b4565b6001600160a01b031660009081526065602052604090205490565b6000610fc28260405180606001604052806024815260200161266b60249139610fbb86610fb66113fd565b6113ae565b919061164a565b9050610fd683610fd06113fd565b83611401565b610eac83836119a6565b600054610100900460ff1680610ff95750610ff9611aa2565b80611007575060005460ff16155b6110425760405162461bcd60e51b815260040180806020018281038252602e8152602001806125bc602e913960400191505060405180910390fd5b600054610100900460ff1615801561106d576000805460ff1961ff0019909116610100171660011790555b6110778383611bc8565b6110818383611ca0565b610e9a611d97565b6110b57f65d7a28e3265b37a6474929f336521b332c1681b933f6cb9f3376673440d862a610b0d6113fd565b6110f05760405162461bcd60e51b815260040180806020018281038252603781526020018061272f6037913960400191505060405180910390fd5b610c82611e8c565b60008281526033602052604081206111109083611f1a565b9392505050565b60008281526033602052604081206111109083611f26565b60698054604080516020601f60026000196101006001881615020190951694909404938401819004810282018101909252828152606093909290918301828280156109f45780601f106109c9576101008083540402835291602001916109f4565b600081565b6000610a126111a26113fd565b84610aa78560405180606001604052806025815260200161279c60259139606660006111cc6113fd565b6001600160a01b03908116825260208083019390935260409182016000908120918d1681529252902054919061164a565b600061122b7fbcaa5c4620c62b2fedc77ef4fe401724814aeef811d907416a737179a85b1ab2610b0d6113fd565b156112415761123a8383611f3b565b9050610a16565b61123a8361124e84611b71565b611f3b565b6112606000610b0d6113fd565b61129b5760405162461bcd60e51b81526004018080602001828103825260368152602001806126f96036913960400191505060405180910390fd5b61015f80546001600160a01b038084166401000000009081027fffffffffffffffff0000000000000000000000000000000000000000ffffffff9093169290921792839055604080519290930416815290517f6eea80b7608c97ee92c02a7c9e1b5f0373c4902a84a9b06c5f96072b2ebc6e739181900360200190a150565b6000818152603360205260408120610a1690611f4f565b7f9f2df0fed2c77648de5860a4cc508cd0818c85b8b8a1ab4ceeef8d981c8956a681565b60008281526033602052604090206002015461137390610b0d6113fd565b610bbb5760405162461bcd60e51b815260040180806020018281038252603081526020018061258c6030913960400191505060405180910390fd5b6001600160a01b03918216600090815260666020908152604080832093909416825291909152205490565b7f65d7a28e3265b37a6474929f336521b332c1681b933f6cb9f3376673440d862a81565b3390565b6001600160a01b0383166114465760405162461bcd60e51b81526004018080602001828103825260248152602001806126d56024913960400191505060405180910390fd5b6001600160a01b03821661148b5760405162461bcd60e51b81526004018080602001828103825260228152602001806125446022913960400191505060405180910390fd5b6001600160a01b03808416600081815260666020908152604080832094871680845294825291829020859055815185815291517f8c5be1e5ebec7d5bd14f71427d1e84f3dd0314c0f7b2291e5b200ac8c7c3b9259281900390910190a3505050565b6001600160a01b0383166115325760405162461bcd60e51b81526004018080602001828103825260258152602001806126b06025913960400191505060405180910390fd5b6001600160a01b0382166115775760405162461bcd60e51b81526004018080602001828103825260238152602001806124666023913960400191505060405180910390fd5b611582838383611f5a565b6115bf81604051806060016040528060268152602001612566602691396001600160a01b038616600090815260656020526040902054919061164a565b6001600160a01b0380851660009081526065602052604080822093909355908416815220546115ee90826117b3565b6001600160a01b0380841660008181526065602090815260409182902094909455805185815290519193928716927fddf252ad1be2c89b69c2b068fc378daa952ba7f163c4a11628f55a4df523b3ef92918290030190a3505050565b600081848411156116d95760405162461bcd60e51b81526004018080602001828103825283818151815260200191508051906020019080838360005b8381101561169e578181015183820152602001611686565b50505050905090810190601f1680156116cb5780820380516001836020036101000a031916815260200191505b509250505060405180910390fd5b505050900390565b60008281526033602052604090206116f99082611f65565b15610b57576117066113fd565b6001600160a01b0316816001600160a01b0316837f2f8788117e7eff1d82e926ec794901d17c78024a50270940304540a733656f0d60405160405180910390a45050565b60008281526033602052604090206117629082611f7a565b15610b575761176f6113fd565b6001600160a01b0316816001600160a01b0316837ff6391f5c32d9c69d2a47ea670b442974b53935d1edc7fd64eb21e047a839171b60405160405180910390a45050565b600082820183811015611110576040805162461bcd60e51b815260206004820152601b60248201527f536166654d6174683a206164646974696f6e206f766572666c6f770000000000604482015290519081900360640190fd5b60c95460ff16611864576040805162461bcd60e51b815260206004820152601460248201527f5061757361626c653a206e6f7420706175736564000000000000000000000000604482015290519081900360640190fd5b60c9805460ff191690557f5db9ee0a495bf2e6ff9c91a7834c1ba4fdd244a5e8aa4e537bd38aeae4b073aa6118976113fd565b604080516001600160a01b039092168252519081900360200190a1565b6001600160a01b03821661190f576040805162461bcd60e51b815260206004820152601f60248201527f45524332303a206d696e7420746f20746865207a65726f206164647265737300604482015290519081900360640190fd5b61191b60008383611f5a565b60675461192890826117b3565b6067556001600160a01b03821660009081526065602052604090205461194e90826117b3565b6001600160a01b03831660008181526065602090815260408083209490945583518581529351929391927fddf252ad1be2c89b69c2b068fc378daa952ba7f163c4a11628f55a4df523b3ef9281900390910190a35050565b6001600160a01b0382166119eb5760405162461bcd60e51b815260040180806020018281038252602181526020018061268f6021913960400191505060405180910390fd5b6119f782600083611f5a565b611a34816040518060600160405280602281526020016124e9602291396001600160a01b038516600090815260656020526040902054919061164a565b6001600160a01b038316600090815260656020526040902055606754611a5a9082611f8f565b6067556040805182815290516000916001600160a01b038516917fddf252ad1be2c89b69c2b068fc378daa952ba7f163c4a11628f55a4df523b3ef9181900360200190a35050565b303b1590565b600054610100900460ff1680611ac15750611ac1611aa2565b80611acf575060005460ff16155b611b0a5760405162461bcd60e51b815260040180806020018281038252602e8152602001806125bc602e913960400191505060405180910390fd5b600054610100900460ff16158015611b35576000805460ff1961ff0019909116610100171660011790555b611b3d611fd1565b611b45611fd1565b611b4f8383611bc8565b611b57611fd1565b611b5f612071565b611b67611fd1565b610e9a8383611ca0565b61015f54600090611ba3906001600160a01b036401000000008204169061124e90859063ffffffff9081169061211c16565b5061015f54610a1690611bc190849063ffffffff9081169061211c16565b8390611f8f565b600054610100900460ff1680611be15750611be1611aa2565b80611bef575060005460ff16155b611c2a5760405162461bcd60e51b815260040180806020018281038252602e8152602001806125bc602e913960400191505060405180910390fd5b600054610100900460ff16158015611c55576000805460ff1961ff0019909116610100171660011790555b8251611c689060689060208601906123a2565b508151611c7c9060699060208501906123a2565b50606a805460ff191660121790558015610eac576000805461ff0019169055505050565b600054610100900460ff1680611cb95750611cb9611aa2565b80611cc7575060005460ff16155b611d025760405162461bcd60e51b815260040180806020018281038252602e8152602001806125bc602e913960400191505060405180910390fd5b600054610100900460ff16158015611d2d576000805460ff1961ff0019909116610100171660011790555b611d3f6000611d3a6113fd565b610b4d565b611d6b7f9f2df0fed2c77648de5860a4cc508cd0818c85b8b8a1ab4ceeef8d981c8956a6611d3a6113fd565b610e9a7f65d7a28e3265b37a6474929f336521b332c1681b933f6cb9f3376673440d862a611d3a6113fd565b600054610100900460ff1680611db05750611db0611aa2565b80611dbe575060005460ff16155b611df95760405162461bcd60e51b815260040180806020018281038252602e8152602001806125bc602e913960400191505060405180910390fd5b600054610100900460ff16158015611e24576000805460ff1961ff0019909116610100171660011790555b611e507fbcaa5c4620c62b2fedc77ef4fe401724814aeef811d907416a737179a85b1ab2611d3a6113fd565b611e6d73feff5513b45a48d0de4f5e277ed22973a9389e0b611253565b611e786107d0610d21565b8015610d1e576000805461ff001916905550565b60c95460ff1615611ee4576040805162461bcd60e51b815260206004820152601060248201527f5061757361626c653a2070617573656400000000000000000000000000000000604482015290519081900360640190fd5b60c9805460ff191660011790557f62e78cea01bee320cd4e420270b5ea74000d11b0c9f74754ebdbfc544b05a2586118976113fd565b6000611110838361215e565b6000611110836001600160a01b0384166121c2565b6000610a12611f486113fd565b84846114ed565b6000610a16826121da565b610eac8383836121de565b6000611110836001600160a01b03841661222d565b6000611110836001600160a01b038416612277565b600061111083836040518060400160405280601e81526020017f536166654d6174683a207375627472616374696f6e206f766572666c6f77000081525061164a565b600054610100900460ff1680611fea5750611fea611aa2565b80611ff8575060005460ff16155b6120335760405162461bcd60e51b815260040180806020018281038252602e8152602001806125bc602e913960400191505060405180910390fd5b600054610100900460ff16158015611e78576000805460ff1961ff0019909116610100171660011790558015610d1e576000805461ff001916905550565b600054610100900460ff168061208a575061208a611aa2565b80612098575060005460ff16155b6120d35760405162461bcd60e51b815260040180806020018281038252602e8152602001806125bc602e913960400191505060405180910390fd5b600054610100900460ff161580156120fe576000805460ff1961ff0019909116610100171660011790555b60c9805460ff191690558015610d1e576000805461ff001916905550565b600061111083836040518060400160405280601a81526020017f536166654d6174683a206469766973696f6e206279207a65726f00000000000081525061233d565b815460009082106121a05760405162461bcd60e51b81526004018080602001828103825260228152602001806124446022913960400191505060405180910390fd5b8260000182815481106121af57fe5b9060005260206000200154905092915050565b60009081526001919091016020526040902054151590565b5490565b6121e9838383610eac565b6121f1610f0d565b15610eac5760405162461bcd60e51b815260040180806020018281038252602a8152602001806127f0602a913960400191505060405180910390fd5b600061223983836121c2565b61226f57508154600181810184556000848152602080822090930184905584548482528286019093526040902091909155610a16565b506000610a16565b6000818152600183016020526040812054801561233357835460001980830191908101906000908790839081106122aa57fe5b90600052602060002001549050808760000184815481106122c757fe5b6000918252602080832090910192909255828152600189810190925260409020908401905586548790806122f757fe5b60019003818190600052602060002001600090559055866001016000878152602001908152602001600020600090556001945050505050610a16565b6000915050610a16565b6000818361238c5760405162461bcd60e51b815260206004820181815283516024840152835190928392604490910191908501908083836000831561169e578181015183820152602001611686565b50600083858161239857fe5b0495945050505050565b828054600181600116156101000203166002900490600052602060002090601f0160209004810192826123d8576000855561241e565b82601f106123f157805160ff191683800117855561241e565b8280016001018555821561241e579182015b8281111561241e578251825591602001919060010190612403565b5061242a92915061242e565b5090565b5b8082111561242a576000815560010161242f56fe456e756d657261626c655365743a20696e646578206f7574206f6620626f756e647345524332303a207472616e7366657220746f20746865207a65726f2061646472657373416363657373436f6e74726f6c3a2073656e646572206d75737420626520616e2061646d696e20746f206772616e74546f6b656e207472616e73666572206665652064697669736f72206d7573742062652067726561746572207468616e203045524332303a206275726e20616d6f756e7420657863656564732062616c616e636545524332305072657365744d696e7465725061757365723a206d75737420686176652070617573657220726f6c6520746f20756e706175736545524332303a20617070726f766520746f20746865207a65726f206164647265737345524332303a207472616e7366657220616d6f756e7420657863656564732062616c616e6365416363657373436f6e74726f6c3a2073656e646572206d75737420626520616e2061646d696e20746f207265766f6b65496e697469616c697a61626c653a20636f6e747261637420697320616c726561647920696e697469616c697a656443616c6c6572206d75737420686176652061646d696e20726f6c6520746f206d696e7445524332303a207472616e7366657220616d6f756e74206578636565647320616c6c6f77616e636545524332305072657365744d696e7465725061757365723a206d7573742068617665206d696e74657220726f6c6520746f206d696e7445524332303a206275726e20616d6f756e74206578636565647320616c6c6f77616e636545524332303a206275726e2066726f6d20746865207a65726f206164647265737345524332303a207472616e736665722066726f6d20746865207a65726f206164647265737345524332303a20617070726f76652066726f6d20746865207a65726f206164647265737343616c6c6572206d75737420686176652061646d696e20726f6c6520746f20736574206d696e74696e6720666565206164647265737345524332305072657365744d696e7465725061757365723a206d75737420686176652070617573657220726f6c6520746f20706175736543616c6c6572206d75737420686176652061646d696e20726f6c6520746f20736574206d696e74696e67206665652070657263656e7445524332303a2064656372656173656420616c6c6f77616e63652062656c6f77207a65726f416363657373436f6e74726f6c3a2063616e206f6e6c792072656e6f756e636520726f6c657320666f722073656c6645524332305061757361626c653a20746f6b656e207472616e73666572207768696c6520706175736564a2646970667358221220aea747bba0982fd741ef115ba25898499f0bd765bb15b38324d9e35d1fd547c264736f6c63430007050033",
  "immutableReferences": {},
  "source": "// SPDX-License-Identifier: MIT\npragma solidity 0.7.5;\n\nimport \"./EnhancedMinterPauser.sol\";\n\n/**\n * @title NNN Gold Token\n * @dev this contract is a Pausable ERC20 token with Burn and Mint functions.\n * By implementing EnhancedMinterPauser this contract also includes external\n * methods for setting a new implementation contract for the Proxy.\n * NOTE: All calls to this contract should be made through\n * the proxy, including admin actions.\n * Any call to transfer against this contract should fail.\n */\ncontract NNNToken is Initializable, EnhancedMinterPauser {\n    function initilize() internal initializer {}\n\n    function __initialize(string memory name, string memory symbol)\n        public\n        initializer\n    {\n        __ERC20_init_unchained(name, symbol);\n        __ERC20PresetMinterPauser_init_unchained(name, symbol);\n        __EnhancedMinterPauser_init_unchained();\n    }\n}\n",
  "sourcePath": "/Users/selimerunkut/dev_novem/erc20_nnn_token/contracts/NNNToken.sol",
  "compiler": {
    "name": "solc",
    "version": "0.7.5+commit.eb77ed08.Emscripten.clang"
  },
  "schemaVersion": "3.3.2",
  "updatedAt": "2020-12-02T21:36:11.247Z",
  "devdoc": {
    "details": "this contract is a Pausable ERC20 token with Burn and Mint functions. By implementing EnhancedMinterPauser this contract also includes external methods for setting a new implementation contract for the Proxy. NOTE: All calls to this contract should be made through the proxy, including admin actions. Any call to transfer against this contract should fail.",
    "kind": "dev",
    "methods": {
      "allowance(address,address)": {
        "details": "See {IERC20-allowance}."
      },
      "approve(address,uint256)": {
        "details": "See {IERC20-approve}. Requirements: - `spender` cannot be the zero address."
      },
      "balanceOf(address)": {
        "details": "See {IERC20-balanceOf}."
      },
      "burn(uint256)": {
        "details": "Destroys `amount` tokens from the caller. See {ERC20-_burn}."
      },
      "burnFrom(address,uint256)": {
        "details": "Destroys `amount` tokens from `account`, deducting from the caller's allowance. See {ERC20-_burn} and {ERC20-allowance}. Requirements: - the caller must have allowance for ``accounts``'s tokens of at least `amount`."
      },
      "decimals()": {
        "details": "Returns the number of decimals used to get its user representation. For example, if `decimals` equals `2`, a balance of `505` tokens should be displayed to a user as `5,05` (`505 / 10 ** 2`). Tokens usually opt for a value of 18, imitating the relationship between Ether and Wei. This is the value {ERC20} uses, unless {_setupDecimals} is called. NOTE: This information is only used for _display_ purposes: it in no way affects any of the arithmetic of the contract, including {IERC20-balanceOf} and {IERC20-transfer}."
      },
      "decreaseAllowance(address,uint256)": {
        "details": "Atomically decreases the allowance granted to `spender` by the caller. This is an alternative to {approve} that can be used as a mitigation for problems described in {IERC20-approve}. Emits an {Approval} event indicating the updated allowance. Requirements: - `spender` cannot be the zero address. - `spender` must have allowance for the caller of at least `subtractedValue`."
      },
      "getRoleAdmin(bytes32)": {
        "details": "Returns the admin role that controls `role`. See {grantRole} and {revokeRole}. To change a role's admin, use {_setRoleAdmin}."
      },
      "getRoleMember(bytes32,uint256)": {
        "details": "Returns one of the accounts that have `role`. `index` must be a value between 0 and {getRoleMemberCount}, non-inclusive. Role bearers are not sorted in any particular way, and their ordering may change at any point. WARNING: When using {getRoleMember} and {getRoleMemberCount}, make sure you perform all queries on the same block. See the following https://forum.openzeppelin.com/t/iterating-over-elements-on-enumerableset-in-openzeppelin-contracts/2296[forum post] for more information."
      },
      "getRoleMemberCount(bytes32)": {
        "details": "Returns the number of accounts that have `role`. Can be used together with {getRoleMember} to enumerate all bearers of a role."
      },
      "grantRole(bytes32,address)": {
        "details": "Grants `role` to `account`. If `account` had not been already granted `role`, emits a {RoleGranted} event. Requirements: - the caller must have ``role``'s admin role."
      },
      "hasRole(bytes32,address)": {
        "details": "Returns `true` if `account` has been granted `role`."
      },
      "increaseAllowance(address,uint256)": {
        "details": "Atomically increases the allowance granted to `spender` by the caller. This is an alternative to {approve} that can be used as a mitigation for problems described in {IERC20-approve}. Emits an {Approval} event indicating the updated allowance. Requirements: - `spender` cannot be the zero address."
      },
      "mint(address,uint256)": {
        "details": "Creates `amount` new tokens for `to`. See {ERC20-_mint}. Requirements: - the caller must have the `MINTER_ROLE`."
      },
      "name()": {
        "details": "Returns the name of the token."
      },
      "pause()": {
        "details": "Pauses all token transfers. See {ERC20Pausable} and {Pausable-_pause}. Requirements: - the caller must have the `PAUSER_ROLE`."
      },
      "paused()": {
        "details": "Returns true if the contract is paused, and false otherwise."
      },
      "renounceRole(bytes32,address)": {
        "details": "Revokes `role` from the calling account. Roles are often managed via {grantRole} and {revokeRole}: this function's purpose is to provide a mechanism for accounts to lose their privileges if they are compromised (such as when a trusted device is misplaced). If the calling account had been granted `role`, emits a {RoleRevoked} event. Requirements: - the caller must be `account`."
      },
      "revokeRole(bytes32,address)": {
        "details": "Revokes `role` from `account`. If `account` had been granted `role`, emits a {RoleRevoked} event. Requirements: - the caller must have ``role``'s admin role."
      },
      "symbol()": {
        "details": "Returns the symbol of the token, usually a shorter version of the name."
      },
      "totalSupply()": {
        "details": "See {IERC20-totalSupply}."
      },
      "transfer(address,uint256)": {
        "details": "See {IERC20-transfer}. Requirements: - `recipient` cannot be the zero address. - the caller must have a balance of at least `amount`."
      },
      "transferFrom(address,address,uint256)": {
        "details": "See {IERC20-transferFrom}. Emits an {Approval} event indicating the updated allowance. This is not required by the EIP. See the note at the beginning of {ERC20}. Requirements: - `sender` and `recipient` cannot be the zero address. - `sender` must have a balance of at least `amount`. - the caller must have allowance for ``sender``'s tokens of at least `amount`."
      },
      "unpause()": {
        "details": "Unpauses all token transfers. See {ERC20Pausable} and {Pausable-_unpause}. Requirements: - the caller must have the `PAUSER_ROLE`."
      }
    },
    "title": "NNN Gold Token",
    "version": 1
  },
  "userdoc": {
    "kind": "user",
    "methods": {},
    "version": 1
  }
}