{
  "contractName": "NNNToken",
  "abi": [
    {
      "anonymous": false,
      "inputs": [
        {
          "indexed": true,
          "internalType": "address",
          "name": "owner",
          "type": "address"
        },
        {
          "indexed": true,
          "internalType": "address",
          "name": "spender",
          "type": "address"
        },
        {
          "indexed": false,
          "internalType": "uint256",
          "name": "value",
          "type": "uint256"
        }
      ],
      "name": "Approval",
      "type": "event"
    },
    {
      "anonymous": false,
      "inputs": [
        {
          "indexed": false,
          "internalType": "address",
          "name": "account",
          "type": "address"
        }
      ],
      "name": "Paused",
      "type": "event"
    },
    {
      "anonymous": false,
      "inputs": [
        {
          "indexed": true,
          "internalType": "bytes32",
          "name": "role",
          "type": "bytes32"
        },
        {
          "indexed": true,
          "internalType": "address",
          "name": "account",
          "type": "address"
        },
        {
          "indexed": true,
          "internalType": "address",
          "name": "sender",
          "type": "address"
        }
      ],
      "name": "RoleGranted",
      "type": "event"
    },
    {
      "anonymous": false,
      "inputs": [
        {
          "indexed": true,
          "internalType": "bytes32",
          "name": "role",
          "type": "bytes32"
        },
        {
          "indexed": true,
          "internalType": "address",
          "name": "account",
          "type": "address"
        },
        {
          "indexed": true,
          "internalType": "address",
          "name": "sender",
          "type": "address"
        }
      ],
      "name": "RoleRevoked",
      "type": "event"
    },
    {
      "anonymous": false,
      "inputs": [
        {
          "indexed": true,
          "internalType": "address",
          "name": "from",
          "type": "address"
        },
        {
          "indexed": true,
          "internalType": "address",
          "name": "to",
          "type": "address"
        },
        {
          "indexed": false,
          "internalType": "uint256",
          "name": "value",
          "type": "uint256"
        }
      ],
      "name": "Transfer",
      "type": "event"
    },
    {
      "anonymous": false,
      "inputs": [
        {
          "indexed": false,
          "internalType": "address",
          "name": "account",
          "type": "address"
        }
      ],
      "name": "Unpaused",
      "type": "event"
    },
    {
      "inputs": [],
      "name": "DEFAULT_ADMIN_ROLE",
      "outputs": [
        {
          "internalType": "bytes32",
          "name": "",
          "type": "bytes32"
        }
      ],
      "stateMutability": "view",
      "type": "function"
    },
    {
      "inputs": [],
      "name": "FEE_EXCLUDED_ROLE",
      "outputs": [
        {
          "internalType": "bytes32",
          "name": "",
          "type": "bytes32"
        }
      ],
      "stateMutability": "view",
      "type": "function"
    },
    {
      "inputs": [],
      "name": "MINTER_ROLE",
      "outputs": [
        {
          "internalType": "bytes32",
          "name": "",
          "type": "bytes32"
        }
      ],
      "stateMutability": "view",
      "type": "function"
    },
    {
      "inputs": [],
      "name": "PAUSER_ROLE",
      "outputs": [
        {
          "internalType": "bytes32",
          "name": "",
          "type": "bytes32"
        }
      ],
      "stateMutability": "view",
      "type": "function"
    },
    {
      "inputs": [
        {
          "internalType": "address",
          "name": "owner",
          "type": "address"
        },
        {
          "internalType": "address",
          "name": "spender",
          "type": "address"
        }
      ],
      "name": "allowance",
      "outputs": [
        {
          "internalType": "uint256",
          "name": "",
          "type": "uint256"
        }
      ],
      "stateMutability": "view",
      "type": "function"
    },
    {
      "inputs": [
        {
          "internalType": "address",
          "name": "spender",
          "type": "address"
        },
        {
          "internalType": "uint256",
          "name": "amount",
          "type": "uint256"
        }
      ],
      "name": "approve",
      "outputs": [
        {
          "internalType": "bool",
          "name": "",
          "type": "bool"
        }
      ],
      "stateMutability": "nonpayable",
      "type": "function"
    },
    {
      "inputs": [
        {
          "internalType": "address",
          "name": "account",
          "type": "address"
        }
      ],
      "name": "balanceOf",
      "outputs": [
        {
          "internalType": "uint256",
          "name": "",
          "type": "uint256"
        }
      ],
      "stateMutability": "view",
      "type": "function"
    },
    {
      "inputs": [
        {
          "internalType": "uint256",
          "name": "amount",
          "type": "uint256"
        }
      ],
      "name": "burn",
      "outputs": [],
      "stateMutability": "nonpayable",
      "type": "function"
    },
    {
      "inputs": [
        {
          "internalType": "address",
          "name": "account",
          "type": "address"
        },
        {
          "internalType": "uint256",
          "name": "amount",
          "type": "uint256"
        }
      ],
      "name": "burnFrom",
      "outputs": [],
      "stateMutability": "nonpayable",
      "type": "function"
    },
    {
      "inputs": [],
      "name": "decimals",
      "outputs": [
        {
          "internalType": "uint8",
          "name": "",
          "type": "uint8"
        }
      ],
      "stateMutability": "view",
      "type": "function"
    },
    {
      "inputs": [
        {
          "internalType": "address",
          "name": "spender",
          "type": "address"
        },
        {
          "internalType": "uint256",
          "name": "subtractedValue",
          "type": "uint256"
        }
      ],
      "name": "decreaseAllowance",
      "outputs": [
        {
          "internalType": "bool",
          "name": "",
          "type": "bool"
        }
      ],
      "stateMutability": "nonpayable",
      "type": "function"
    },
    {
      "inputs": [],
      "name": "feeAddress",
      "outputs": [
        {
          "internalType": "address",
          "name": "",
          "type": "address"
        }
      ],
      "stateMutability": "view",
      "type": "function"
    },
    {
      "inputs": [
        {
          "internalType": "bytes32",
          "name": "role",
          "type": "bytes32"
        }
      ],
      "name": "getRoleAdmin",
      "outputs": [
        {
          "internalType": "bytes32",
          "name": "",
          "type": "bytes32"
        }
      ],
      "stateMutability": "view",
      "type": "function"
    },
    {
      "inputs": [
        {
          "internalType": "bytes32",
          "name": "role",
          "type": "bytes32"
        },
        {
          "internalType": "uint256",
          "name": "index",
          "type": "uint256"
        }
      ],
      "name": "getRoleMember",
      "outputs": [
        {
          "internalType": "address",
          "name": "",
          "type": "address"
        }
      ],
      "stateMutability": "view",
      "type": "function"
    },
    {
      "inputs": [
        {
          "internalType": "bytes32",
          "name": "role",
          "type": "bytes32"
        }
      ],
      "name": "getRoleMemberCount",
      "outputs": [
        {
          "internalType": "uint256",
          "name": "",
          "type": "uint256"
        }
      ],
      "stateMutability": "view",
      "type": "function"
    },
    {
      "inputs": [
        {
          "internalType": "bytes32",
          "name": "role",
          "type": "bytes32"
        },
        {
          "internalType": "address",
          "name": "account",
          "type": "address"
        }
      ],
      "name": "grantRole",
      "outputs": [],
      "stateMutability": "nonpayable",
      "type": "function"
    },
    {
      "inputs": [
        {
          "internalType": "bytes32",
          "name": "role",
          "type": "bytes32"
        },
        {
          "internalType": "address",
          "name": "account",
          "type": "address"
        }
      ],
      "name": "hasRole",
      "outputs": [
        {
          "internalType": "bool",
          "name": "",
          "type": "bool"
        }
      ],
      "stateMutability": "view",
      "type": "function"
    },
    {
      "inputs": [
        {
          "internalType": "address",
          "name": "spender",
          "type": "address"
        },
        {
          "internalType": "uint256",
          "name": "addedValue",
          "type": "uint256"
        }
      ],
      "name": "increaseAllowance",
      "outputs": [
        {
          "internalType": "bool",
          "name": "",
          "type": "bool"
        }
      ],
      "stateMutability": "nonpayable",
      "type": "function"
    },
    {
      "inputs": [
        {
          "internalType": "string",
          "name": "name",
          "type": "string"
        },
        {
          "internalType": "string",
          "name": "symbol",
          "type": "string"
        }
      ],
      "name": "initialize",
      "outputs": [],
      "stateMutability": "nonpayable",
      "type": "function"
    },
    {
      "inputs": [
        {
          "internalType": "address",
          "name": "to",
          "type": "address"
        },
        {
          "internalType": "uint256",
          "name": "amount",
          "type": "uint256"
        }
      ],
      "name": "mint",
      "outputs": [],
      "stateMutability": "nonpayable",
      "type": "function"
    },
    {
      "inputs": [
        {
          "internalType": "address",
          "name": "recipient",
          "type": "address"
        },
        {
          "internalType": "uint256",
          "name": "amount",
          "type": "uint256"
        }
      ],
      "name": "mintWithoutDecimals",
      "outputs": [],
      "stateMutability": "nonpayable",
      "type": "function"
    },
    {
      "inputs": [],
      "name": "name",
      "outputs": [
        {
          "internalType": "string",
          "name": "",
          "type": "string"
        }
      ],
      "stateMutability": "view",
      "type": "function"
    },
    {
      "inputs": [],
      "name": "pause",
      "outputs": [],
      "stateMutability": "nonpayable",
      "type": "function"
    },
    {
      "inputs": [],
      "name": "paused",
      "outputs": [
        {
          "internalType": "bool",
          "name": "",
          "type": "bool"
        }
      ],
      "stateMutability": "view",
      "type": "function"
    },
    {
      "inputs": [
        {
          "internalType": "bytes32",
          "name": "role",
          "type": "bytes32"
        },
        {
          "internalType": "address",
          "name": "account",
          "type": "address"
        }
      ],
      "name": "renounceRole",
      "outputs": [],
      "stateMutability": "nonpayable",
      "type": "function"
    },
    {
      "inputs": [
        {
          "internalType": "bytes32",
          "name": "role",
          "type": "bytes32"
        },
        {
          "internalType": "address",
          "name": "account",
          "type": "address"
        }
      ],
      "name": "revokeRole",
      "outputs": [],
      "stateMutability": "nonpayable",
      "type": "function"
    },
    {
      "inputs": [
        {
          "internalType": "address",
          "name": "_feeAddress",
          "type": "address"
        }
      ],
      "name": "setMintingFeeAddress",
      "outputs": [],
      "stateMutability": "nonpayable",
      "type": "function"
    },
    {
      "inputs": [
        {
          "internalType": "uint32",
          "name": "_tokenTransferFeeDivisor",
          "type": "uint32"
        }
      ],
      "name": "setMintingFeePercent",
      "outputs": [],
      "stateMutability": "nonpayable",
      "type": "function"
    },
    {
      "inputs": [],
      "name": "symbol",
      "outputs": [
        {
          "internalType": "string",
          "name": "",
          "type": "string"
        }
      ],
      "stateMutability": "view",
      "type": "function"
    },
    {
      "inputs": [],
      "name": "tokenTransferFeeDivisor",
      "outputs": [
        {
          "internalType": "uint32",
          "name": "",
          "type": "uint32"
        }
      ],
      "stateMutability": "view",
      "type": "function"
    },
    {
      "inputs": [],
      "name": "totalSupply",
      "outputs": [
        {
          "internalType": "uint256",
          "name": "",
          "type": "uint256"
        }
      ],
      "stateMutability": "view",
      "type": "function"
    },
    {
      "inputs": [
        {
          "internalType": "address",
          "name": "recipient",
          "type": "address"
        },
        {
          "internalType": "uint256",
          "name": "amount",
          "type": "uint256"
        }
      ],
      "name": "transfer",
      "outputs": [
        {
          "internalType": "bool",
          "name": "",
          "type": "bool"
        }
      ],
      "stateMutability": "nonpayable",
      "type": "function"
    },
    {
      "inputs": [
        {
          "internalType": "address",
          "name": "sender",
          "type": "address"
        },
        {
          "internalType": "address",
          "name": "recipient",
          "type": "address"
        },
        {
          "internalType": "uint256",
          "name": "amount",
          "type": "uint256"
        }
      ],
      "name": "transferFrom",
      "outputs": [
        {
          "internalType": "bool",
          "name": "",
          "type": "bool"
        }
      ],
      "stateMutability": "nonpayable",
      "type": "function"
    },
    {
      "inputs": [],
      "name": "unpause",
      "outputs": [],
      "stateMutability": "nonpayable",
      "type": "function"
    },
    {
      "inputs": [
        {
          "internalType": "string",
          "name": "name",
          "type": "string"
        },
        {
          "internalType": "string",
          "name": "symbol",
          "type": "string"
        }
      ],
      "name": "__initialize",
      "outputs": [],
      "stateMutability": "nonpayable",
      "type": "function"
    }
  ],
  "bytecode": "0x608060405234801561001057600080fd5b506126a3806100206000396000f3fe608060405234801561001057600080fd5b50600436106102415760003560e01c80634e01b0d011610145578063a217fddf116100bd578063ca15c8731161008c578063d547741f11610071578063d547741f146108bf578063dd62ed3e146108eb578063e63ab1e91461091957610241565b8063ca15c8731461089a578063d5391393146108b757610241565b8063a217fddf14610814578063a457c2d71461081c578063a9059cbb14610848578063ae1cb3801461087457610241565b806381170e24116101145780639010d07c116100f95780639010d07c146107bd57806391d14854146107e057806395d89b411461080c57610241565b806381170e24146106885780638456cb59146107b557610241565b80634e01b0d0146106025780635c975abb1461062e57806370a082311461063657806379cc67901461065c57610241565b80632f2ff15d116101d85780633f4ba83a116101a7578063412753581161018c578063412753581461049457806342966c68146104b85780634cd88b76146104d557610241565b80633f4ba83a1461046057806340c10f191461046857610241565b80632f2ff15d146103be578063313ce567146103ea57806336568abe14610408578063395093511461043457610241565b806323b872dd1161021457806323b872dd1461033e578063248a9ca314610374578063285f3989146103915780632dd8175a146103b657610241565b806306fdde0314610246578063095ea7b3146102c35780631804cb041461030357806318160ddd14610324575b600080fd5b61024e610921565b6040805160208082528351818301528351919283929083019185019080838360005b83811015610288578181015183820152602001610270565b50505050905090810190601f1680156102b55780820380516001836020036101000a031916815260200191505b509250505060405180910390f35b6102ef600480360360408110156102d957600080fd5b506001600160a01b0381351690602001356109b8565b604080519115158252519081900360200190f35b61030b6109d6565b6040805163ffffffff9092168252519081900360200190f35b61032c6109e3565b60408051918252519081900360200190f35b6102ef6004803603606081101561035457600080fd5b506001600160a01b038135811691602081013590911690604001356109e9565b61032c6004803603602081101561038a57600080fd5b5035610a76565b6103b4600480360360208110156103a757600080fd5b503563ffffffff16610a8b565b005b61032c610af5565b6103b4600480360360408110156103d457600080fd5b50803590602001356001600160a01b0316610b2a565b6103f2610b91565b6040805160ff9092168252519081900360200190f35b6103b46004803603604081101561041e57600080fd5b50803590602001356001600160a01b0316610b9a565b6102ef6004803603604081101561044a57600080fd5b506001600160a01b038135169060200135610bfb565b6103b4610c4f565b6103b46004803603604081101561047e57600080fd5b506001600160a01b038135169060200135610cc0565b61049c610d31565b604080516001600160a01b039092168252519081900360200190f35b6103b4600480360360208110156104ce57600080fd5b5035610d49565b6103b4600480360360408110156104eb57600080fd5b81019060208101813564010000000081111561050657600080fd5b82018360208201111561051857600080fd5b8035906020019184600183028401116401000000008311171561053a57600080fd5b91908080601f016020809104026020016040519081016040528093929190818152602001838380828437600092019190915250929594936020810193503591505064010000000081111561058d57600080fd5b82018360208201111561059f57600080fd5b803590602001918460018302840111640100000000831117156105c157600080fd5b91908080601f016020809104026020016040519081016040528093929190818152602001838380828437600092019190915250929550610d5d945050505050565b6103b46004803603604081101561061857600080fd5b506001600160a01b038135169060200135610d67565b6102ef610dc3565b61032c6004803603602081101561064c57600080fd5b50356001600160a01b0316610dcc565b6103b46004803603604081101561067257600080fd5b506001600160a01b038135169060200135610de7565b6103b46004803603604081101561069e57600080fd5b8101906020810181356401000000008111156106b957600080fd5b8201836020820111156106cb57600080fd5b803590602001918460018302840111640100000000831117156106ed57600080fd5b91908080601f016020809104026020016040519081016040528093929190818152602001838380828437600092019190915250929594936020810193503591505064010000000081111561074057600080fd5b82018360208201111561075257600080fd5b8035906020019184600183028401116401000000008311171561077457600080fd5b91908080601f016020809104026020016040519081016040528093929190818152602001838380828437600092019190915250929550610e47945050505050565b6103b4610f04565b61049c600480360360408110156107d357600080fd5b5080359060200135610f73565b6102ef600480360360408110156107f657600080fd5b50803590602001356001600160a01b0316610f98565b61024e610fb6565b61032c611017565b6102ef6004803603604081101561083257600080fd5b506001600160a01b03813516906020013561101c565b6102ef6004803603604081101561085e57600080fd5b506001600160a01b03813516906020013561108a565b6103b46004803603602081101561088a57600080fd5b50356001600160a01b03166110f9565b61032c600480360360208110156108b057600080fd5b5035611184565b61032c61119b565b6103b4600480360360408110156108d557600080fd5b50803590602001356001600160a01b03166111be565b61032c6004803603604081101561090157600080fd5b506001600160a01b0381358116916020013516611217565b61032c611242565b609a8054604080516020601f60026000196101006001881615020190951694909404938401819004810282018101909252828152606093909290918301828280156109ad5780601f10610982576101008083540402835291602001916109ad565b820191906000526020600020905b81548152906001019060200180831161099057829003601f168201915b505050505090505b90565b60006109cc6109c5611265565b8484611269565b5060015b92915050565b6101915463ffffffff1681565b60995490565b60006109f6848484611355565b610a6c84610a02611265565b610a678560405180606001604052806028815260200161246b602891396001600160a01b038a16600090815260986020526040812090610a40611265565b6001600160a01b03168152602081019190915260400160002054919063ffffffff6114be16565b611269565b5060019392505050565b60009081526065602052604090206002015490565b610a9d6000610a98611265565b610f98565b610ad85760405162461bcd60e51b81526004018080602001828103825260478152602001806123ac6047913960600191505060405180910390fd5b610191805463ffffffff191663ffffffff92909216919091179055565b604080517f4645455f4558434c554445445f524f4c450000000000000000000000000000008152905190819003601101902081565b600082815260656020526040902060020154610b4890610a98611265565b610b835760405162461bcd60e51b815260040180806020018281038252602f815260200180612322602f913960400191505060405180910390fd5b610b8d8282611555565b5050565b609c5460ff1690565b610ba2611265565b6001600160a01b0316816001600160a01b031614610bf15760405162461bcd60e51b815260040180806020018281038252602f815260200180612615602f913960400191505060405180910390fd5b610b8d82826115c4565b60006109cc610c08611265565b84610a678560986000610c19611265565b6001600160a01b03908116825260208083019390935260409182016000908120918c16815292529020549063ffffffff61163316565b604080516a5041555345525f524f4c4560a81b8152905190819003600b019020610c7b90610a98611265565b610cb65760405162461bcd60e51b81526004018080602001828103825260398152602001806123736039913960400191505060405180910390fd5b610cbe61168d565b565b604080516a4d494e5445525f524f4c4560a81b8152905190819003600b019020610cec90610a98611265565b610d275760405162461bcd60e51b81526004018080602001828103825260368152602001806124936036913960400191505060405180910390fd5b610b8d8282611734565b6101915464010000000090046001600160a01b031681565b610d5a610d54611265565b82611832565b50565b610b8d828261193a565b610d746000610a98611265565b610daf5760405162461bcd60e51b81526004018080602001828103825260348152602001806124c96034913960400191505060405180910390fd5b610b8d8282670de0b6b3a764000002611734565b60fb5460ff1690565b6001600160a01b031660009081526097602052604090205490565b6000610e248260405180606001604052806024815260200161252b60249139610e1786610e12611265565b611217565b919063ffffffff6114be16565b9050610e3883610e32611265565b83611269565b610e428383611832565b505050565b600054610100900460ff1680610e605750610e60611a01565b80610e6e575060005460ff16155b610ea95760405162461bcd60e51b815260040180806020018281038252602e8152602001806124fd602e913960400191505060405180910390fd5b600054610100900460ff16158015610ed4576000805460ff1961ff0019909116610100171660011790555b610ede8383611a07565b610ee6611adf565b610eee611bea565b8015610e42576000805461ff0019169055505050565b604080516a5041555345525f524f4c4560a81b8152905190819003600b019020610f3090610a98611265565b610f6b5760405162461bcd60e51b81526004018080602001828103825260378152602001806125b96037913960400191505060405180910390fd5b610cbe611cdd565b6000828152606560205260408120610f91908363ffffffff611d6b16565b9392505050565b6000828152606560205260408120610f91908363ffffffff611d7716565b609b8054604080516020601f60026000196101006001881615020190951694909404938401819004810282018101909252828152606093909290918301828280156109ad5780601f10610982576101008083540402835291602001916109ad565b600081565b60006109cc611029611265565b84610a67856040518060600160405280602581526020016125f06025913960986000611053611265565b6001600160a01b03908116825260208083019390935260409182016000908120918d1681529252902054919063ffffffff6114be16565b604080517f4645455f4558434c554445445f524f4c45000000000000000000000000000000815290519081900360110190206000906110cb90610a98611265565b156110e0576110da8383611d8c565b506109d0565b6110f2836110ed84611da0565b611d8c565b90506109d0565b6111066000610a98611265565b6111415760405162461bcd60e51b81526004018080602001828103825260478152602001806123ac6047913960600191505060405180910390fd5b61019180546001600160a01b03909216640100000000027fffffffffffffffff0000000000000000000000000000000000000000ffffffff909216919091179055565b60008181526065602052604081206109d090611df1565b604080516a4d494e5445525f524f4c4560a81b8152905190819003600b01902081565b6000828152606560205260409020600201546111dc90610a98611265565b610bf15760405162461bcd60e51b815260040180806020018281038252603081526020018061243b6030913960400191505060405180910390fd5b6001600160a01b03918216600090815260986020908152604080832093909416825291909152205490565b604080516a5041555345525f524f4c4560a81b8152905190819003600b01902081565b3390565b6001600160a01b0383166112ae5760405162461bcd60e51b81526004018080602001828103825260248152602001806125956024913960400191505060405180910390fd5b6001600160a01b0382166112f35760405162461bcd60e51b81526004018080602001828103825260228152602001806123f36022913960400191505060405180910390fd5b6001600160a01b03808416600081815260986020908152604080832094871680845294825291829020859055815185815291517f8c5be1e5ebec7d5bd14f71427d1e84f3dd0314c0f7b2291e5b200ac8c7c3b9259281900390910190a3505050565b6001600160a01b03831661139a5760405162461bcd60e51b81526004018080602001828103825260258152602001806125706025913960400191505060405180910390fd5b6001600160a01b0382166113df5760405162461bcd60e51b81526004018080602001828103825260238152602001806122ff6023913960400191505060405180910390fd5b6113ea838383611dfc565b61142d81604051806060016040528060268152602001612415602691396001600160a01b038616600090815260976020526040902054919063ffffffff6114be16565b6001600160a01b038085166000908152609760205260408082209390935590841681522054611462908263ffffffff61163316565b6001600160a01b0380841660008181526097602090815260409182902094909455805185815290519193928716927fddf252ad1be2c89b69c2b068fc378daa952ba7f163c4a11628f55a4df523b3ef92918290030190a3505050565b6000818484111561154d5760405162461bcd60e51b81526004018080602001828103825283818151815260200191508051906020019080838360005b838110156115125781810151838201526020016114fa565b50505050905090810190601f16801561153f5780820380516001836020036101000a031916815260200191505b509250505060405180910390fd5b505050900390565b6000828152606560205260409020611573908263ffffffff611e0716565b15610b8d57611580611265565b6001600160a01b0316816001600160a01b0316837f2f8788117e7eff1d82e926ec794901d17c78024a50270940304540a733656f0d60405160405180910390a45050565b60008281526065602052604090206115e2908263ffffffff611e1c16565b15610b8d576115ef611265565b6001600160a01b0316816001600160a01b0316837ff6391f5c32d9c69d2a47ea670b442974b53935d1edc7fd64eb21e047a839171b60405160405180910390a45050565b600082820183811015610f91576040805162461bcd60e51b815260206004820152601b60248201527f536166654d6174683a206164646974696f6e206f766572666c6f770000000000604482015290519081900360640190fd5b60fb5460ff166116e4576040805162461bcd60e51b815260206004820152601460248201527f5061757361626c653a206e6f7420706175736564000000000000000000000000604482015290519081900360640190fd5b60fb805460ff191690557f5db9ee0a495bf2e6ff9c91a7834c1ba4fdd244a5e8aa4e537bd38aeae4b073aa611717611265565b604080516001600160a01b039092168252519081900360200190a1565b6001600160a01b03821661178f576040805162461bcd60e51b815260206004820152601f60248201527f45524332303a206d696e7420746f20746865207a65726f206164647265737300604482015290519081900360640190fd5b61179b60008383611dfc565b6099546117ae908263ffffffff61163316565b6099556001600160a01b0382166000908152609760205260409020546117da908263ffffffff61163316565b6001600160a01b03831660008181526097602090815260408083209490945583518581529351929391927fddf252ad1be2c89b69c2b068fc378daa952ba7f163c4a11628f55a4df523b3ef9281900390910190a35050565b6001600160a01b0382166118775760405162461bcd60e51b815260040180806020018281038252602181526020018061254f6021913960400191505060405180910390fd5b61188382600083611dfc565b6118c681604051806060016040528060228152602001612351602291396001600160a01b038516600090815260976020526040902054919063ffffffff6114be16565b6001600160a01b0383166000908152609760205260409020556099546118f2908263ffffffff611e3116565b6099556040805182815290516000916001600160a01b038516917fddf252ad1be2c89b69c2b068fc378daa952ba7f163c4a11628f55a4df523b3ef9181900360200190a35050565b600054610100900460ff16806119535750611953611a01565b80611961575060005460ff16155b61199c5760405162461bcd60e51b815260040180806020018281038252602e8152602001806124fd602e913960400191505060405180910390fd5b600054610100900460ff161580156119c7576000805460ff1961ff0019909116610100171660011790555b6119cf611e73565b6119d7611e73565b6119e18383611a07565b6119e9611e73565b6119f1611f13565b6119f9611e73565b610eee611adf565b303b1590565b600054610100900460ff1680611a205750611a20611a01565b80611a2e575060005460ff16155b611a695760405162461bcd60e51b815260040180806020018281038252602e8152602001806124fd602e913960400191505060405180910390fd5b600054610100900460ff16158015611a94576000805460ff1961ff0019909116610100171660011790555b8251611aa790609a906020860190612244565b508151611abb90609b906020850190612244565b50609c805460ff191660121790558015610e42576000805461ff0019169055505050565b600054610100900460ff1680611af85750611af8611a01565b80611b06575060005460ff16155b611b415760405162461bcd60e51b815260040180806020018281038252602e8152602001806124fd602e913960400191505060405180910390fd5b600054610100900460ff16158015611b6c576000805460ff1961ff0019909116610100171660011790555b611b7e6000611b79611265565b610b83565b604080516a4d494e5445525f524f4c4560a81b8152905190819003600b019020611baa90611b79611265565b604080516a5041555345525f524f4c4560a81b8152905190819003600b019020611bd690611b79611265565b8015610d5a576000805461ff001916905550565b600054610100900460ff1680611c035750611c03611a01565b80611c11575060005460ff16155b611c4c5760405162461bcd60e51b815260040180806020018281038252602e8152602001806124fd602e913960400191505060405180910390fd5b600054610100900460ff16158015611c77576000805460ff1961ff0019909116610100171660011790555b604080517f4645455f4558434c554445445f524f4c4500000000000000000000000000000081529051908190036011019020611cb590611b79611265565b611cd273feff5513b45a48d0de4f5e277ed22973a9389e0b6110f9565b611bd66107d0610a8b565b60fb5460ff1615611d35576040805162461bcd60e51b815260206004820152601060248201527f5061757361626c653a2070617573656400000000000000000000000000000000604482015290519081900360640190fd5b60fb805460ff191660011790557f62e78cea01bee320cd4e420270b5ea74000d11b0c9f74754ebdbfc544b05a258611717611265565b6000610f918383611fbe565b6000610f91836001600160a01b038416612022565b60006109cc611d99611265565b8484611355565b610191546000908190611dbe90849063ffffffff9081169061203a16565b61019154909150611de09064010000000090046001600160a01b031682611d8c565b50610f91838263ffffffff611e3116565b60006109d08261207c565b610e42838383612080565b6000610f91836001600160a01b0384166120cf565b6000610f91836001600160a01b038416612119565b6000610f9183836040518060400160405280601e81526020017f536166654d6174683a207375627472616374696f6e206f766572666c6f7700008152506114be565b600054610100900460ff1680611e8c5750611e8c611a01565b80611e9a575060005460ff16155b611ed55760405162461bcd60e51b815260040180806020018281038252602e8152602001806124fd602e913960400191505060405180910390fd5b600054610100900460ff16158015611bd6576000805460ff1961ff0019909116610100171660011790558015610d5a576000805461ff001916905550565b600054610100900460ff1680611f2c5750611f2c611a01565b80611f3a575060005460ff16155b611f755760405162461bcd60e51b815260040180806020018281038252602e8152602001806124fd602e913960400191505060405180910390fd5b600054610100900460ff16158015611fa0576000805460ff1961ff0019909116610100171660011790555b60fb805460ff191690558015610d5a576000805461ff001916905550565b815460009082106120005760405162461bcd60e51b81526004018080602001828103825260228152602001806122dd6022913960400191505060405180910390fd5b82600001828154811061200f57fe5b9060005260206000200154905092915050565b60009081526001919091016020526040902054151590565b6000610f9183836040518060400160405280601a81526020017f536166654d6174683a206469766973696f6e206279207a65726f0000000000008152506121df565b5490565b61208b838383610e42565b612093610dc3565b15610e425760405162461bcd60e51b815260040180806020018281038252602a815260200180612644602a913960400191505060405180910390fd5b60006120db8383612022565b612111575081546001818101845560008481526020808220909301849055845484825282860190935260409020919091556109d0565b5060006109d0565b600081815260018301602052604081205480156121d5578354600019808301919081019060009087908390811061214c57fe5b906000526020600020015490508087600001848154811061216957fe5b60009182526020808320909101929092558281526001898101909252604090209084019055865487908061219957fe5b600190038181906000526020600020016000905590558660010160008781526020019081526020016000206000905560019450505050506109d0565b60009150506109d0565b6000818361222e5760405162461bcd60e51b81526020600482018181528351602484015283519092839260449091019190850190808383600083156115125781810151838201526020016114fa565b50600083858161223a57fe5b0495945050505050565b828054600181600116156101000203166002900490600052602060002090601f016020900481019282601f1061228557805160ff19168380011785556122b2565b828001600101855582156122b2579182015b828111156122b2578251825591602001919060010190612297565b506122be9291506122c2565b5090565b6109b591905b808211156122be57600081556001016122c856fe456e756d657261626c655365743a20696e646578206f7574206f6620626f756e647345524332303a207472616e7366657220746f20746865207a65726f2061646472657373416363657373436f6e74726f6c3a2073656e646572206d75737420626520616e2061646d696e20746f206772616e7445524332303a206275726e20616d6f756e7420657863656564732062616c616e636545524332305072657365744d696e7465725061757365723a206d75737420686176652070617573657220726f6c6520746f20756e7061757365506175736561626c65456e68616e63656445524332303a206d75737420686176652061646d696e20726f6c6520746f20736574206d696e74696e6720666565206164647265737345524332303a20617070726f766520746f20746865207a65726f206164647265737345524332303a207472616e7366657220616d6f756e7420657863656564732062616c616e6365416363657373436f6e74726f6c3a2073656e646572206d75737420626520616e2061646d696e20746f207265766f6b6545524332303a207472616e7366657220616d6f756e74206578636565647320616c6c6f77616e636545524332305072657365744d696e7465725061757365723a206d7573742068617665206d696e74657220726f6c6520746f206d696e74506175736561626c65456e68616e63656445524332303a206d75737420686176652061646d696e20726f6c6520746f206d696e74436f6e747261637420696e7374616e63652068617320616c7265616479206265656e20696e697469616c697a656445524332303a206275726e20616d6f756e74206578636565647320616c6c6f77616e636545524332303a206275726e2066726f6d20746865207a65726f206164647265737345524332303a207472616e736665722066726f6d20746865207a65726f206164647265737345524332303a20617070726f76652066726f6d20746865207a65726f206164647265737345524332305072657365744d696e7465725061757365723a206d75737420686176652070617573657220726f6c6520746f20706175736545524332303a2064656372656173656420616c6c6f77616e63652062656c6f77207a65726f416363657373436f6e74726f6c3a2063616e206f6e6c792072656e6f756e636520726f6c657320666f722073656c6645524332305061757361626c653a20746f6b656e207472616e73666572207768696c6520706175736564a2646970667358221220baf868aefd7e495c9e53755b35dddff62a89f12323018c7b290ce9dd4c968f3364736f6c63430006020033",
  "source": "pragma solidity 0.6.2;\n\nimport \"@openzeppelin/contracts-ethereum-package/contracts/Initializable.sol\";\nimport \"./EnhancedMinterPauser.sol\";\n\ncontract NNNToken is Initializable, EnhancedMinterPauser {\n\n    function __initialize(string memory name, string memory symbol)\n        public\n        initializer\n    {\n        __ERC20_init_unchained(name, symbol);\n        __ERC20PresetMinterPauser_init_unchained();\n        __EnhancedMinterPauser_init_unchained();\n    }\n}\n",
  "sourcePath": "/Users/selimerunkut/dev_novem/erc20_nnn_token/contracts/NNNToken.sol",
  "compiler": {
    "name": "solc",
    "version": "0.6.2+commit.bacdbe57.Emscripten.clang"
  },
  "schemaVersion": "3.3.1",
  "updatedAt": "2020-11-20T11:34:52.583Z",
  "devdoc": {
    "methods": {
      "allowance(address,address)": {
        "details": "See {IERC20-allowance}."
      },
      "approve(address,uint256)": {
        "details": "See {IERC20-approve}.     * Requirements:     * - `spender` cannot be the zero address."
      },
      "balanceOf(address)": {
        "details": "See {IERC20-balanceOf}."
      },
      "burn(uint256)": {
        "details": "Destroys `amount` tokens from the caller.     * See {ERC20-_burn}."
      },
      "burnFrom(address,uint256)": {
        "details": "Destroys `amount` tokens from `account`, deducting from the caller's allowance.     * See {ERC20-_burn} and {ERC20-allowance}.     * Requirements:     * - the caller must have allowance for ``accounts``'s tokens of at least `amount`."
      },
      "decimals()": {
        "details": "Returns the number of decimals used to get its user representation. For example, if `decimals` equals `2`, a balance of `505` tokens should be displayed to a user as `5,05` (`505 / 10 ** 2`).     * Tokens usually opt for a value of 18, imitating the relationship between Ether and Wei. This is the value {ERC20} uses, unless {_setupDecimals} is called.     * NOTE: This information is only used for _display_ purposes: it in no way affects any of the arithmetic of the contract, including {IERC20-balanceOf} and {IERC20-transfer}."
      },
      "decreaseAllowance(address,uint256)": {
        "details": "Atomically decreases the allowance granted to `spender` by the caller.     * This is an alternative to {approve} that can be used as a mitigation for problems described in {IERC20-approve}.     * Emits an {Approval} event indicating the updated allowance.     * Requirements:     * - `spender` cannot be the zero address. - `spender` must have allowance for the caller of at least `subtractedValue`."
      },
      "getRoleAdmin(bytes32)": {
        "details": "Returns the admin role that controls `role`. See {grantRole} and {revokeRole}.     * To change a role's admin, use {_setRoleAdmin}."
      },
      "getRoleMember(bytes32,uint256)": {
        "details": "Returns one of the accounts that have `role`. `index` must be a value between 0 and {getRoleMemberCount}, non-inclusive.     * Role bearers are not sorted in any particular way, and their ordering may change at any point.     * WARNING: When using {getRoleMember} and {getRoleMemberCount}, make sure you perform all queries on the same block. See the following https://forum.openzeppelin.com/t/iterating-over-elements-on-enumerableset-in-openzeppelin-contracts/2296[forum post] for more information."
      },
      "getRoleMemberCount(bytes32)": {
        "details": "Returns the number of accounts that have `role`. Can be used together with {getRoleMember} to enumerate all bearers of a role."
      },
      "grantRole(bytes32,address)": {
        "details": "Grants `role` to `account`.     * If `account` had not been already granted `role`, emits a {RoleGranted} event.     * Requirements:     * - the caller must have ``role``'s admin role."
      },
      "hasRole(bytes32,address)": {
        "details": "Returns `true` if `account` has been granted `role`."
      },
      "increaseAllowance(address,uint256)": {
        "details": "Atomically increases the allowance granted to `spender` by the caller.     * This is an alternative to {approve} that can be used as a mitigation for problems described in {IERC20-approve}.     * Emits an {Approval} event indicating the updated allowance.     * Requirements:     * - `spender` cannot be the zero address."
      },
      "initialize(string,string)": {
        "details": "Grants `DEFAULT_ADMIN_ROLE`, `MINTER_ROLE` and `PAUSER_ROLE` to the account that deploys the contract.     * See {ERC20-constructor}."
      },
      "mint(address,uint256)": {
        "details": "Creates `amount` new tokens for `to`.     * See {ERC20-_mint}.     * Requirements:     * - the caller must have the `MINTER_ROLE`."
      },
      "name()": {
        "details": "Returns the name of the token."
      },
      "pause()": {
        "details": "Pauses all token transfers.     * See {ERC20Pausable} and {Pausable-_pause}.     * Requirements:     * - the caller must have the `PAUSER_ROLE`."
      },
      "paused()": {
        "details": "Returns true if the contract is paused, and false otherwise."
      },
      "renounceRole(bytes32,address)": {
        "details": "Revokes `role` from the calling account.     * Roles are often managed via {grantRole} and {revokeRole}: this function's purpose is to provide a mechanism for accounts to lose their privileges if they are compromised (such as when a trusted device is misplaced).     * If the calling account had been granted `role`, emits a {RoleRevoked} event.     * Requirements:     * - the caller must be `account`."
      },
      "revokeRole(bytes32,address)": {
        "details": "Revokes `role` from `account`.     * If `account` had been granted `role`, emits a {RoleRevoked} event.     * Requirements:     * - the caller must have ``role``'s admin role."
      },
      "symbol()": {
        "details": "Returns the symbol of the token, usually a shorter version of the name."
      },
      "totalSupply()": {
        "details": "See {IERC20-totalSupply}."
      },
      "transferFrom(address,address,uint256)": {
        "details": "See {IERC20-transferFrom}.     * Emits an {Approval} event indicating the updated allowance. This is not required by the EIP. See the note at the beginning of {ERC20};     * Requirements: - `sender` and `recipient` cannot be the zero address. - `sender` must have a balance of at least `amount`. - the caller must have allowance for ``sender``'s tokens of at least `amount`."
      },
      "unpause()": {
        "details": "Unpauses all token transfers.     * See {ERC20Pausable} and {Pausable-_unpause}.     * Requirements:     * - the caller must have the `PAUSER_ROLE`."
      }
    }
  },
  "userdoc": {
    "methods": {}
  }
}