{
  "contractName": "NNNToken",
  "abi": [
    {
      "anonymous": false,
      "inputs": [
        {
          "indexed": true,
          "internalType": "address",
          "name": "owner",
          "type": "address"
        },
        {
          "indexed": true,
          "internalType": "address",
          "name": "spender",
          "type": "address"
        },
        {
          "indexed": false,
          "internalType": "uint256",
          "name": "value",
          "type": "uint256"
        }
      ],
      "name": "Approval",
      "type": "event"
    },
    {
      "anonymous": false,
      "inputs": [
        {
          "indexed": false,
          "internalType": "address",
          "name": "account",
          "type": "address"
        }
      ],
      "name": "Paused",
      "type": "event"
    },
    {
      "anonymous": false,
      "inputs": [
        {
          "indexed": true,
          "internalType": "bytes32",
          "name": "role",
          "type": "bytes32"
        },
        {
          "indexed": true,
          "internalType": "bytes32",
          "name": "previousAdminRole",
          "type": "bytes32"
        },
        {
          "indexed": true,
          "internalType": "bytes32",
          "name": "newAdminRole",
          "type": "bytes32"
        }
      ],
      "name": "RoleAdminChanged",
      "type": "event"
    },
    {
      "anonymous": false,
      "inputs": [
        {
          "indexed": true,
          "internalType": "bytes32",
          "name": "role",
          "type": "bytes32"
        },
        {
          "indexed": true,
          "internalType": "address",
          "name": "account",
          "type": "address"
        },
        {
          "indexed": true,
          "internalType": "address",
          "name": "sender",
          "type": "address"
        }
      ],
      "name": "RoleGranted",
      "type": "event"
    },
    {
      "anonymous": false,
      "inputs": [
        {
          "indexed": true,
          "internalType": "bytes32",
          "name": "role",
          "type": "bytes32"
        },
        {
          "indexed": true,
          "internalType": "address",
          "name": "account",
          "type": "address"
        },
        {
          "indexed": true,
          "internalType": "address",
          "name": "sender",
          "type": "address"
        }
      ],
      "name": "RoleRevoked",
      "type": "event"
    },
    {
      "anonymous": false,
      "inputs": [
        {
          "indexed": true,
          "internalType": "address",
          "name": "from",
          "type": "address"
        },
        {
          "indexed": true,
          "internalType": "address",
          "name": "to",
          "type": "address"
        },
        {
          "indexed": false,
          "internalType": "uint256",
          "name": "value",
          "type": "uint256"
        }
      ],
      "name": "Transfer",
      "type": "event"
    },
    {
      "anonymous": false,
      "inputs": [
        {
          "indexed": false,
          "internalType": "address",
          "name": "account",
          "type": "address"
        }
      ],
      "name": "Unpaused",
      "type": "event"
    },
    {
      "anonymous": false,
      "inputs": [
        {
          "indexed": false,
          "internalType": "address",
          "name": "newValue",
          "type": "address"
        }
      ],
      "name": "feeWalletAddressChanged",
      "type": "event"
    },
    {
      "anonymous": false,
      "inputs": [
        {
          "indexed": false,
          "internalType": "uint32",
          "name": "newValue",
          "type": "uint32"
        }
      ],
      "name": "mintingFeePercentChanged",
      "type": "event"
    },
    {
      "inputs": [],
      "name": "DEFAULT_ADMIN_ROLE",
      "outputs": [
        {
          "internalType": "bytes32",
          "name": "",
          "type": "bytes32"
        }
      ],
      "stateMutability": "view",
      "type": "function",
      "constant": true
    },
    {
      "inputs": [],
      "name": "FEE_EXCLUDED_ROLE",
      "outputs": [
        {
          "internalType": "bytes32",
          "name": "",
          "type": "bytes32"
        }
      ],
      "stateMutability": "view",
      "type": "function",
      "constant": true
    },
    {
      "inputs": [],
      "name": "MINTER_ROLE",
      "outputs": [
        {
          "internalType": "bytes32",
          "name": "",
          "type": "bytes32"
        }
      ],
      "stateMutability": "view",
      "type": "function",
      "constant": true
    },
    {
      "inputs": [],
      "name": "PAUSER_ROLE",
      "outputs": [
        {
          "internalType": "bytes32",
          "name": "",
          "type": "bytes32"
        }
      ],
      "stateMutability": "view",
      "type": "function",
      "constant": true
    },
    {
      "inputs": [
        {
          "internalType": "address",
          "name": "owner",
          "type": "address"
        },
        {
          "internalType": "address",
          "name": "spender",
          "type": "address"
        }
      ],
      "name": "allowance",
      "outputs": [
        {
          "internalType": "uint256",
          "name": "",
          "type": "uint256"
        }
      ],
      "stateMutability": "view",
      "type": "function",
      "constant": true
    },
    {
      "inputs": [
        {
          "internalType": "address",
          "name": "spender",
          "type": "address"
        },
        {
          "internalType": "uint256",
          "name": "amount",
          "type": "uint256"
        }
      ],
      "name": "approve",
      "outputs": [
        {
          "internalType": "bool",
          "name": "",
          "type": "bool"
        }
      ],
      "stateMutability": "nonpayable",
      "type": "function"
    },
    {
      "inputs": [
        {
          "internalType": "address",
          "name": "account",
          "type": "address"
        }
      ],
      "name": "balanceOf",
      "outputs": [
        {
          "internalType": "uint256",
          "name": "",
          "type": "uint256"
        }
      ],
      "stateMutability": "view",
      "type": "function",
      "constant": true
    },
    {
      "inputs": [
        {
          "internalType": "uint256",
          "name": "amount",
          "type": "uint256"
        }
      ],
      "name": "burn",
      "outputs": [],
      "stateMutability": "nonpayable",
      "type": "function"
    },
    {
      "inputs": [
        {
          "internalType": "address",
          "name": "account",
          "type": "address"
        },
        {
          "internalType": "uint256",
          "name": "amount",
          "type": "uint256"
        }
      ],
      "name": "burnFrom",
      "outputs": [],
      "stateMutability": "nonpayable",
      "type": "function"
    },
    {
      "inputs": [],
      "name": "decimals",
      "outputs": [
        {
          "internalType": "uint8",
          "name": "",
          "type": "uint8"
        }
      ],
      "stateMutability": "view",
      "type": "function",
      "constant": true
    },
    {
      "inputs": [
        {
          "internalType": "address",
          "name": "spender",
          "type": "address"
        },
        {
          "internalType": "uint256",
          "name": "subtractedValue",
          "type": "uint256"
        }
      ],
      "name": "decreaseAllowance",
      "outputs": [
        {
          "internalType": "bool",
          "name": "",
          "type": "bool"
        }
      ],
      "stateMutability": "nonpayable",
      "type": "function"
    },
    {
      "inputs": [],
      "name": "feeAddress",
      "outputs": [
        {
          "internalType": "address",
          "name": "",
          "type": "address"
        }
      ],
      "stateMutability": "view",
      "type": "function",
      "constant": true
    },
    {
      "inputs": [
        {
          "internalType": "bytes32",
          "name": "role",
          "type": "bytes32"
        }
      ],
      "name": "getRoleAdmin",
      "outputs": [
        {
          "internalType": "bytes32",
          "name": "",
          "type": "bytes32"
        }
      ],
      "stateMutability": "view",
      "type": "function",
      "constant": true
    },
    {
      "inputs": [
        {
          "internalType": "bytes32",
          "name": "role",
          "type": "bytes32"
        },
        {
          "internalType": "uint256",
          "name": "index",
          "type": "uint256"
        }
      ],
      "name": "getRoleMember",
      "outputs": [
        {
          "internalType": "address",
          "name": "",
          "type": "address"
        }
      ],
      "stateMutability": "view",
      "type": "function",
      "constant": true
    },
    {
      "inputs": [
        {
          "internalType": "bytes32",
          "name": "role",
          "type": "bytes32"
        }
      ],
      "name": "getRoleMemberCount",
      "outputs": [
        {
          "internalType": "uint256",
          "name": "",
          "type": "uint256"
        }
      ],
      "stateMutability": "view",
      "type": "function",
      "constant": true
    },
    {
      "inputs": [
        {
          "internalType": "bytes32",
          "name": "role",
          "type": "bytes32"
        },
        {
          "internalType": "address",
          "name": "account",
          "type": "address"
        }
      ],
      "name": "grantRole",
      "outputs": [],
      "stateMutability": "nonpayable",
      "type": "function"
    },
    {
      "inputs": [
        {
          "internalType": "bytes32",
          "name": "role",
          "type": "bytes32"
        },
        {
          "internalType": "address",
          "name": "account",
          "type": "address"
        }
      ],
      "name": "hasRole",
      "outputs": [
        {
          "internalType": "bool",
          "name": "",
          "type": "bool"
        }
      ],
      "stateMutability": "view",
      "type": "function",
      "constant": true
    },
    {
      "inputs": [
        {
          "internalType": "address",
          "name": "spender",
          "type": "address"
        },
        {
          "internalType": "uint256",
          "name": "addedValue",
          "type": "uint256"
        }
      ],
      "name": "increaseAllowance",
      "outputs": [
        {
          "internalType": "bool",
          "name": "",
          "type": "bool"
        }
      ],
      "stateMutability": "nonpayable",
      "type": "function"
    },
    {
      "inputs": [
        {
          "internalType": "address",
          "name": "to",
          "type": "address"
        },
        {
          "internalType": "uint256",
          "name": "amount",
          "type": "uint256"
        }
      ],
      "name": "mint",
      "outputs": [],
      "stateMutability": "nonpayable",
      "type": "function"
    },
    {
      "inputs": [
        {
          "internalType": "address",
          "name": "recipient",
          "type": "address"
        },
        {
          "internalType": "uint256",
          "name": "amount",
          "type": "uint256"
        }
      ],
      "name": "mintWithFee",
      "outputs": [],
      "stateMutability": "nonpayable",
      "type": "function"
    },
    {
      "inputs": [
        {
          "internalType": "address",
          "name": "recipient",
          "type": "address"
        },
        {
          "internalType": "uint256",
          "name": "amount",
          "type": "uint256"
        },
        {
          "internalType": "bool",
          "name": "withFee",
          "type": "bool"
        }
      ],
      "name": "mintWithoutDecimals",
      "outputs": [],
      "stateMutability": "nonpayable",
      "type": "function"
    },
    {
      "inputs": [],
      "name": "name",
      "outputs": [
        {
          "internalType": "string",
          "name": "",
          "type": "string"
        }
      ],
      "stateMutability": "view",
      "type": "function",
      "constant": true
    },
    {
      "inputs": [],
      "name": "pause",
      "outputs": [],
      "stateMutability": "nonpayable",
      "type": "function"
    },
    {
      "inputs": [],
      "name": "paused",
      "outputs": [
        {
          "internalType": "bool",
          "name": "",
          "type": "bool"
        }
      ],
      "stateMutability": "view",
      "type": "function",
      "constant": true
    },
    {
      "inputs": [
        {
          "internalType": "bytes32",
          "name": "role",
          "type": "bytes32"
        },
        {
          "internalType": "address",
          "name": "account",
          "type": "address"
        }
      ],
      "name": "renounceRole",
      "outputs": [],
      "stateMutability": "nonpayable",
      "type": "function"
    },
    {
      "inputs": [
        {
          "internalType": "bytes32",
          "name": "role",
          "type": "bytes32"
        },
        {
          "internalType": "address",
          "name": "account",
          "type": "address"
        }
      ],
      "name": "revokeRole",
      "outputs": [],
      "stateMutability": "nonpayable",
      "type": "function"
    },
    {
      "inputs": [
        {
          "internalType": "address",
          "name": "_feeAddress",
          "type": "address"
        }
      ],
      "name": "setFeeWalletAddress",
      "outputs": [],
      "stateMutability": "nonpayable",
      "type": "function"
    },
    {
      "inputs": [
        {
          "internalType": "uint32",
          "name": "_tokenTransferFeeDivisor",
          "type": "uint32"
        }
      ],
      "name": "setTransferFeeDivisor",
      "outputs": [],
      "stateMutability": "nonpayable",
      "type": "function"
    },
    {
      "inputs": [],
      "name": "symbol",
      "outputs": [
        {
          "internalType": "string",
          "name": "",
          "type": "string"
        }
      ],
      "stateMutability": "view",
      "type": "function",
      "constant": true
    },
    {
      "inputs": [],
      "name": "tokenTransferFeeDivisor",
      "outputs": [
        {
          "internalType": "uint32",
          "name": "",
          "type": "uint32"
        }
      ],
      "stateMutability": "view",
      "type": "function",
      "constant": true
    },
    {
      "inputs": [],
      "name": "totalSupply",
      "outputs": [
        {
          "internalType": "uint256",
          "name": "",
          "type": "uint256"
        }
      ],
      "stateMutability": "view",
      "type": "function",
      "constant": true
    },
    {
      "inputs": [
        {
          "internalType": "address",
          "name": "recipient",
          "type": "address"
        },
        {
          "internalType": "uint256",
          "name": "amount",
          "type": "uint256"
        }
      ],
      "name": "transfer",
      "outputs": [
        {
          "internalType": "bool",
          "name": "",
          "type": "bool"
        }
      ],
      "stateMutability": "nonpayable",
      "type": "function"
    },
    {
      "inputs": [
        {
          "internalType": "address",
          "name": "sender",
          "type": "address"
        },
        {
          "internalType": "address",
          "name": "recipient",
          "type": "address"
        },
        {
          "internalType": "uint256",
          "name": "amount",
          "type": "uint256"
        }
      ],
      "name": "transferFrom",
      "outputs": [
        {
          "internalType": "bool",
          "name": "",
          "type": "bool"
        }
      ],
      "stateMutability": "nonpayable",
      "type": "function"
    },
    {
      "inputs": [],
      "name": "unpause",
      "outputs": [],
      "stateMutability": "nonpayable",
      "type": "function"
    },
    {
      "inputs": [
        {
          "internalType": "string",
          "name": "name",
          "type": "string"
        },
        {
          "internalType": "string",
          "name": "symbol",
          "type": "string"
        }
      ],
      "name": "initialize",
      "outputs": [],
      "stateMutability": "nonpayable",
      "type": "function"
    }
  ],
  "bytecode": "0x608060405234801561001057600080fd5b5061249c806100206000396000f3fe608060405234801561001057600080fd5b50600436106102415760003560e01c80634cd88b7611610145578063a217fddf116100bd578063ca15c8731161008c578063d547741f11610071578063d547741f146107c6578063dd62ed3e146107f2578063e63ab1e91461082057610241565b8063ca15c873146107a1578063d5391393146107be57610241565b8063a217fddf1461070d578063a457c2d714610715578063a5c273f914610741578063a9059cbb1461077557610241565b806379cc6790116101145780639010d07c116100f95780639010d07c146106b657806391d14854146106d957806395d89b411461070557610241565b806379cc6790146106825780638456cb59146106ae57610241565b80634cd88b76146104fb5780635c975abb146106285780635d520e641461063057806370a082311461065c57610241565b8063313ce567116101d85780633f4ba83a116101a7578063412753581161018c578063412753581461049757806342966c68146104bb57806349178ad5146104d857610241565b80633f4ba83a1461046357806340c10f191461046b57610241565b8063313ce567146103c757806331503ec4146103e557806336568abe1461040b578063395093511461043757610241565b806323b872dd1161021457806323b872dd1461033e578063248a9ca3146103745780632dd8175a146103915780632f2ff15d1461039957610241565b806306fdde0314610246578063095ea7b3146102c35780631804cb041461030357806318160ddd14610324575b600080fd5b61024e610828565b6040805160208082528351818301528351919283929083019185019080838360005b83811015610288578181015183820152602001610270565b50505050905090810190601f1680156102b55780820380516001836020036101000a031916815260200191505b509250505060405180910390f35b6102ef600480360360408110156102d957600080fd5b506001600160a01b0381351690602001356108be565b604080519115158252519081900360200190f35b61030b6108dc565b6040805163ffffffff9092168252519081900360200190f35b61032c6108e9565b60408051918252519081900360200190f35b6102ef6004803603606081101561035457600080fd5b506001600160a01b038135811691602081013590911690604001356108ef565b61032c6004803603602081101561038a57600080fd5b5035610976565b61032c61098b565b6103c5600480360360408110156103af57600080fd5b50803590602001356001600160a01b03166109af565b005b6103cf610a1b565b6040805160ff9092168252519081900360200190f35b6103c5600480360360208110156103fb57600080fd5b50356001600160a01b0316610a24565b6103c56004803603604081101561042157600080fd5b50803590602001356001600160a01b0316610aeb565b6102ef6004803603604081101561044d57600080fd5b506001600160a01b038135169060200135610b4c565b6103c5610b9a565b6103c56004803603604081101561048157600080fd5b506001600160a01b038135169060200135610c0b565b61049f610c7c565b604080516001600160a01b039092168252519081900360200190f35b6103c5600480360360208110156104d157600080fd5b5035610c94565b6103c5600480360360208110156104ee57600080fd5b503563ffffffff16610ca8565b6103c56004803603604081101561051157600080fd5b81019060208101813564010000000081111561052c57600080fd5b82018360208201111561053e57600080fd5b8035906020019184600183028401116401000000008311171561056057600080fd5b91908080601f01602080910402602001604051908101604052809392919081815260200183838082843760009201919091525092959493602081019350359150506401000000008111156105b357600080fd5b8201836020820111156105c557600080fd5b803590602001918460018302840111640100000000831117156105e757600080fd5b91908080601f016020809104026020016040519081016040528093929190818152602001838380828437600092019190915250929550610d8a945050505050565b6102ef610e4a565b6103c56004803603604081101561064657600080fd5b506001600160a01b038135169060200135610e53565b61032c6004803603602081101561067257600080fd5b50356001600160a01b0316610ecf565b6103c56004803603604081101561069857600080fd5b506001600160a01b038135169060200135610eea565b6103c5610f3f565b61049f600480360360408110156106cc57600080fd5b5080359060200135610fae565b6102ef600480360360408110156106ef57600080fd5b50803590602001356001600160a01b0316610fcd565b61024e610fe5565b61032c611046565b6102ef6004803603604081101561072b57600080fd5b506001600160a01b03813516906020013561104b565b6103c56004803603606081101561075757600080fd5b506001600160a01b03813516906020810135906040013515156110b3565b6102ef6004803603604081101561078b57600080fd5b506001600160a01b03813516906020013561112e565b61032c600480360360208110156107b757600080fd5b5035611142565b61032c611159565b6103c5600480360360408110156107dc57600080fd5b50803590602001356001600160a01b031661117d565b61032c6004803603604081101561080857600080fd5b506001600160a01b03813581169160200135166111d6565b61032c611201565b60688054604080516020601f60026000196101006001881615020190951694909404938401819004810282018101909252828152606093909290918301828280156108b45780601f10610889576101008083540402835291602001916108b4565b820191906000526020600020905b81548152906001019060200180831161089757829003601f168201915b5050505050905090565b60006108d26108cb611225565b8484611229565b5060015b92915050565b61015f5463ffffffff1681565b60675490565b60006108fc848484611315565b61096c84610908611225565b6109678560405180606001604052806028815260200161225a602891396001600160a01b038a16600090815260666020526040812090610946611225565b6001600160a01b031681526020810191909152604001600020549190611388565b611229565b5060019392505050565b60009081526033602052604090206002015490565b7fbcaa5c4620c62b2fedc77ef4fe401724814aeef811d907416a737179a85b1ab281565b6000828152603360205260409020600201546109d2906109cd611225565b610fcd565b610a0d5760405162461bcd60e51b815260040180806020018281038252602f8152602001806120d6602f913960400191505060405180910390fd5b610a17828261141f565b5050565b606a5460ff1690565b610a3160006109cd611225565b610a6c5760405162461bcd60e51b81526004018080602001828103825260368152602001806123466036913960400191505060405180910390fd5b61015f80546001600160a01b038084166401000000009081027fffffffffffffffff0000000000000000000000000000000000000000ffffffff9093169290921792839055604080519290930416815290517f6f5114b3e5960d863abb3c1a60db83d21c561b7818cdf638383e9b9ea40238f99181900360200190a150565b610af3611225565b6001600160a01b0316816001600160a01b031614610b425760405162461bcd60e51b815260040180806020018281038252602f81526020018061240e602f913960400191505060405180910390fd5b610a178282611488565b60006108d2610b59611225565b846109678560666000610b6a611225565b6001600160a01b03908116825260208083019390935260409182016000908120918c1681529252902054906114f1565b610bc67f65d7a28e3265b37a6474929f336521b332c1681b933f6cb9f3376673440d862a6109cd611225565b610c015760405162461bcd60e51b81526004018080602001828103825260398152602001806121586039913960400191505060405180910390fd5b610c0961154b565b565b610c377f9f2df0fed2c77648de5860a4cc508cd0818c85b8b8a1ab4ceeef8d981c8956a66109cd611225565b610c725760405162461bcd60e51b81526004018080602001828103825260368152602001806122826036913960400191505060405180910390fd5b610a1782826115f2565b61015f5464010000000090046001600160a01b031681565b610ca5610c9f611225565b826116e4565b50565b610cb560006109cd611225565b610cf05760405162461bcd60e51b81526004018080602001828103825260368152602001806123b36036913960400191505060405180910390fd5b60028163ffffffff1611610d355760405162461bcd60e51b81526004018080602001828103825260318152602001806121056031913960400191505060405180910390fd5b61015f805463ffffffff191663ffffffff838116919091179182905560408051929091168252517fb4fb343f6573d5bcc1c7ab700665911f5ed2699ecfc6a7d1b1af8405409b22ec916020908290030190a150565b600054610100900460ff1680610da35750610da36117e0565b80610db1575060005460ff16155b610dec5760405162461bcd60e51b815260040180806020018281038252602e815260200180612209602e913960400191505060405180910390fd5b600054610100900460ff16158015610e17576000805460ff1961ff0019909116610100171660011790555b610e2183836117e6565b610e2b83836118be565b610e336119b5565b8015610e45576000805461ff00191690555b505050565b60c95460ff1690565b610e6060006109cd611225565b610e9b5760405162461bcd60e51b81526004018080602001828103825260238152602001806122376023913960400191505060405180910390fd5b61015f54610ec29064010000000090046001600160a01b0316610ebd83611aaa565b6115f2565b610a1782610ebd83611ac6565b6001600160a01b031660009081526065602052604090205490565b6000610f21826040518060600160405280602481526020016122b860249139610f1a86610f15611225565b6111d6565b9190611388565b9050610f3583610f2f611225565b83611229565b610e4583836116e4565b610f6b7f65d7a28e3265b37a6474929f336521b332c1681b933f6cb9f3376673440d862a6109cd611225565b610fa65760405162461bcd60e51b815260040180806020018281038252603781526020018061237c6037913960400191505060405180910390fd5b610c09611adb565b6000828152603360205260408120610fc69083611b69565b9392505050565b6000828152603360205260408120610fc69083611b75565b60698054604080516020601f60026000196101006001881615020190951694909404938401819004810282018101909252828152606093909290918301828280156108b45780601f10610889576101008083540402835291602001916108b4565b600081565b60006108d2611058611225565b84610967856040518060600160405280602581526020016123e96025913960666000611082611225565b6001600160a01b03908116825260208083019390935260409182016000908120918d16815292529020549190611388565b6110c060006109cd611225565b6110fb5760405162461bcd60e51b81526004018080602001828103825260238152602001806122376023913960400191505060405180910390fd5b801561111a576111158383670de0b6b3a764000002610e53565b610e45565b6111158383670de0b6b3a7640000026115f2565b60006108d261113b611225565b8484611315565b60008181526033602052604081206108d690611b8a565b7f9f2df0fed2c77648de5860a4cc508cd0818c85b8b8a1ab4ceeef8d981c8956a681565b60008281526033602052604090206002015461119b906109cd611225565b610b425760405162461bcd60e51b81526004018080602001828103825260308152602001806121d96030913960400191505060405180910390fd5b6001600160a01b03918216600090815260666020908152604080832093909416825291909152205490565b7f65d7a28e3265b37a6474929f336521b332c1681b933f6cb9f3376673440d862a81565b3390565b6001600160a01b03831661126e5760405162461bcd60e51b81526004018080602001828103825260248152602001806123226024913960400191505060405180910390fd5b6001600160a01b0382166112b35760405162461bcd60e51b81526004018080602001828103825260228152602001806121916022913960400191505060405180910390fd5b6001600160a01b03808416600081815260666020908152604080832094871680845294825291829020859055815185815291517f8c5be1e5ebec7d5bd14f71427d1e84f3dd0314c0f7b2291e5b200ac8c7c3b9259281900390910190a3505050565b6113417fbcaa5c4620c62b2fedc77ef4fe401724814aeef811d907416a737179a85b1ab26109cd611225565b1561135157611115838383611b95565b611364838361135f84611ac6565b611b95565b61015f54610e4590849064010000000090046001600160a01b031661135f84611aaa565b600081848411156114175760405162461bcd60e51b81526004018080602001828103825283818151815260200191508051906020019080838360005b838110156113dc5781810151838201526020016113c4565b50505050905090810190601f1680156114095780820380516001836020036101000a031916815260200191505b509250505060405180910390fd5b505050900390565b60008281526033602052604090206114379082611cf2565b15610a1757611444611225565b6001600160a01b0316816001600160a01b0316837f2f8788117e7eff1d82e926ec794901d17c78024a50270940304540a733656f0d60405160405180910390a45050565b60008281526033602052604090206114a09082611d07565b15610a17576114ad611225565b6001600160a01b0316816001600160a01b0316837ff6391f5c32d9c69d2a47ea670b442974b53935d1edc7fd64eb21e047a839171b60405160405180910390a45050565b600082820183811015610fc6576040805162461bcd60e51b815260206004820152601b60248201527f536166654d6174683a206164646974696f6e206f766572666c6f770000000000604482015290519081900360640190fd5b60c95460ff166115a2576040805162461bcd60e51b815260206004820152601460248201527f5061757361626c653a206e6f7420706175736564000000000000000000000000604482015290519081900360640190fd5b60c9805460ff191690557f5db9ee0a495bf2e6ff9c91a7834c1ba4fdd244a5e8aa4e537bd38aeae4b073aa6115d5611225565b604080516001600160a01b039092168252519081900360200190a1565b6001600160a01b03821661164d576040805162461bcd60e51b815260206004820152601f60248201527f45524332303a206d696e7420746f20746865207a65726f206164647265737300604482015290519081900360640190fd5b61165960008383611d1c565b60675461166690826114f1565b6067556001600160a01b03821660009081526065602052604090205461168c90826114f1565b6001600160a01b03831660008181526065602090815260408083209490945583518581529351929391927fddf252ad1be2c89b69c2b068fc378daa952ba7f163c4a11628f55a4df523b3ef9281900390910190a35050565b6001600160a01b0382166117295760405162461bcd60e51b81526004018080602001828103825260218152602001806122dc6021913960400191505060405180910390fd5b61173582600083611d1c565b61177281604051806060016040528060228152602001612136602291396001600160a01b0385166000908152606560205260409020549190611388565b6001600160a01b0383166000908152606560205260409020556067546117989082611d27565b6067556040805182815290516000916001600160a01b038516917fddf252ad1be2c89b69c2b068fc378daa952ba7f163c4a11628f55a4df523b3ef9181900360200190a35050565b303b1590565b600054610100900460ff16806117ff57506117ff6117e0565b8061180d575060005460ff16155b6118485760405162461bcd60e51b815260040180806020018281038252602e815260200180612209602e913960400191505060405180910390fd5b600054610100900460ff16158015611873576000805460ff1961ff0019909116610100171660011790555b8251611886906068906020860190611fef565b50815161189a906069906020850190611fef565b50606a805460ff191660121790558015610e45576000805461ff0019169055505050565b600054610100900460ff16806118d757506118d76117e0565b806118e5575060005460ff16155b6119205760405162461bcd60e51b815260040180806020018281038252602e815260200180612209602e913960400191505060405180910390fd5b600054610100900460ff1615801561194b576000805460ff1961ff0019909116610100171660011790555b61195d6000611958611225565b610a0d565b6119897f9f2df0fed2c77648de5860a4cc508cd0818c85b8b8a1ab4ceeef8d981c8956a6611958611225565b610e337f65d7a28e3265b37a6474929f336521b332c1681b933f6cb9f3376673440d862a611958611225565b600054610100900460ff16806119ce57506119ce6117e0565b806119dc575060005460ff16155b611a175760405162461bcd60e51b815260040180806020018281038252602e815260200180612209602e913960400191505060405180910390fd5b600054610100900460ff16158015611a42576000805460ff1961ff0019909116610100171660011790555b611a6e7fbcaa5c4620c62b2fedc77ef4fe401724814aeef811d907416a737179a85b1ab2611958611225565b611a8b739d1cb8509a7b60421ab28492ce05e06f52ddf727610a24565b611a966107d0610ca8565b8015610ca5576000805461ff001916905550565b61015f546000906108d690839063ffffffff90811690611d6916565b60006108d6611ad483611aaa565b8390611d27565b60c95460ff1615611b33576040805162461bcd60e51b815260206004820152601060248201527f5061757361626c653a2070617573656400000000000000000000000000000000604482015290519081900360640190fd5b60c9805460ff191660011790557f62e78cea01bee320cd4e420270b5ea74000d11b0c9f74754ebdbfc544b05a2586115d5611225565b6000610fc68383611dab565b6000610fc6836001600160a01b038416611e0f565b60006108d682611e27565b6001600160a01b038316611bda5760405162461bcd60e51b81526004018080602001828103825260258152602001806122fd6025913960400191505060405180910390fd5b6001600160a01b038216611c1f5760405162461bcd60e51b81526004018080602001828103825260238152602001806120b36023913960400191505060405180910390fd5b611c2a838383611d1c565b611c67816040518060600160405280602681526020016121b3602691396001600160a01b0386166000908152606560205260409020549190611388565b6001600160a01b038085166000908152606560205260408082209390935590841681522054611c9690826114f1565b6001600160a01b0380841660008181526065602090815260409182902094909455805185815290519193928716927fddf252ad1be2c89b69c2b068fc378daa952ba7f163c4a11628f55a4df523b3ef92918290030190a3505050565b6000610fc6836001600160a01b038416611e2b565b6000610fc6836001600160a01b038416611e75565b610e45838383611f3b565b6000610fc683836040518060400160405280601e81526020017f536166654d6174683a207375627472616374696f6e206f766572666c6f770000815250611388565b6000610fc683836040518060400160405280601a81526020017f536166654d6174683a206469766973696f6e206279207a65726f000000000000815250611f8a565b81546000908210611ded5760405162461bcd60e51b81526004018080602001828103825260228152602001806120916022913960400191505060405180910390fd5b826000018281548110611dfc57fe5b9060005260206000200154905092915050565b60009081526001919091016020526040902054151590565b5490565b6000611e378383611e0f565b611e6d575081546001818101845560008481526020808220909301849055845484825282860190935260409020919091556108d6565b5060006108d6565b60008181526001830160205260408120548015611f315783546000198083019190810190600090879083908110611ea857fe5b9060005260206000200154905080876000018481548110611ec557fe5b600091825260208083209091019290925582815260018981019092526040902090840190558654879080611ef557fe5b600190038181906000526020600020016000905590558660010160008781526020019081526020016000206000905560019450505050506108d6565b60009150506108d6565b611f46838383610e45565b611f4e610e4a565b15610e455760405162461bcd60e51b815260040180806020018281038252602a81526020018061243d602a913960400191505060405180910390fd5b60008183611fd95760405162461bcd60e51b81526020600482018181528351602484015283519092839260449091019190850190808383600083156113dc5781810151838201526020016113c4565b506000838581611fe557fe5b0495945050505050565b828054600181600116156101000203166002900490600052602060002090601f016020900481019282612025576000855561206b565b82601f1061203e57805160ff191683800117855561206b565b8280016001018555821561206b579182015b8281111561206b578251825591602001919060010190612050565b5061207792915061207b565b5090565b5b80821115612077576000815560010161207c56fe456e756d657261626c655365743a20696e646578206f7574206f6620626f756e647345524332303a207472616e7366657220746f20746865207a65726f2061646472657373416363657373436f6e74726f6c3a2073656e646572206d75737420626520616e2061646d696e20746f206772616e74546f6b656e207472616e73666572206665652064697669736f72206d7573742062652067726561746572207468616e203045524332303a206275726e20616d6f756e7420657863656564732062616c616e636545524332305072657365744d696e7465725061757365723a206d75737420686176652070617573657220726f6c6520746f20756e706175736545524332303a20617070726f766520746f20746865207a65726f206164647265737345524332303a207472616e7366657220616d6f756e7420657863656564732062616c616e6365416363657373436f6e74726f6c3a2073656e646572206d75737420626520616e2061646d696e20746f207265766f6b65496e697469616c697a61626c653a20636f6e747261637420697320616c726561647920696e697469616c697a656443616c6c6572206d75737420686176652061646d696e20726f6c6520746f206d696e7445524332303a207472616e7366657220616d6f756e74206578636565647320616c6c6f77616e636545524332305072657365744d696e7465725061757365723a206d7573742068617665206d696e74657220726f6c6520746f206d696e7445524332303a206275726e20616d6f756e74206578636565647320616c6c6f77616e636545524332303a206275726e2066726f6d20746865207a65726f206164647265737345524332303a207472616e736665722066726f6d20746865207a65726f206164647265737345524332303a20617070726f76652066726f6d20746865207a65726f206164647265737343616c6c6572206d75737420686176652061646d696e20726f6c6520746f20736574206d696e74696e6720666565206164647265737345524332305072657365744d696e7465725061757365723a206d75737420686176652070617573657220726f6c6520746f20706175736543616c6c6572206d75737420686176652061646d696e20726f6c6520746f20736574206d696e74696e67206665652070657263656e7445524332303a2064656372656173656420616c6c6f77616e63652062656c6f77207a65726f416363657373436f6e74726f6c3a2063616e206f6e6c792072656e6f756e636520726f6c657320666f722073656c6645524332305061757361626c653a20746f6b656e207472616e73666572207768696c6520706175736564a264697066735822122039b06cb709d51940ea0061dbfb613e83ff0e0d1743cc065e8ceb9f9c0387349864736f6c63430007050033",
  "immutableReferences": {},
  "source": "// SPDX-License-Identifier: MIT\npragma solidity 0.7.5;\n\nimport \"./EnhancedMinterPauser.sol\";\n\n/**\n * @title NNN Gold Token\n * @dev this contract is a Pausable ERC20 token with Burn and Mint functions.\n * By implementing EnhancedMinterPauser this contract also includes external\n * methods for setting a new implementation contract for the Proxy.\n * NOTE: All calls to this contract should be made through\n * the proxy, including admin actions.\n * Any call to transfer against this contract should fail.\n */\ncontract NNNToken is Initializable, EnhancedMinterPauser {\n    function initialize(string memory name, string memory symbol)\n        public\n        override\n        initializer\n    {\n        __ERC20_init_unchained(name, symbol);\n        __ERC20PresetMinterPauser_init_unchained(name, symbol);\n        __EnhancedMinterPauser_init_unchained();\n    }\n}\n",
  "sourcePath": "/Users/selimerunkut/dev_novem/erc20_nnn_token/contracts/NNNToken.sol",
  "compiler": {
    "name": "solc",
    "version": "0.7.5+commit.eb77ed08.Emscripten.clang"
  },
  "schemaVersion": "3.3.2",
  "updatedAt": "2020-12-07T13:22:31.529Z",
  "networkType": "ethereum",
  "devdoc": {
    "details": "this contract is a Pausable ERC20 token with Burn and Mint functions. By implementing EnhancedMinterPauser this contract also includes external methods for setting a new implementation contract for the Proxy. NOTE: All calls to this contract should be made through the proxy, including admin actions. Any call to transfer against this contract should fail.",
    "kind": "dev",
    "methods": {
      "allowance(address,address)": {
        "details": "See {IERC20-allowance}."
      },
      "approve(address,uint256)": {
        "details": "See {IERC20-approve}. Requirements: - `spender` cannot be the zero address."
      },
      "balanceOf(address)": {
        "details": "See {IERC20-balanceOf}."
      },
      "burn(uint256)": {
        "details": "Destroys `amount` tokens from the caller. See {ERC20-_burn}."
      },
      "burnFrom(address,uint256)": {
        "details": "Destroys `amount` tokens from `account`, deducting from the caller's allowance. See {ERC20-_burn} and {ERC20-allowance}. Requirements: - the caller must have allowance for ``accounts``'s tokens of at least `amount`."
      },
      "decimals()": {
        "details": "Returns the number of decimals used to get its user representation. For example, if `decimals` equals `2`, a balance of `505` tokens should be displayed to a user as `5,05` (`505 / 10 ** 2`). Tokens usually opt for a value of 18, imitating the relationship between Ether and Wei. This is the value {ERC20} uses, unless {_setupDecimals} is called. NOTE: This information is only used for _display_ purposes: it in no way affects any of the arithmetic of the contract, including {IERC20-balanceOf} and {IERC20-transfer}."
      },
      "decreaseAllowance(address,uint256)": {
        "details": "Atomically decreases the allowance granted to `spender` by the caller. This is an alternative to {approve} that can be used as a mitigation for problems described in {IERC20-approve}. Emits an {Approval} event indicating the updated allowance. Requirements: - `spender` cannot be the zero address. - `spender` must have allowance for the caller of at least `subtractedValue`."
      },
      "getRoleAdmin(bytes32)": {
        "details": "Returns the admin role that controls `role`. See {grantRole} and {revokeRole}. To change a role's admin, use {_setRoleAdmin}."
      },
      "getRoleMember(bytes32,uint256)": {
        "details": "Returns one of the accounts that have `role`. `index` must be a value between 0 and {getRoleMemberCount}, non-inclusive. Role bearers are not sorted in any particular way, and their ordering may change at any point. WARNING: When using {getRoleMember} and {getRoleMemberCount}, make sure you perform all queries on the same block. See the following https://forum.openzeppelin.com/t/iterating-over-elements-on-enumerableset-in-openzeppelin-contracts/2296[forum post] for more information."
      },
      "getRoleMemberCount(bytes32)": {
        "details": "Returns the number of accounts that have `role`. Can be used together with {getRoleMember} to enumerate all bearers of a role."
      },
      "grantRole(bytes32,address)": {
        "details": "Grants `role` to `account`. If `account` had not been already granted `role`, emits a {RoleGranted} event. Requirements: - the caller must have ``role``'s admin role."
      },
      "hasRole(bytes32,address)": {
        "details": "Returns `true` if `account` has been granted `role`."
      },
      "increaseAllowance(address,uint256)": {
        "details": "Atomically increases the allowance granted to `spender` by the caller. This is an alternative to {approve} that can be used as a mitigation for problems described in {IERC20-approve}. Emits an {Approval} event indicating the updated allowance. Requirements: - `spender` cannot be the zero address."
      },
      "mint(address,uint256)": {
        "details": "Creates `amount` new tokens for `to`. See {ERC20-_mint}. Requirements: - the caller must have the `MINTER_ROLE`."
      },
      "mintWithFee(address,uint256)": {
        "details": "mint tokens substract the fee, send the fee to the fee wallet and send the final amount to the given address"
      },
      "mintWithoutDecimals(address,uint256,bool)": {
        "details": "minting without 18 decimal places for convenience if withFee = true calls the mintWithFee function else sends the minted tokens without substracting a fee"
      },
      "name()": {
        "details": "Returns the name of the token."
      },
      "pause()": {
        "details": "Pauses all token transfers. See {ERC20Pausable} and {Pausable-_pause}. Requirements: - the caller must have the `PAUSER_ROLE`."
      },
      "paused()": {
        "details": "Returns true if the contract is paused, and false otherwise."
      },
      "renounceRole(bytes32,address)": {
        "details": "Revokes `role` from the calling account. Roles are often managed via {grantRole} and {revokeRole}: this function's purpose is to provide a mechanism for accounts to lose their privileges if they are compromised (such as when a trusted device is misplaced). If the calling account had been granted `role`, emits a {RoleRevoked} event. Requirements: - the caller must be `account`."
      },
      "revokeRole(bytes32,address)": {
        "details": "Revokes `role` from `account`. If `account` had been granted `role`, emits a {RoleRevoked} event. Requirements: - the caller must have ``role``'s admin role."
      },
      "setFeeWalletAddress(address)": {
        "details": "set the wallet address where fees will be collected"
      },
      "setTransferFeeDivisor(uint32)": {
        "details": "sets the transfer fee example: divisor 2000 would equal to 0,05 percent; 1/2000 = 0,05/100"
      },
      "symbol()": {
        "details": "Returns the symbol of the token, usually a shorter version of the name."
      },
      "totalSupply()": {
        "details": "See {IERC20-totalSupply}."
      },
      "transfer(address,uint256)": {
        "details": "See {IERC20-transfer}. Requirements: - `recipient` cannot be the zero address. - the caller must have a balance of at least `amount`."
      },
      "transferFrom(address,address,uint256)": {
        "details": "See {IERC20-transferFrom}. Emits an {Approval} event indicating the updated allowance. This is not required by the EIP. See the note at the beginning of {ERC20}. Requirements: - `sender` and `recipient` cannot be the zero address. - `sender` must have a balance of at least `amount`. - the caller must have allowance for ``sender``'s tokens of at least `amount`."
      },
      "unpause()": {
        "details": "Unpauses all token transfers. See {ERC20Pausable} and {Pausable-_unpause}. Requirements: - the caller must have the `PAUSER_ROLE`."
      }
    },
    "title": "NNN Gold Token",
    "version": 1
  },
  "userdoc": {
    "kind": "user",
    "methods": {},
    "version": 1
  }
}