{
  "contractName": "NNNToken",
  "abi": [
    {
      "anonymous": false,
      "inputs": [
        {
          "indexed": true,
          "internalType": "address",
          "name": "owner",
          "type": "address"
        },
        {
          "indexed": true,
          "internalType": "address",
          "name": "spender",
          "type": "address"
        },
        {
          "indexed": false,
          "internalType": "uint256",
          "name": "value",
          "type": "uint256"
        }
      ],
      "name": "Approval",
      "type": "event"
    },
    {
      "anonymous": false,
      "inputs": [
        {
          "indexed": false,
          "internalType": "address",
          "name": "account",
          "type": "address"
        }
      ],
      "name": "Paused",
      "type": "event"
    },
    {
      "anonymous": false,
      "inputs": [
        {
          "indexed": true,
          "internalType": "bytes32",
          "name": "role",
          "type": "bytes32"
        },
        {
          "indexed": true,
          "internalType": "address",
          "name": "account",
          "type": "address"
        },
        {
          "indexed": true,
          "internalType": "address",
          "name": "sender",
          "type": "address"
        }
      ],
      "name": "RoleGranted",
      "type": "event"
    },
    {
      "anonymous": false,
      "inputs": [
        {
          "indexed": true,
          "internalType": "bytes32",
          "name": "role",
          "type": "bytes32"
        },
        {
          "indexed": true,
          "internalType": "address",
          "name": "account",
          "type": "address"
        },
        {
          "indexed": true,
          "internalType": "address",
          "name": "sender",
          "type": "address"
        }
      ],
      "name": "RoleRevoked",
      "type": "event"
    },
    {
      "anonymous": false,
      "inputs": [
        {
          "indexed": true,
          "internalType": "address",
          "name": "from",
          "type": "address"
        },
        {
          "indexed": true,
          "internalType": "address",
          "name": "to",
          "type": "address"
        },
        {
          "indexed": false,
          "internalType": "uint256",
          "name": "value",
          "type": "uint256"
        }
      ],
      "name": "Transfer",
      "type": "event"
    },
    {
      "anonymous": false,
      "inputs": [
        {
          "indexed": false,
          "internalType": "address",
          "name": "account",
          "type": "address"
        }
      ],
      "name": "Unpaused",
      "type": "event"
    },
    {
      "anonymous": false,
      "inputs": [
        {
          "indexed": false,
          "internalType": "address",
          "name": "newValue",
          "type": "address"
        }
      ],
      "name": "mintingFeeAddressChanged",
      "type": "event"
    },
    {
      "anonymous": false,
      "inputs": [
        {
          "indexed": false,
          "internalType": "uint32",
          "name": "newValue",
          "type": "uint32"
        }
      ],
      "name": "mintingFeePercentChanged",
      "type": "event"
    },
    {
      "inputs": [],
      "name": "DEFAULT_ADMIN_ROLE",
      "outputs": [
        {
          "internalType": "bytes32",
          "name": "",
          "type": "bytes32"
        }
      ],
      "stateMutability": "view",
      "type": "function",
      "constant": true
    },
    {
      "inputs": [],
      "name": "FEE_EXCLUDED_ROLE",
      "outputs": [
        {
          "internalType": "bytes32",
          "name": "",
          "type": "bytes32"
        }
      ],
      "stateMutability": "view",
      "type": "function",
      "constant": true
    },
    {
      "inputs": [],
      "name": "MINTER_ROLE",
      "outputs": [
        {
          "internalType": "bytes32",
          "name": "",
          "type": "bytes32"
        }
      ],
      "stateMutability": "view",
      "type": "function",
      "constant": true
    },
    {
      "inputs": [],
      "name": "PAUSER_ROLE",
      "outputs": [
        {
          "internalType": "bytes32",
          "name": "",
          "type": "bytes32"
        }
      ],
      "stateMutability": "view",
      "type": "function",
      "constant": true
    },
    {
      "inputs": [
        {
          "internalType": "address",
          "name": "owner",
          "type": "address"
        },
        {
          "internalType": "address",
          "name": "spender",
          "type": "address"
        }
      ],
      "name": "allowance",
      "outputs": [
        {
          "internalType": "uint256",
          "name": "",
          "type": "uint256"
        }
      ],
      "stateMutability": "view",
      "type": "function",
      "constant": true
    },
    {
      "inputs": [
        {
          "internalType": "address",
          "name": "spender",
          "type": "address"
        },
        {
          "internalType": "uint256",
          "name": "amount",
          "type": "uint256"
        }
      ],
      "name": "approve",
      "outputs": [
        {
          "internalType": "bool",
          "name": "",
          "type": "bool"
        }
      ],
      "stateMutability": "nonpayable",
      "type": "function"
    },
    {
      "inputs": [
        {
          "internalType": "address",
          "name": "account",
          "type": "address"
        }
      ],
      "name": "balanceOf",
      "outputs": [
        {
          "internalType": "uint256",
          "name": "",
          "type": "uint256"
        }
      ],
      "stateMutability": "view",
      "type": "function",
      "constant": true
    },
    {
      "inputs": [
        {
          "internalType": "uint256",
          "name": "amount",
          "type": "uint256"
        }
      ],
      "name": "burn",
      "outputs": [],
      "stateMutability": "nonpayable",
      "type": "function"
    },
    {
      "inputs": [
        {
          "internalType": "address",
          "name": "account",
          "type": "address"
        },
        {
          "internalType": "uint256",
          "name": "amount",
          "type": "uint256"
        }
      ],
      "name": "burnFrom",
      "outputs": [],
      "stateMutability": "nonpayable",
      "type": "function"
    },
    {
      "inputs": [],
      "name": "decimals",
      "outputs": [
        {
          "internalType": "uint8",
          "name": "",
          "type": "uint8"
        }
      ],
      "stateMutability": "view",
      "type": "function",
      "constant": true
    },
    {
      "inputs": [
        {
          "internalType": "address",
          "name": "spender",
          "type": "address"
        },
        {
          "internalType": "uint256",
          "name": "subtractedValue",
          "type": "uint256"
        }
      ],
      "name": "decreaseAllowance",
      "outputs": [
        {
          "internalType": "bool",
          "name": "",
          "type": "bool"
        }
      ],
      "stateMutability": "nonpayable",
      "type": "function"
    },
    {
      "inputs": [],
      "name": "feeAddress",
      "outputs": [
        {
          "internalType": "address",
          "name": "",
          "type": "address"
        }
      ],
      "stateMutability": "view",
      "type": "function",
      "constant": true
    },
    {
      "inputs": [
        {
          "internalType": "bytes32",
          "name": "role",
          "type": "bytes32"
        }
      ],
      "name": "getRoleAdmin",
      "outputs": [
        {
          "internalType": "bytes32",
          "name": "",
          "type": "bytes32"
        }
      ],
      "stateMutability": "view",
      "type": "function",
      "constant": true
    },
    {
      "inputs": [
        {
          "internalType": "bytes32",
          "name": "role",
          "type": "bytes32"
        },
        {
          "internalType": "uint256",
          "name": "index",
          "type": "uint256"
        }
      ],
      "name": "getRoleMember",
      "outputs": [
        {
          "internalType": "address",
          "name": "",
          "type": "address"
        }
      ],
      "stateMutability": "view",
      "type": "function",
      "constant": true
    },
    {
      "inputs": [
        {
          "internalType": "bytes32",
          "name": "role",
          "type": "bytes32"
        }
      ],
      "name": "getRoleMemberCount",
      "outputs": [
        {
          "internalType": "uint256",
          "name": "",
          "type": "uint256"
        }
      ],
      "stateMutability": "view",
      "type": "function",
      "constant": true
    },
    {
      "inputs": [
        {
          "internalType": "bytes32",
          "name": "role",
          "type": "bytes32"
        },
        {
          "internalType": "address",
          "name": "account",
          "type": "address"
        }
      ],
      "name": "grantRole",
      "outputs": [],
      "stateMutability": "nonpayable",
      "type": "function"
    },
    {
      "inputs": [
        {
          "internalType": "bytes32",
          "name": "role",
          "type": "bytes32"
        },
        {
          "internalType": "address",
          "name": "account",
          "type": "address"
        }
      ],
      "name": "hasRole",
      "outputs": [
        {
          "internalType": "bool",
          "name": "",
          "type": "bool"
        }
      ],
      "stateMutability": "view",
      "type": "function",
      "constant": true
    },
    {
      "inputs": [
        {
          "internalType": "address",
          "name": "spender",
          "type": "address"
        },
        {
          "internalType": "uint256",
          "name": "addedValue",
          "type": "uint256"
        }
      ],
      "name": "increaseAllowance",
      "outputs": [
        {
          "internalType": "bool",
          "name": "",
          "type": "bool"
        }
      ],
      "stateMutability": "nonpayable",
      "type": "function"
    },
    {
      "inputs": [
        {
          "internalType": "string",
          "name": "name",
          "type": "string"
        },
        {
          "internalType": "string",
          "name": "symbol",
          "type": "string"
        }
      ],
      "name": "initialize",
      "outputs": [],
      "stateMutability": "nonpayable",
      "type": "function"
    },
    {
      "inputs": [
        {
          "internalType": "address",
          "name": "to",
          "type": "address"
        },
        {
          "internalType": "uint256",
          "name": "amount",
          "type": "uint256"
        }
      ],
      "name": "mint",
      "outputs": [],
      "stateMutability": "nonpayable",
      "type": "function"
    },
    {
      "inputs": [
        {
          "internalType": "address",
          "name": "recipient",
          "type": "address"
        },
        {
          "internalType": "uint256",
          "name": "amount",
          "type": "uint256"
        }
      ],
      "name": "mintWithFee",
      "outputs": [],
      "stateMutability": "nonpayable",
      "type": "function"
    },
    {
      "inputs": [
        {
          "internalType": "address",
          "name": "recipient",
          "type": "address"
        },
        {
          "internalType": "uint256",
          "name": "amount",
          "type": "uint256"
        }
      ],
      "name": "mintWithoutDecimals",
      "outputs": [],
      "stateMutability": "nonpayable",
      "type": "function"
    },
    {
      "inputs": [],
      "name": "name",
      "outputs": [
        {
          "internalType": "string",
          "name": "",
          "type": "string"
        }
      ],
      "stateMutability": "view",
      "type": "function",
      "constant": true
    },
    {
      "inputs": [],
      "name": "pause",
      "outputs": [],
      "stateMutability": "nonpayable",
      "type": "function"
    },
    {
      "inputs": [],
      "name": "paused",
      "outputs": [
        {
          "internalType": "bool",
          "name": "",
          "type": "bool"
        }
      ],
      "stateMutability": "view",
      "type": "function",
      "constant": true
    },
    {
      "inputs": [
        {
          "internalType": "bytes32",
          "name": "role",
          "type": "bytes32"
        },
        {
          "internalType": "address",
          "name": "account",
          "type": "address"
        }
      ],
      "name": "renounceRole",
      "outputs": [],
      "stateMutability": "nonpayable",
      "type": "function"
    },
    {
      "inputs": [
        {
          "internalType": "bytes32",
          "name": "role",
          "type": "bytes32"
        },
        {
          "internalType": "address",
          "name": "account",
          "type": "address"
        }
      ],
      "name": "revokeRole",
      "outputs": [],
      "stateMutability": "nonpayable",
      "type": "function"
    },
    {
      "inputs": [
        {
          "internalType": "address",
          "name": "_feeAddress",
          "type": "address"
        }
      ],
      "name": "setMintingFeeAddress",
      "outputs": [],
      "stateMutability": "nonpayable",
      "type": "function"
    },
    {
      "inputs": [
        {
          "internalType": "uint32",
          "name": "_tokenTransferFeeDivisor",
          "type": "uint32"
        }
      ],
      "name": "setMintingFeePercent",
      "outputs": [],
      "stateMutability": "nonpayable",
      "type": "function"
    },
    {
      "inputs": [],
      "name": "symbol",
      "outputs": [
        {
          "internalType": "string",
          "name": "",
          "type": "string"
        }
      ],
      "stateMutability": "view",
      "type": "function",
      "constant": true
    },
    {
      "inputs": [],
      "name": "tokenTransferFeeDivisor",
      "outputs": [
        {
          "internalType": "uint32",
          "name": "",
          "type": "uint32"
        }
      ],
      "stateMutability": "view",
      "type": "function",
      "constant": true
    },
    {
      "inputs": [],
      "name": "totalSupply",
      "outputs": [
        {
          "internalType": "uint256",
          "name": "",
          "type": "uint256"
        }
      ],
      "stateMutability": "view",
      "type": "function",
      "constant": true
    },
    {
      "inputs": [
        {
          "internalType": "address",
          "name": "recipient",
          "type": "address"
        },
        {
          "internalType": "uint256",
          "name": "amount",
          "type": "uint256"
        }
      ],
      "name": "transfer",
      "outputs": [
        {
          "internalType": "bool",
          "name": "",
          "type": "bool"
        }
      ],
      "stateMutability": "nonpayable",
      "type": "function"
    },
    {
      "inputs": [
        {
          "internalType": "address",
          "name": "sender",
          "type": "address"
        },
        {
          "internalType": "address",
          "name": "recipient",
          "type": "address"
        },
        {
          "internalType": "uint256",
          "name": "amount",
          "type": "uint256"
        }
      ],
      "name": "transferFrom",
      "outputs": [
        {
          "internalType": "bool",
          "name": "",
          "type": "bool"
        }
      ],
      "stateMutability": "nonpayable",
      "type": "function"
    },
    {
      "inputs": [],
      "name": "unpause",
      "outputs": [],
      "stateMutability": "nonpayable",
      "type": "function"
    },
    {
      "inputs": [
        {
          "internalType": "string",
          "name": "name",
          "type": "string"
        },
        {
          "internalType": "string",
          "name": "symbol",
          "type": "string"
        }
      ],
      "name": "__initialize",
      "outputs": [],
      "stateMutability": "nonpayable",
      "type": "function"
    }
  ],
  "bytecode": "0x608060405234801561001057600080fd5b506127cc806100206000396000f3fe608060405234801561001057600080fd5b506004361061025c5760003560e01c80635c975abb11610145578063a217fddf116100bd578063ca15c8731161008c578063d547741f11610071578063d547741f14610906578063dd62ed3e14610932578063e63ab1e9146109605761025c565b8063ca15c873146108e1578063d5391393146108fe5761025c565b8063a217fddf1461085b578063a457c2d714610863578063a9059cbb1461088f578063ae1cb380146108bb5761025c565b806381170e24116101145780639010d07c116100f95780639010d07c1461080457806391d148541461082757806395d89b41146108535761025c565b806381170e24146106cf5780638456cb59146107fc5761025c565b80635c975abb146106495780635d520e641461065157806370a082311461067d57806379cc6790146106a35761025c565b8063313ce567116101d857806340c10f19116101a757806342966c681161018c57806342966c68146104d35780634cd88b76146104f05780634e01b0d01461061d5761025c565b806340c10f191461048357806341275358146104af5761025c565b8063313ce5671461040557806336568abe14610423578063395093511461044f5780633f4ba83a1461047b5761025c565b806323b872dd1161022f578063285f398911610214578063285f3989146103ac5780632dd8175a146103d15780632f2ff15d146103d95761025c565b806323b872dd14610359578063248a9ca31461038f5761025c565b806306fdde0314610261578063095ea7b3146102de5780631804cb041461031e57806318160ddd1461033f575b600080fd5b610269610968565b6040805160208082528351818301528351919283929083019185019080838360005b838110156102a357818101518382015260200161028b565b50505050905090810190601f1680156102d05780820380516001836020036101000a031916815260200191505b509250505060405180910390f35b61030a600480360360408110156102f457600080fd5b506001600160a01b0381351690602001356109ff565b604080519115158252519081900360200190f35b610326610a1d565b6040805163ffffffff9092168252519081900360200190f35b610347610a2a565b60408051918252519081900360200190f35b61030a6004803603606081101561036f57600080fd5b506001600160a01b03813581169160208101359091169060400135610a30565b610347600480360360208110156103a557600080fd5b5035610abd565b6103cf600480360360208110156103c257600080fd5b503563ffffffff16610ad2565b005b610347610b74565b6103cf600480360360408110156103ef57600080fd5b50803590602001356001600160a01b0316610ba9565b61040d610c10565b6040805160ff9092168252519081900360200190f35b6103cf6004803603604081101561043957600080fd5b50803590602001356001600160a01b0316610c19565b61030a6004803603604081101561046557600080fd5b506001600160a01b038135169060200135610c7a565b6103cf610cce565b6103cf6004803603604081101561049957600080fd5b506001600160a01b038135169060200135610d3f565b6104b7610db0565b604080516001600160a01b039092168252519081900360200190f35b6103cf600480360360208110156104e957600080fd5b5035610dc8565b6103cf6004803603604081101561050657600080fd5b81019060208101813564010000000081111561052157600080fd5b82018360208201111561053357600080fd5b8035906020019184600183028401116401000000008311171561055557600080fd5b91908080601f01602080910402602001604051908101604052809392919081815260200183838082843760009201919091525092959493602081019350359150506401000000008111156105a857600080fd5b8201836020820111156105ba57600080fd5b803590602001918460018302840111640100000000831117156105dc57600080fd5b91908080601f016020809104026020016040519081016040528093929190818152602001838380828437600092019190915250929550610ddc945050505050565b6103cf6004803603604081101561063357600080fd5b506001600160a01b038135169060200135610de6565b61030a610e42565b6103cf6004803603604081101561066757600080fd5b506001600160a01b038135169060200135610e4b565b6103476004803603602081101561069357600080fd5b50356001600160a01b0316610ea5565b6103cf600480360360408110156106b957600080fd5b506001600160a01b038135169060200135610ec0565b6103cf600480360360408110156106e557600080fd5b81019060208101813564010000000081111561070057600080fd5b82018360208201111561071257600080fd5b8035906020019184600183028401116401000000008311171561073457600080fd5b91908080601f016020809104026020016040519081016040528093929190818152602001838380828437600092019190915250929594936020810193503591505064010000000081111561078757600080fd5b82018360208201111561079957600080fd5b803590602001918460018302840111640100000000831117156107bb57600080fd5b91908080601f016020809104026020016040519081016040528093929190818152602001838380828437600092019190915250929550610f20945050505050565b6103cf610fdd565b6104b76004803603604081101561081a57600080fd5b508035906020013561104c565b61030a6004803603604081101561083d57600080fd5b50803590602001356001600160a01b0316611071565b61026961108f565b6103476110f0565b61030a6004803603604081101561087957600080fd5b506001600160a01b0381351690602001356110f5565b61030a600480360360408110156108a557600080fd5b506001600160a01b038135169060200135611163565b6103cf600480360360208110156108d157600080fd5b50356001600160a01b03166111d2565b610347600480360360208110156108f757600080fd5b5035611299565b6103476112b0565b6103cf6004803603604081101561091c57600080fd5b50803590602001356001600160a01b03166112d3565b6103476004803603604081101561094857600080fd5b506001600160a01b038135811691602001351661132c565b610347611357565b609a8054604080516020601f60026000196101006001881615020190951694909404938401819004810282018101909252828152606093909290918301828280156109f45780601f106109c9576101008083540402835291602001916109f4565b820191906000526020600020905b8154815290600101906020018083116109d757829003601f168201915b505050505090505b90565b6000610a13610a0c61137a565b848461137e565b5060015b92915050565b6101915463ffffffff1681565b60995490565b6000610a3d84848461146a565b610ab384610a4961137a565b610aae8560405180606001604052806028815260200161255c602891396001600160a01b038a16600090815260986020526040812090610a8761137a565b6001600160a01b03168152602081019190915260400160002054919063ffffffff6115d316565b61137e565b5060019392505050565b60009081526065602052604090206002015490565b610ae46000610adf61137a565b611071565b610b1f5760405162461bcd60e51b81526004018080602001828103825260368152602001806126e36036913960400191505060405180910390fd5b610191805463ffffffff191663ffffffff838116919091179182905560408051929091168252517fb4fb343f6573d5bcc1c7ab700665911f5ed2699ecfc6a7d1b1af8405409b22ec916020908290030190a150565b604080517f4645455f4558434c554445445f524f4c450000000000000000000000000000008152905190819003601101902081565b600082815260656020526040902060020154610bc790610adf61137a565b610c025760405162461bcd60e51b815260040180806020018281038252602f815260200180612437602f913960400191505060405180910390fd5b610c0c828261166a565b5050565b609c5460ff1690565b610c2161137a565b6001600160a01b0316816001600160a01b031614610c705760405162461bcd60e51b815260040180806020018281038252602f81526020018061273e602f913960400191505060405180910390fd5b610c0c82826116d9565b6000610a13610c8761137a565b84610aae8560986000610c9861137a565b6001600160a01b03908116825260208083019390935260409182016000908120918c16815292529020549063ffffffff61174816565b604080516a5041555345525f524f4c4560a81b8152905190819003600b019020610cfa90610adf61137a565b610d355760405162461bcd60e51b81526004018080602001828103825260398152602001806124886039913960400191505060405180910390fd5b610d3d6117a2565b565b604080516a4d494e5445525f524f4c4560a81b8152905190819003600b019020610d6b90610adf61137a565b610da65760405162461bcd60e51b81526004018080602001828103825260368152602001806125846036913960400191505060405180910390fd5b610c0c8282611849565b6101915464010000000090046001600160a01b031681565b610dd9610dd361137a565b82611947565b50565b610c0c8282611a4f565b610df36000610adf61137a565b610e2e5760405162461bcd60e51b81526004018080602001828103825260238152602001806125396023913960400191505060405180910390fd5b610c0c8282670de0b6b3a764000002611849565b60fb5460ff1690565b610e586000610adf61137a565b610e935760405162461bcd60e51b81526004018080602001828103825260238152602001806125396023913960400191505060405180910390fd5b610c0c82610ea083611b16565b611849565b6001600160a01b031660009081526097602052604090205490565b6000610efd826040518060600160405280602481526020016125e860249139610ef086610eeb61137a565b61132c565b919063ffffffff6115d316565b9050610f1183610f0b61137a565b8361137e565b610f1b8383611947565b505050565b600054610100900460ff1680610f395750610f39611b67565b80610f47575060005460ff16155b610f825760405162461bcd60e51b815260040180806020018281038252602e8152602001806125ba602e913960400191505060405180910390fd5b600054610100900460ff16158015610fad576000805460ff1961ff0019909116610100171660011790555b610fb78383611b6d565b610fbf611c45565b610fc7611d50565b8015610f1b576000805461ff0019169055505050565b604080516a5041555345525f524f4c4560a81b8152905190819003600b01902061100990610adf61137a565b6110445760405162461bcd60e51b81526004018080602001828103825260378152602001806126ac6037913960400191505060405180910390fd5b610d3d611e43565b600082815260656020526040812061106a908363ffffffff611ed116565b9392505050565b600082815260656020526040812061106a908363ffffffff611edd16565b609b8054604080516020601f60026000196101006001881615020190951694909404938401819004810282018101909252828152606093909290918301828280156109f45780601f106109c9576101008083540402835291602001916109f4565b600081565b6000610a1361110261137a565b84610aae85604051806060016040528060258152602001612719602591396098600061112c61137a565b6001600160a01b03908116825260208083019390935260409182016000908120918d1681529252902054919063ffffffff6115d316565b604080517f4645455f4558434c554445445f524f4c45000000000000000000000000000000815290519081900360110190206000906111a490610adf61137a565b156111b9576111b38383611ef2565b50610a17565b6111cb836111c684611b16565b611ef2565b9050610a17565b6111df6000610adf61137a565b61121a5760405162461bcd60e51b81526004018080602001828103825260368152602001806126766036913960400191505060405180910390fd5b61019180546001600160a01b038084166401000000009081027fffffffffffffffff0000000000000000000000000000000000000000ffffffff9093169290921792839055604080519290930416815290517f6eea80b7608c97ee92c02a7c9e1b5f0373c4902a84a9b06c5f96072b2ebc6e739181900360200190a150565b6000818152606560205260408120610a1790611f06565b604080516a4d494e5445525f524f4c4560a81b8152905190819003600b01902081565b6000828152606560205260409020600201546112f190610adf61137a565b610c705760405162461bcd60e51b81526004018080602001828103825260308152602001806125096030913960400191505060405180910390fd5b6001600160a01b03918216600090815260986020908152604080832093909416825291909152205490565b604080516a5041555345525f524f4c4560a81b8152905190819003600b01902081565b3390565b6001600160a01b0383166113c35760405162461bcd60e51b81526004018080602001828103825260248152602001806126526024913960400191505060405180910390fd5b6001600160a01b0382166114085760405162461bcd60e51b81526004018080602001828103825260228152602001806124c16022913960400191505060405180910390fd5b6001600160a01b03808416600081815260986020908152604080832094871680845294825291829020859055815185815291517f8c5be1e5ebec7d5bd14f71427d1e84f3dd0314c0f7b2291e5b200ac8c7c3b9259281900390910190a3505050565b6001600160a01b0383166114af5760405162461bcd60e51b815260040180806020018281038252602581526020018061262d6025913960400191505060405180910390fd5b6001600160a01b0382166114f45760405162461bcd60e51b81526004018080602001828103825260238152602001806124146023913960400191505060405180910390fd5b6114ff838383611f11565b611542816040518060600160405280602681526020016124e3602691396001600160a01b038616600090815260976020526040902054919063ffffffff6115d316565b6001600160a01b038085166000908152609760205260408082209390935590841681522054611577908263ffffffff61174816565b6001600160a01b0380841660008181526097602090815260409182902094909455805185815290519193928716927fddf252ad1be2c89b69c2b068fc378daa952ba7f163c4a11628f55a4df523b3ef92918290030190a3505050565b600081848411156116625760405162461bcd60e51b81526004018080602001828103825283818151815260200191508051906020019080838360005b8381101561162757818101518382015260200161160f565b50505050905090810190601f1680156116545780820380516001836020036101000a031916815260200191505b509250505060405180910390fd5b505050900390565b6000828152606560205260409020611688908263ffffffff611f1c16565b15610c0c5761169561137a565b6001600160a01b0316816001600160a01b0316837f2f8788117e7eff1d82e926ec794901d17c78024a50270940304540a733656f0d60405160405180910390a45050565b60008281526065602052604090206116f7908263ffffffff611f3116565b15610c0c5761170461137a565b6001600160a01b0316816001600160a01b0316837ff6391f5c32d9c69d2a47ea670b442974b53935d1edc7fd64eb21e047a839171b60405160405180910390a45050565b60008282018381101561106a576040805162461bcd60e51b815260206004820152601b60248201527f536166654d6174683a206164646974696f6e206f766572666c6f770000000000604482015290519081900360640190fd5b60fb5460ff166117f9576040805162461bcd60e51b815260206004820152601460248201527f5061757361626c653a206e6f7420706175736564000000000000000000000000604482015290519081900360640190fd5b60fb805460ff191690557f5db9ee0a495bf2e6ff9c91a7834c1ba4fdd244a5e8aa4e537bd38aeae4b073aa61182c61137a565b604080516001600160a01b039092168252519081900360200190a1565b6001600160a01b0382166118a4576040805162461bcd60e51b815260206004820152601f60248201527f45524332303a206d696e7420746f20746865207a65726f206164647265737300604482015290519081900360640190fd5b6118b060008383611f11565b6099546118c3908263ffffffff61174816565b6099556001600160a01b0382166000908152609760205260409020546118ef908263ffffffff61174816565b6001600160a01b03831660008181526097602090815260408083209490945583518581529351929391927fddf252ad1be2c89b69c2b068fc378daa952ba7f163c4a11628f55a4df523b3ef9281900390910190a35050565b6001600160a01b03821661198c5760405162461bcd60e51b815260040180806020018281038252602181526020018061260c6021913960400191505060405180910390fd5b61199882600083611f11565b6119db81604051806060016040528060228152602001612466602291396001600160a01b038516600090815260976020526040902054919063ffffffff6115d316565b6001600160a01b038316600090815260976020526040902055609954611a07908263ffffffff611f4616565b6099556040805182815290516000916001600160a01b038516917fddf252ad1be2c89b69c2b068fc378daa952ba7f163c4a11628f55a4df523b3ef9181900360200190a35050565b600054610100900460ff1680611a685750611a68611b67565b80611a76575060005460ff16155b611ab15760405162461bcd60e51b815260040180806020018281038252602e8152602001806125ba602e913960400191505060405180910390fd5b600054610100900460ff16158015611adc576000805460ff1961ff0019909116610100171660011790555b611ae4611f88565b611aec611f88565b611af68383611b6d565b611afe611f88565b611b06612028565b611b0e611f88565b610fc7611c45565b610191546000908190611b3490849063ffffffff908116906120d316565b61019154909150611b569064010000000090046001600160a01b031682611ef2565b5061106a838263ffffffff611f4616565b303b1590565b600054610100900460ff1680611b865750611b86611b67565b80611b94575060005460ff16155b611bcf5760405162461bcd60e51b815260040180806020018281038252602e8152602001806125ba602e913960400191505060405180910390fd5b600054610100900460ff16158015611bfa576000805460ff1961ff0019909116610100171660011790555b8251611c0d90609a906020860190612359565b508151611c2190609b906020850190612359565b50609c805460ff191660121790558015610f1b576000805461ff0019169055505050565b600054610100900460ff1680611c5e5750611c5e611b67565b80611c6c575060005460ff16155b611ca75760405162461bcd60e51b815260040180806020018281038252602e8152602001806125ba602e913960400191505060405180910390fd5b600054610100900460ff16158015611cd2576000805460ff1961ff0019909116610100171660011790555b611ce46000611cdf61137a565b610c02565b604080516a4d494e5445525f524f4c4560a81b8152905190819003600b019020611d1090611cdf61137a565b604080516a5041555345525f524f4c4560a81b8152905190819003600b019020611d3c90611cdf61137a565b8015610dd9576000805461ff001916905550565b600054610100900460ff1680611d695750611d69611b67565b80611d77575060005460ff16155b611db25760405162461bcd60e51b815260040180806020018281038252602e8152602001806125ba602e913960400191505060405180910390fd5b600054610100900460ff16158015611ddd576000805460ff1961ff0019909116610100171660011790555b604080517f4645455f4558434c554445445f524f4c4500000000000000000000000000000081529051908190036011019020611e1b90611cdf61137a565b611e3873feff5513b45a48d0de4f5e277ed22973a9389e0b6111d2565b611d3c6107d0610ad2565b60fb5460ff1615611e9b576040805162461bcd60e51b815260206004820152601060248201527f5061757361626c653a2070617573656400000000000000000000000000000000604482015290519081900360640190fd5b60fb805460ff191660011790557f62e78cea01bee320cd4e420270b5ea74000d11b0c9f74754ebdbfc544b05a25861182c61137a565b600061106a8383612115565b600061106a836001600160a01b038416612179565b6000610a13611eff61137a565b848461146a565b6000610a1782612191565b610f1b838383612195565b600061106a836001600160a01b0384166121e4565b600061106a836001600160a01b03841661222e565b600061106a83836040518060400160405280601e81526020017f536166654d6174683a207375627472616374696f6e206f766572666c6f7700008152506115d3565b600054610100900460ff1680611fa15750611fa1611b67565b80611faf575060005460ff16155b611fea5760405162461bcd60e51b815260040180806020018281038252602e8152602001806125ba602e913960400191505060405180910390fd5b600054610100900460ff16158015611d3c576000805460ff1961ff0019909116610100171660011790558015610dd9576000805461ff001916905550565b600054610100900460ff16806120415750612041611b67565b8061204f575060005460ff16155b61208a5760405162461bcd60e51b815260040180806020018281038252602e8152602001806125ba602e913960400191505060405180910390fd5b600054610100900460ff161580156120b5576000805460ff1961ff0019909116610100171660011790555b60fb805460ff191690558015610dd9576000805461ff001916905550565b600061106a83836040518060400160405280601a81526020017f536166654d6174683a206469766973696f6e206279207a65726f0000000000008152506122f4565b815460009082106121575760405162461bcd60e51b81526004018080602001828103825260228152602001806123f26022913960400191505060405180910390fd5b82600001828154811061216657fe5b9060005260206000200154905092915050565b60009081526001919091016020526040902054151590565b5490565b6121a0838383610f1b565b6121a8610e42565b15610f1b5760405162461bcd60e51b815260040180806020018281038252602a81526020018061276d602a913960400191505060405180910390fd5b60006121f08383612179565b61222657508154600181810184556000848152602080822090930184905584548482528286019093526040902091909155610a17565b506000610a17565b600081815260018301602052604081205480156122ea578354600019808301919081019060009087908390811061226157fe5b906000526020600020015490508087600001848154811061227e57fe5b6000918252602080832090910192909255828152600189810190925260409020908401905586548790806122ae57fe5b60019003818190600052602060002001600090559055866001016000878152602001908152602001600020600090556001945050505050610a17565b6000915050610a17565b600081836123435760405162461bcd60e51b815260206004820181815283516024840152835190928392604490910191908501908083836000831561162757818101518382015260200161160f565b50600083858161234f57fe5b0495945050505050565b828054600181600116156101000203166002900490600052602060002090601f016020900481019282601f1061239a57805160ff19168380011785556123c7565b828001600101855582156123c7579182015b828111156123c75782518255916020019190600101906123ac565b506123d39291506123d7565b5090565b6109fc91905b808211156123d357600081556001016123dd56fe456e756d657261626c655365743a20696e646578206f7574206f6620626f756e647345524332303a207472616e7366657220746f20746865207a65726f2061646472657373416363657373436f6e74726f6c3a2073656e646572206d75737420626520616e2061646d696e20746f206772616e7445524332303a206275726e20616d6f756e7420657863656564732062616c616e636545524332305072657365744d696e7465725061757365723a206d75737420686176652070617573657220726f6c6520746f20756e706175736545524332303a20617070726f766520746f20746865207a65726f206164647265737345524332303a207472616e7366657220616d6f756e7420657863656564732062616c616e6365416363657373436f6e74726f6c3a2073656e646572206d75737420626520616e2061646d696e20746f207265766f6b6543616c6c6572206d75737420686176652061646d696e20726f6c6520746f206d696e7445524332303a207472616e7366657220616d6f756e74206578636565647320616c6c6f77616e636545524332305072657365744d696e7465725061757365723a206d7573742068617665206d696e74657220726f6c6520746f206d696e74436f6e747261637420696e7374616e63652068617320616c7265616479206265656e20696e697469616c697a656445524332303a206275726e20616d6f756e74206578636565647320616c6c6f77616e636545524332303a206275726e2066726f6d20746865207a65726f206164647265737345524332303a207472616e736665722066726f6d20746865207a65726f206164647265737345524332303a20617070726f76652066726f6d20746865207a65726f206164647265737343616c6c6572206d75737420686176652061646d696e20726f6c6520746f20736574206d696e74696e6720666565206164647265737345524332305072657365744d696e7465725061757365723a206d75737420686176652070617573657220726f6c6520746f20706175736543616c6c6572206d75737420686176652061646d696e20726f6c6520746f20736574206d696e74696e67206665652070657263656e7445524332303a2064656372656173656420616c6c6f77616e63652062656c6f77207a65726f416363657373436f6e74726f6c3a2063616e206f6e6c792072656e6f756e636520726f6c657320666f722073656c6645524332305061757361626c653a20746f6b656e207472616e73666572207768696c6520706175736564a2646970667358221220e117d71c8ad5b11de17846ac2211e4dbfefeb9e9d6f448fcbdbccf1b232f542b64736f6c63430006020033",
  "source": "pragma solidity 0.6.2;\n\nimport \"@openzeppelin/contracts-ethereum-package/contracts/Initializable.sol\";\nimport \"./EnhancedMinterPauser.sol\";\n\ncontract NNNToken is Initializable, EnhancedMinterPauser {\n    //function __initialize(string memory name, string memory symbol, address feeAddress, uint32 fee)\n    function __initialize(string memory name, string memory symbol)\n        public\n        initializer\n    {\n        __ERC20_init_unchained(name, symbol);\n        __ERC20PresetMinterPauser_init_unchained();\n        __EnhancedMinterPauser_init_unchained();\n    }\n}\n",
  "sourcePath": "/Users/selimerunkut/dev_novem/erc20_nnn_token/contracts/NNNToken.sol",
  "compiler": {
    "name": "solc",
    "version": "0.6.2+commit.bacdbe57.Emscripten.clang"
  },
  "schemaVersion": "3.3.1",
  "updatedAt": "2020-11-20T19:17:10.640Z",
  "networkType": "ethereum",
  "devdoc": {
    "methods": {
      "allowance(address,address)": {
        "details": "See {IERC20-allowance}."
      },
      "approve(address,uint256)": {
        "details": "See {IERC20-approve}.     * Requirements:     * - `spender` cannot be the zero address."
      },
      "balanceOf(address)": {
        "details": "See {IERC20-balanceOf}."
      },
      "burn(uint256)": {
        "details": "Destroys `amount` tokens from the caller.     * See {ERC20-_burn}."
      },
      "burnFrom(address,uint256)": {
        "details": "Destroys `amount` tokens from `account`, deducting from the caller's allowance.     * See {ERC20-_burn} and {ERC20-allowance}.     * Requirements:     * - the caller must have allowance for ``accounts``'s tokens of at least `amount`."
      },
      "decimals()": {
        "details": "Returns the number of decimals used to get its user representation. For example, if `decimals` equals `2`, a balance of `505` tokens should be displayed to a user as `5,05` (`505 / 10 ** 2`).     * Tokens usually opt for a value of 18, imitating the relationship between Ether and Wei. This is the value {ERC20} uses, unless {_setupDecimals} is called.     * NOTE: This information is only used for _display_ purposes: it in no way affects any of the arithmetic of the contract, including {IERC20-balanceOf} and {IERC20-transfer}."
      },
      "decreaseAllowance(address,uint256)": {
        "details": "Atomically decreases the allowance granted to `spender` by the caller.     * This is an alternative to {approve} that can be used as a mitigation for problems described in {IERC20-approve}.     * Emits an {Approval} event indicating the updated allowance.     * Requirements:     * - `spender` cannot be the zero address. - `spender` must have allowance for the caller of at least `subtractedValue`."
      },
      "getRoleAdmin(bytes32)": {
        "details": "Returns the admin role that controls `role`. See {grantRole} and {revokeRole}.     * To change a role's admin, use {_setRoleAdmin}."
      },
      "getRoleMember(bytes32,uint256)": {
        "details": "Returns one of the accounts that have `role`. `index` must be a value between 0 and {getRoleMemberCount}, non-inclusive.     * Role bearers are not sorted in any particular way, and their ordering may change at any point.     * WARNING: When using {getRoleMember} and {getRoleMemberCount}, make sure you perform all queries on the same block. See the following https://forum.openzeppelin.com/t/iterating-over-elements-on-enumerableset-in-openzeppelin-contracts/2296[forum post] for more information."
      },
      "getRoleMemberCount(bytes32)": {
        "details": "Returns the number of accounts that have `role`. Can be used together with {getRoleMember} to enumerate all bearers of a role."
      },
      "grantRole(bytes32,address)": {
        "details": "Grants `role` to `account`.     * If `account` had not been already granted `role`, emits a {RoleGranted} event.     * Requirements:     * - the caller must have ``role``'s admin role."
      },
      "hasRole(bytes32,address)": {
        "details": "Returns `true` if `account` has been granted `role`."
      },
      "increaseAllowance(address,uint256)": {
        "details": "Atomically increases the allowance granted to `spender` by the caller.     * This is an alternative to {approve} that can be used as a mitigation for problems described in {IERC20-approve}.     * Emits an {Approval} event indicating the updated allowance.     * Requirements:     * - `spender` cannot be the zero address."
      },
      "initialize(string,string)": {
        "details": "Grants `DEFAULT_ADMIN_ROLE`, `MINTER_ROLE` and `PAUSER_ROLE` to the account that deploys the contract.     * See {ERC20-constructor}."
      },
      "mint(address,uint256)": {
        "details": "Creates `amount` new tokens for `to`.     * See {ERC20-_mint}.     * Requirements:     * - the caller must have the `MINTER_ROLE`."
      },
      "name()": {
        "details": "Returns the name of the token."
      },
      "pause()": {
        "details": "Pauses all token transfers.     * See {ERC20Pausable} and {Pausable-_pause}.     * Requirements:     * - the caller must have the `PAUSER_ROLE`."
      },
      "paused()": {
        "details": "Returns true if the contract is paused, and false otherwise."
      },
      "renounceRole(bytes32,address)": {
        "details": "Revokes `role` from the calling account.     * Roles are often managed via {grantRole} and {revokeRole}: this function's purpose is to provide a mechanism for accounts to lose their privileges if they are compromised (such as when a trusted device is misplaced).     * If the calling account had been granted `role`, emits a {RoleRevoked} event.     * Requirements:     * - the caller must be `account`."
      },
      "revokeRole(bytes32,address)": {
        "details": "Revokes `role` from `account`.     * If `account` had been granted `role`, emits a {RoleRevoked} event.     * Requirements:     * - the caller must have ``role``'s admin role."
      },
      "symbol()": {
        "details": "Returns the symbol of the token, usually a shorter version of the name."
      },
      "totalSupply()": {
        "details": "See {IERC20-totalSupply}."
      },
      "transferFrom(address,address,uint256)": {
        "details": "See {IERC20-transferFrom}.     * Emits an {Approval} event indicating the updated allowance. This is not required by the EIP. See the note at the beginning of {ERC20};     * Requirements: - `sender` and `recipient` cannot be the zero address. - `sender` must have a balance of at least `amount`. - the caller must have allowance for ``sender``'s tokens of at least `amount`."
      },
      "unpause()": {
        "details": "Unpauses all token transfers.     * See {ERC20Pausable} and {Pausable-_unpause}.     * Requirements:     * - the caller must have the `PAUSER_ROLE`."
      }
    }
  },
  "userdoc": {
    "methods": {}
  }
}